:020000040800F2
:10000000002000204D28000875060008770600082B
:1000100000000000000000000000000000000000E0
:100020000000000000000000000000007906000849
:1000300000000000000000007B0600087D060008AC
:100040009D2800089D2800089D2800089D2800087C
:100050009D2800089D2800089D28000885060008A6
:10006000000000009D2800089D2800089D28000829
:100070009D2800089D2800089D2800080000000019
:10008000090700089D280008000000009D280008BE
:100090009D280008CB0600089D2800089D28000820
:1000A0009D2800089D2800089D2800089D2800081C
:1000B0009D28000800000000000000000000000073
:0C00C0009D280008000000009D2800089A
:1000CC000023C25C0133002AFBD1581E704700008C
:1000DC0002B4714649084900095C49008E4402BCCF
:1000EC007047C04603B47146490840004900095E98
:1000FC0049008E4403BC70478446100062468C460F
:10010C001900634600E0C0461FB508F045FA002808
:10011C0001D40021C8421FBD10B508F08BF9404234
:10012C00013010BD10B508F037FA002801DB0020B3
:10013C0010BD012010BDC04610B508F02DFA0028E6
:10014C0001DD002010BD012010BDC04610B508F027
:10015C00B5F9002801DC002010BD012010BDC046FF
:10016C0010B508F0ABF9002801DA002010BD012011
:10017C0010BDC0461C2101231B04984201D3000C66
:10018C0010391B0A984201D3000A08391B099842FE
:10019C0001D30009043902A2105C40187047C04614
:1001AC000403020201010101000000000000000034
:1001BC0040F2E01040F2E013C2F20000C2F2000381
:1001CC0010B5834205D040F20003C0F2000303B126
:1001DC00984710BD40F2E01040F2E013C2F200006C
:1001EC00C2F200031B1A9A10D90F8918491010B5C6
:1001FC0029B140F20003C0F2000303B1984710BDCF
:10020C0010B540F2E014C2F20004237873B9FFF782
:10021C00CFFF40F20003C0F200032BB149F2B060F3
:10022C00C0F6000000E000BF0123237010BDC046E3
:10023C0040F20003C0F2000310B54BB140F2E411E0
:10024C0049F2B060C2F20001C0F6000000E000BF4D
:10025C00FFF7C0FF10BDC04670B584B000F0D2F9F6
:10026C0000F094FA00F0CCFA00F023FB00F06DFBE8
:10027C0001F0E6FF002400948223A122002100203B
:10028C0002F027F91F250095602340222021102021
:10029C0002F04CF902941026019600944FF6E0738C
:1002AC0052222021202002F098F940F20402C2F2DE
:1002BC0000020294019600954FF6FF734021102026
:1002CC0002F042FA002313E040F2FC12C2F20002E8
:1002DC00580000218152180014304000815218003F
:1002EC0028304000815218003C30400081520133CC
:1002FC00092BE9DD0A2313E040F2FC12C2F20002E2
:10030C0058002221815218001430400081521800EC
:10031C0028304000815218003C304000815201339B
:10032C00132BE9DD502315E01900503909B240F2C6
:10033C00FC12C2F200025800815218001430400026
:10034C008152180028304000815218003C30400087
:10035C0081520133592BE7DD5A2315E0190064391A
:10036C0009B240F2FC12C2F200025800815218008D
:10037C00143040008152180028304000815218007F
:10038C003C30400081520133632BE7DD002409E04F
:10039C0040F2FC13C2F200036200D15E402002F076
:1003AC00FDF901349F2CF3DD49F2E060C0F600004A
:1003BC0003F0E0F9ADE049F2F060C0F6000003F0A4
:1003CC00D9F940F60000C4F6000042F2000100F03A
:1003DC0017FE40F20040C4F6000042F2000100F0AB
:1003EC00DCFD0028F5D09FE0033000F09DFA010001
:1003FC0040F23C34C2F20004206049F20470C0F6B2
:10040C00000003F053F9206807F016F94FF20001D1
:10041C00C4F27F5106F0BEFE43F23331C4F25301F5
:10042C0006F0CAFF09F076F802000B0049F21470CE
:10043C00C0F6000003F03AF940F20040C4F60000A8
:10044C0044F2000100F0A9FD0028F5D077E040F659
:10045C000000C4F600004CF2000100F0D1FD40F2A7
:10046C000040C4F6000048F2000100F096FD0028A0
:10047C00F5D06FE049F22470C0F6000003F07AF971
:10048C0040F20003C2F200031B6842F20F72934267
:10049C001DD840F20002C2F20002F533FF331360A4
:1004AC0040F20003C2F200031A6844F20000C4F2E6
:1004BC000100002101F048FB40F20040C4F60000AE
:1004CC0040F2002100F069FD0028F5D04CE040F22C
:1004DC000003C2F2000340F2F4121A60E0E749F2A2
:1004EC003870C0F6000003F045F946E049F24C7054
:1004FC00C0F6000003F03EF93FE040F24C33C2F28C
:10050C00000300221A7040F24D33C2F200030022A5
:10051C001A7040F20040C4F6000042F2000100F0F4
:10052C003CFD002800D146E740F20040C4F6000034
:10053C0044F2000100F031FD002800D154E740F2F4
:10054C000040C4F6000048F2000100F026FD00282F
:10055C0000D17CE740F20040C4F6000040F20021DC
:10056C0000F01BFD002885D040F24D33C2F2000391
:10057C001B78012BB3D0022BB8D040F24C33C2F213
:10058C0000031B78002BBED040F24833C2F20003AC
:10059C0018680028B1D007F04FF8011C42F2004057
:1005AC00C4F6741006F0F6FD08F0B4FF02000B0060
:1005BC0049F25C70C0F6000003F078F840F2483362
:1005CC00C2F2000300221A6097E7013880235B0413
:1005DC00984215D24EF21002CEF2000250604EF646
:1005EC000051CEF200010B6A1B021B0AC020000650
:1005FC0003430B62002393600733136000207047A2
:10060C000120FCE710B540F21003C2F20003186899
:10061C0040F2E833B0FBF3F0FFF7D7FF00B1FEE791
:10062C004EF60052CEF20002136A1B021B0A136232
:10063C0010BD40F24033C2F20003186040F2403368
:10064C00C2F200031B68002BF8D1704740F2403314
:10065C00C2F200031B6833B140F24033C2F2000314
:10066C001A68013A1A607047FEE7FEE7FEE7FEE7FC
:10067C0010B5FFF7EBFF10BD10B5102000F032FCE9
:10068C00012800D010BD0230FFF7D3FF40F200402C
:10069C00C4F60000082100F080FC48B940F24D334C
:1006AC00C2F2000301221A70102000F026FCE9E7C8
:1006BC0040F24D33C2F2000302221A70F4E710B577
:1006CC0044F20040C4F20100012101F0C5F80128F8
:1006DC0000D010BD40F24C33C2F200031B782BB992
:1006EC0040F24C33C2F2000301221A7044F2004073
:1006FC00C4F20100012101F0BBF8EAE710B540F2A9
:10070C000040C4F20000022101F0A6F8012800D03C
:10071C0010BD40F24833C2F200031B682BB140F20B
:10072C004433C2F2000300221A6040F24433C2F296
:10073C0000031B68EBB140F20040C4F20000002142
:10074C0001F012FB40F24432C2F200021368C31AE9
:10075C004FF6FF7C63444FF6FF71B3FBF1F10C04D1
:10076C00611A5B1A40F24831C2F200010B60106052
:10077C00CEE740F20040C4F20000002101F0F4FA90
:10078C0040F24433C2F200031860C1E710B540F2E6
:10079C00135000F08AFC40F2125000F086FC40F23C
:1007AC00006000F082FC40F60004C4F600044EF237
:1007BC00000300220121200000F0A5FB4EF20003F3
:1007CC0003220021200000F0C5FB40F20040C4F6DB
:1007DC0000004EF218230122002100F094FB0221AC
:1007EC00072000F040FC0421012000F00AFF012248
:1007FC000021102000F014FB102000F07EFB10BD37
:10080C0010B540F2115000F050FC40F20E6000F0B8
:10081C004CFC9024E40540F200620121200000F021
:10082C00C3FB40F2006301220221200000F06BFBAD
:10083C0040F2006301220021200000F08BFB43F604
:10084C000004C4F20104200001F0A2FA00212000EF
:10085C0001F0FEFA0021200001F008FB002120002D
:10086C0001F0E8FAE1214902200001F0B0FA04217C
:10087C00200001F016FB0821200001F00AFB2000EB
:10088C0001F002FB10BD10B50400FF21014043F63E
:10089C000000C4F2010001F00CFB43F60000C4F2AE
:1008AC00010040F2077101F009FB0028F5D020008F
:1008BC0010BD10B540F2096000F0F7FB032000F00A
:1008CC001FFC9020082300220321C00500F01BFB15
:1008DC00002140F2001000F039F90021022000F054
:1008EC0035F9E0210903012000F042FA0522032129
:1008FC00002000F0B1F9002000F06EF9002000F0AB
:10090C0081FA0121012000F07DF90121012000F084
:10091C00FDF9012000F04CFA00F0E8F80120FFF797
:10092C0088FE00F0F3F810BD10B501000522002080
:10093C0000F092F9012000F03BFA022000F056FA88
:10094C000028FAD000F04BFA10BDF0B5CE46474661
:10095C0080B58BB040F2116000F0A7FB40F2106044
:10096C0000F0A3FB40F2017000F09FFB9024E40523
:10097C00042300220221200000F0C5FA04230322E4
:10098C000021200000F0E6FA402300220221200082
:10099C0000F0B9FA402303220021200000F0DAFA1B
:1009AC0004220021200000F0FFFA40220121200047
:1009BC0000F0FAFA44F20048C4F20108404600F094
:1009CC0058FE44F20006C4F20106300000F051FE5D
:1009DC0040F20047C4F20007380000F04AFE06ACB3
:1009EC00200000F0B6FE41F61F43238042F20F7345
:1009FC00A360002540F20009E5806580A5804B4688
:100A0C0023732100404600F0AFFE2100300000F0BF
:100A1C00ABFE200000F09DFE472323804FF6FF73B2
:100A2C00A360E5806580A5804B46237321003800C8
:100A3C0000F09AFE03AC200000F02EFF40F20109FA
:100A4C004B4623806580A580E58025816581220049
:100A5C000021300000F028FF41F2883200213000E4
:100A6C0001F072F860220021300001F041F8002200
:100A7C000021300001F078F8300000F0E4FE012194
:100A8C00300000F0F9FE01AA15804B46538095808A
:100A9C00D5800021380001F0BFF8380000F0D3FEFB
:100AAC000121152000F0DFFA0021102000F0DBFA04
:100ABC000121404600F0DCFE0121404600F0C8FE5A
:100ACC000221380000F0D4FE0221380000F0C0FEF4
:100ADC00404600F0B3FE300000F0B0FE380000F0ED
:100AEC00ADFE0BB0C0BCB946B046F0BD42F20843F7
:100AFC00C4F201031B68DB0707D442F20843C4F2BB
:100B0C0001031A6801210A431A60704742F2084334
:100B1C00C4F201031A6808210A431A6042F208431E
:100B2C00C4F201031B681B07F8D442F20843C4F259
:100B3C0001031A6804210A431A6042F20843C4F202
:100B4C0001031B685B07F8D47047000001B3C305B1
:100B5C0008D542F20443C4F201031A6840F20011B2
:100B6C000A431A60430508D542F20443C4F2010358
:100B7C001A6840F200410A431A60800707D542F216
:100B8C000843C4F201031A6802210A431A60704731
:100B9C00C30507D542F20443C4F201031A680C4999
:100BAC000A401A60430507D542F20443C4F201031C
:100BBC001A6808490A401A608007E8D542F20843CF
:100BCC00C4F201031A6802218A431A60DFE7C046A7
:100BDC00FFFEFFFFFFFBFFFF48B142F20843C4F2E8
:100BEC0001031A6840F600010A431A60704742F28A
:100BFC000843C4F201031A6801490A401A60F5E778
:100C0C00FFF7FFFF012812D0022820D142F238430F
:100C1C00C4F201031A680E4802401A601A680139BE
:100C2C000905C020800301400A431A600FE042F21C
:100C3C002C43C4F201031A68064802401A601A6871
:100C4C0001390905F020000401400A431A6070477D
:100C5C00FFFFCFFFFFFF0FFF30B505281ED842F274
:100C6C003444C4F20104256883001B181F209840EB
:100C7C0085430800984003002B432360092933D88F
:100C8C0042F21040C4F2010004684B005B180721CB
:100C9C0099408C439A402243026030BD0B2810D8F7
:100CAC0042F23044C4F20104256883001B181E3B39
:100CBC001F20984085430800984003002B43236075
:100CCC00DCE70F28DAD842F22C44C4F20104256880
:100CDC0083001B183C3B1F2098408543080098401C
:100CEC0003002B432360C9E71229D6D842F20C40EB
:100CFC00C4F2010004684B005B181E3B07219940AD
:100D0C008C439A4022430260C7E70000B1B1C3078D
:100D1C0008D542F20843C4F2010319688022520339
:100D2C000A431A60800708D542F20843C4F2010353
:100D3C001A6848F200010A431A607047C30707D5C6
:100D4C0042F20843C4F201031A6807490A401A60C8
:100D5C008007F2D542F20843C4F201031A68034932
:100D6C000A401A60E9E7C046FFFFEFFFFF7FFFFF75
:100D7C0001280DD0022816D142F20843C4F2010317
:100D8C001A68094802401A601A680A431A600AE095
:100D9C0042F20843C4F201031A68044802401A6084
:100DAC001A680A431A607047FF8FFFFFFFFFF1FFBD
:100DBC00C30708D542F20843C4F201031968802224
:100DCC00D2030A431A60800708D542F20843C4F2E2
:100DDC0001031968802292030A431A60704742F299
:100DEC004C43C4F20103186880B2704742F20043CE
:100DFC00C4F201031B68184201D100207047012086
:100E0C00FCE7000042F20443C4F201031A680349F0
:100E1C000A401A601A6802431A607047FFFFFFFC11
:100E2C0030B540F20043C4F201031C68C54384434F
:100E3C001C6040F20443C4F201031C6884431C6030
:100E4C0040F20843C4F201031C6884431C6040F266
:100E5C000C43C4F201031C6884431C6049B1012992
:100E6C000ED140F20443C4F2010319680143196026
:100E7C0006E040F20043C4F2010319680143196013
:100E8C00012A11D0022A1ED06AB940F20843C4F2DA
:100E9C0001031A6802431A6040F20C43C4F20103C6
:100EAC001A682A401A6030BD40F20843C4F20103AC
:100EBC001A682A401A6040F20C43C4F201031A6803
:100ECC0002431A60EFE740F20843C4F201031A68C8
:100EDC0002431A6040F20C43C4F201031A68024345
:100EEC001A60E0E740F21443C4F201031B68184295
:100EFC0001D0012070470020FCE740F21443C4F2FB
:100F0C00010318607047F0B5CE46474680B584465D
:100F1C009146180063461F68DE68002401E0013426
:100F2C00A4B20F2C0FD80125A5402842F7D063009E
:100F3C0003259D40AF430A009A401743AE434A46EF
:100F4C009A401643EBE763461F60DE60C0BCB946AF
:100F5C00B046F0BD70B5012905D041689943416098
:100F6C008568002105E0416819434160F8E70131CB
:100F7C0089B20F290BD801248C402342F7D04E00A4
:100F8C000324B440A5431400B4402543EFE7856027
:100F9C0070BD81617047816270470369194201D04D
:100FAC00012070470020FCE7F0B5066A456A002373
:100FBC0001E001339BB2072B0BD801249C40224249
:100FCC00F7D09F000F24BC40A6430C00BC40264326
:100FDC00EFE7082301E001339BB20F2B0DD801245E
:100FEC009C402242F7D01C00083CA4000F27A740CD
:100FFC00BD430F00A7403D43EDE706624562F0BDDF
:10100C00C162704770B5002814DB83084EF20015DE
:10101C00CEF20005C0339B005C5903221040C00087
:10102C00FC3216008640B44389010A4082402243B8
:10103C005A5170BD0F230340083B9B0806339B009D
:10104C004EF6005CCEF2000C63445C680322104048
:10105C00C000FC3215008540AC4389010A40824037
:10106C0022435A60E5E770B5050044B22000FFF753
:10107C00C9FF002C0ADB1F222A406409012393407C
:10108C004EF20012CEF20002A400A35070BD4FF637
:10109C008073C1F6FF73194001434EF60053CEF234
:1010AC0000039960BFF34F8F7047830941F2000C26
:1010BC00C4F2020C63441A681F2108401E39814097
:1010CC000A431A607047830941F2000CC4F2020C07
:1010DC0063441A681F2108401E3981400A431A6074
:1010EC007047830941F2000CC4F2020C63441A6885
:1010FC001F2108401E3981408A431A607047000046
:10110C0041F20403C4F202031A686A490A401A60E5
:10111C0041F23003C4F202031A684FF6FF61C7F6BE
:10112C00FE710A401A6009280FD88000624B1B58C8
:10113C009F4641F23003C4F202031A685F490A4029
:10114C001A601A685E490A401A60704741F230030F
:10115C00C4F202031968802252020A431A601A6808
:10116C0057490A401A60F0E741F20403C4F2020343
:10117C001A681A6041F23003C4F202031A6840F292
:10118C0000110A431A60E0E741F20403C4F20203BF
:10119C001A681A6041F23003C4F202031968802203
:1011AC0012060A431A601A6840F200110A431A60C8
:1011BC00CBE741F20403C4F202031A6844F20001C3
:1011CC000A431A6041F23003C4F202031A6840F277
:1011DC0000110A431A60B8E741F20403C4F2020397
:1011EC001A6844F200010A431A6041F23003C4F257
:1011FC0002031968802212060A431A601A6840F228
:10120C0000110A431A60A0E741F20403C4F202037E
:10121C001A6848F200010A431A6041F23003C4F222
:10122C0002031A6840F200110A431A608DE741F27A
:10123C000403C4F202031A6848F200010A431A605C
:10124C0041F23003C4F202031968802212060A43E9
:10125C001A601A6840F200110A431A6075E741F2ED
:10126C000403C4F202031A684CF200010A431A6028
:10127C0041F23003C4F202031A6840F200110A432F
:10128C001A6062E741F20403C4F202031A684CF2DA
:10129C0000010A431A6041F23003C4F202031968D8
:1012AC00802212060A431A601A6840F200110A439F
:1012BC001A604AE7FF3FFFFF74970008FFFFFEFF2D
:1012CC00FFFEFFFFF0B589B0020004A949F2C86324
:1012DC00C0F600031C00E0CCE0C1080021680160EE
:1012EC0002A81900103160C960C06946103330CBB8
:1012FC0030C141F20403C4F20203196889080323C4
:10130C000B40022B24D041F20020C0F27A0041F2B3
:10131C000404C4F20204216809090F230B4004A938
:10132C00CB5C0500DD4023681B0A07210B4002AE95
:10133C00F35C2E00DE402368DB0A19406B465B5CD5
:10134C002900D940052A34D892005D4B9B589F4602
:10135C0041F20403C4F202031968890C0F200840FF
:10136C001B681B0117D5113041F20403C4F20203B0
:10137C001B68DB0315D541F22C03C4F20203196878
:10138C000F230B40013341F20021C0F27A01B1FB73
:10139C00F3F14843BBE70F2801D00230E4E71020FB
:1013AC00E2E74101091A8B015B1ADB0018180002F5
:1013BC00ADE7002000E0280009B0F0BD3000FBE7ED
:1013CC000800F9E741F23003C4F202031B68DB05A5
:1013DC000BD441F23003C4F202031B68DB0360D46C
:1013EC0049F68070C0F2D500E6E741F20403C4F27E
:1013FC0002031A68920B0323134041F23002C4F229
:10140C0002021268D20F022B1AD007D86BB1012B33
:10141C0002D18AB98808CFE70020CDE7032B02D18F
:10142C00BAB9C808C8E70020C6E70AB94808C3E734
:10143C000320B5FBF0F0BFE70520B5FBF0F0BBE7F0
:10144C001AB90620B1FBF0F0B6E70720B5FBF0F0B7
:10145C00B2E70920B5FBF0F0AEE741F23003C4F27D
:10146C0002031B689B0721D041F23003C4F2020334
:10147C001A6803231340012B9ED041F23003C4F2AF
:10148C0002031A6803231340022B11D041F23003DC
:10149C00C4F202031A6803231340032B0BD0002061
:1014AC008AE743F60070C0F2AB1085E7080083E7CB
:1014BC0048F2000080E741F20020C0F27A007BE79E
:1014CC009C97000810B543F60003C4F20003984241
:1014DC000ED043F20003C4F20103984207D140F24C
:1014EC000C30FFF7F0FD40F20C30FFF7FAFD10BDA9
:1014FC0040F20E40FFF7E7FD40F20E40FFF7F1FD22
:10150C00F5E700230360436040F200728260C36021
:10151C00036143618361704730B5046843F2400353
:10152C001C40026843F640031A4045684FF2FF0323
:10153C002B4043F20005C4F20105A84215D00C68FB
:10154C0014434A682243CC6814430A6922434C6909
:10155C0014438A69224302608A6813434360C36957
:10156C00104A1340C361012030BD0B6823434A6805
:10157C001A43CB6813430A691A434B6913438A69AC
:10158C001A43896840F20073994203D040F6007305
:10159C00994205D140F600030B4013430360DEE78C
:1015AC000020E1E7FFF7FFFF0368402213430360CD
:1015BC00704743F20003C4F20103984204D043681D
:1015CC00DB0403D5017300E0C1607047C160FCE728
:1015DC00836819420DD143F60003C4F2000398420C
:1015EC0009D151B9836841F600021A4207D0002094
:1015FC0000E0012070470020FCE70020FAE7012002
:10160C00F8E703230B409B000F229A40D2439840EB
:10161C008908022923D00CD8B9B101291ED10C2379
:10162C00C4F2010319680A401A601A6802431A606E
:10163C0014E0032912D11423C4F2010319680A40DF
:10164C001A601A6802431A6008E00823C4F2010306
:10165C0019680A401A601A6802431A60704710230E
:10166C00C4F2010319680A401A601A6802431A602E
:10167C00F4E710B542F60043C4F2010398423BD0A4
:10168C0042F60043C4F2010398421AD841F2000317
:10169C00C4F20003984238D042F20003C4F20003B3
:1016AC0098423BD040F20043C4F2000398422BD145
:1016BC0040F20140FFF707FD40F20140FFF711FD3A
:1016CC0022E044F20043C4F2010398422FD044F6C6
:1016DC000003C4F20103984232D044F20003C4F276
:1016EC000103984210D140F21030FFF7ECFC40F2AD
:1016FC001030FFF7F6FC07E040F20B30FFF7E3FC8D
:10170C0040F20B30FFF7EDFC10BD40F20440FFF748
:10171C00DAFC40F20440FFF7E4FCF5E740F2084045
:10172C00FFF7D1FC40F20840FFF7DBFCECE740F29E
:10173C001130FFF7C8FC40F21130FFF7D2FCE3E7A1
:10174C0040F21230FFF7BFFC40F21230FFF7C9FC39
:10175C00DAE700230380438083804FF6FF728260B8
:10176C00C3800373704700000B88836242F600430A
:10177C00C4F20103984205D040F20043C4F20003C6
:10178C0098420BD1036870229343036003684A8824
:10179C001343036003688A88134303608B68C36236
:1017AC0042F60043C4F2010398421DD040F20043BC
:1017BC00C4F20003984217D042F20003C4F20003B3
:1017CC00984211D044F20003C4F2010398420BD0AA
:1017DC0044F20043C4F20103984205D044F60003DE
:1017EC00C4F20103984207D10368134A1340036003
:1017FC000368CA881343036042F60043C4F2010332
:10180C00984211D044F20003C4F2010398420BD069
:10181C0044F20043C4F20103984205D044F600039D
:10182C00C4F20103984201D10B7B0363436901228B
:10183C00134343617047C046FFFCFFFF036801225E
:10184C00134303607047036880221343036070479F
:10185C00C3680B43C3607047C3680B4002691142F5
:10186C0002D01BB9002000E0002070470120FCE7EB
:10187C00C943016170470000012904D0436C054A3B
:10188C00134043647047436C48F2000213434364B3
:10189C00F8E7C046FF7FFFFF00230380438083806F
:1018AC00C380038143817047022900D1CDE032D837
:1018BC00002958D0012900D0A1E0036A10218B43E4
:1018CC000362836982490B408361036A11880901B1
:1018DC000B430362036A20218B430362036A9188E2
:1018EC0009010B43036242F60043C4F20103984220
:1018FC0000D185E044F20003C4F20103984200D009
:10190C007DE0436873490B40436043681289920041
:10191C001343436073E0032971D1036A6E490B4092
:10192C000362C3696A490B40C361036A11880903E6
:10193C000B430362036A69490B400362036A918893
:10194C0009030B43036242F60043C4F201039842BD
:10195C0055D1436862490B40436043681289920138
:10196C00134343604BE0036A01218B430362836999
:10197C0002318B438361036A11880B430362036A50
:10198C0002218B430362036A91880B43036242F684
:10199C000043C4F20103984211D044F20003C4F294
:1019AC00010398420BD044F20043C4F20103984265
:1019BC0005D044F60003C4F2010398421FD1036A18
:1019CC0004218B430362036A51880B430362036A4D
:1019DC0008218B430362036AD1880B43036243687B
:1019EC0040490B404360436811890B434360436893
:1019FC003D490B4043604368528913434360704731
:101A0C00036A40218B430362036A518809010B432B
:101A1C000362036A80218B430362036AD188090144
:101A2C000B43036243682B490B40436043681189A5
:101A3C0089000B43436043682C490B404360436867
:101A4C00518989000B43436054E7036A25490B40D5
:101A5C000362C3690531FF318B43C361036A11888B
:101A6C0009020B430362036A1F490B400362036ABA
:101A7C00918809020B43036242F60043C4F201034E
:101A8C009842BCD1036A13490B400362036A518824
:101A9C0009020B430362036A14490B400362036A95
:101AAC00D18809020B43036243680B490B40436026
:101ABC004368118909010B434360436807490B4094
:101ACC0043604368528912011343436097E7C04651
:101ADC00FFFCFFFFFFFBFFFFFFEFFFFFFFDFFFFF41
:101AEC00FFBFFFFFFFFEFFFFFFFDFFFFFFF7FFFF45
:101AFC0002291FD00BD8A9B101291AD18369114928
:101B0C000B408361836912021A43826111E003293D
:101B1C000FD1C3690B490B40C361C3691202134354
:101B2C00C36106E0836970218B438361836913432E
:101B3C0083617047C36970218B43C361C3691343CD
:101B4C00C361F6E7FF8FFFFF02290BD004D839B130
:101B5C00012906D1826304E0032902D1026400E06A
:101B6C0042637047C263FCE702291FD00BD8A9B1AE
:101B7C0001291AD1836911490B40836183691202CF
:101B8C001A43826111E003290FD1C3690B490B4041
:101B9C00C361C36912021343C36106E08369082160
:101BAC008B4383618369134383617047C369082145
:101BBC008B43C361C3691343C361F6E7FFF7FFFFB0
:101BCC0002291FD00BD8A9B101291AD18369114957
:101BDC000B408361836912021A43826111E003296D
:101BEC000FD1C3690B490B40C361C3691202134384
:101BFC00C36106E083690C218B43836183691343C2
:101C0C0083617047C3690C218B43C361C369134360
:101C1C00C361F6E7FFF3FFFF70B5022900D172E054
:101C2C0026D800294BD0012969D1036A1025AB4372
:101C3C000362036AA024A3430362036A1488240189
:101C4C00234303628369424C234083618369548834
:101C5C0024022343836183693E4C2340836183695F
:101C6C00D488240323438361036A2B43036246E035
:101C7C00032944D1036A384C23400362036A374C6E
:101C8C0023400362036A1488240323430362C36959
:101C9C002F4C2340C361C369548824022343C3617E
:101CAC00C3692C4C2340C361C369D48824032343E8
:101CBC00C361036A41F20004234303621FE0036A19
:101CCC000125AB430362036A0A24A3430362036A3C
:101CDC0014882343036283690324A34383618369C8
:101CEC005488234383618369F024A343836183690C
:101CFC00D488240123438361036A2B4303629288B3
:101D0C00FFF75EFF70BD036A154C23400362036A44
:101D1C00144C23400362036A148824022343036295
:101D2C00C3690324A343C361C36954882343C361B8
:101D3C00C369F024A343C361C369D488240123433A
:101D4C00C361036A40F2001423430362D7E7C04621
:101D5C00FFFCFFFFFF0FFFFFFFEFFFFFFF5FFFFF2A
:101D6C00FFFEFFFFFFF5FFFF02290FD006D859B188
:101D7C00012901D1806B08E0002006E0032901D184
:101D8C00006C02E0002000E0406B7047C06BFCE789
:101D9C0010B544F20043C4F2000398420ED043F64F
:101DAC000003C4F20103984207D140F20E30FFF752
:101DBC008AF940F20E30FFF794F910BD40F2114051
:101DCC00FFF781F940F21140FFF78BF9F5E770B599
:101DDC0004000D0044F20043C4F20003984219D0F1
:101DEC0043F60003C4F20103984217D10520FFF714
:101DFC0069FA23681B0413D543006A089B18B3FBCC
:101E0C00F5F14FF6F0730B40490807220A401343D3
:101E1C00E36070BD0220FFF755FAEAE70020E8E71F
:101E2C006B081B18B3FBF5F34FF6FF721340E3601E
:101E3C00EFE7000003680122934303600368034A41
:101E4C001340036003680B4303607047FFF9FFFF07
:101E5C0003680122934303600368034A1340036041
:101E6C0003680B4303607047FFEFFFFF0368012219
:101E7C00934303604368034A1340436043680B4336
:101E8C0043607047FFCFFFFF0368012213430360D9
:101E9C007047036808229343036003680B43036095
:101EAC007047036804229343036003680B43036089
:101EBC00704740F2FF130B40836270478B091B186D
:101ECC001B681F220A40D340DB0701D50120704755
:101EDC000020FCE7030040F20C02C2F20002106882
:101EEC00C31840F2A042C2F2000293420BD341F657
:101EFC000002C2F20002934208D840F20C02C2F275
:101F0C0000021360704701204042FBE70120404271
:101F1C00F8E70120704740F29043C2F2000316220A
:101F2C001A6001204042704710B501214942FFF769
:101F3C00F2FFFEE770B51600002405E04D1C087892
:101F4C00FEF7A1FC01342900B442F7DB300070BD70
:101F5C0001204042704742F200034B600020704762
:101F6C00012070470020704770B50C00160000254A
:101F7C0004E000E000BF207001350134B542F8DB0D
:101F8C00300070BD41F20003C4F2020319688022D4
:101F9C0052020A431A600022013241F20003C4F2D9
:101FAC0002031B689B0303D44FF6FF739A42F3D1D1
:101FBC0041F20003C4F202031B689B0300D4FEE74A
:101FCC0042F20002C4F20202136807218B43053966
:101FDC000B43136041F20403C4F202031A681A6043
:101FEC001A681A601A681A601A684FF6FF71C7F2FD
:101FFC00C2710A401A601968E82252030A431A6037
:10200C0041F20003C4F202031968802252040A430D
:10201C001A6041F20003C4F202031B689B01F8D55D
:10202C0041F20403C4F202031A6803218A431A60C2
:10203C001A6801390A431A6041F20403C4F202031C
:10204C001A680C231340082BF6D1704710B5FFF714
:10205C0099FF10BD00B583B041F20003C4F2020336
:10206C001A6801210A431A6041F20003C4F2020308
:10207C001B689B07F8D541F20403C4F202031A68EB
:10208C0080210A431A600023019302E0019B013373
:10209C000193019B7F2BF9D941F20403C4F2020393
:1020AC001A6890210A431A600023019302E0019BF5
:1020BC0001330193019B7F2BF9D941F20403C4F244
:1020CC0002031A6803218A431A6041F20002C4F227
:1020DC00020211684FF6FF70CFF6F26001401160FA
:1020EC001A680C21C0F6FF010A401A601A684FF6F4
:1020FC00FF71C7F2C2710A401A6041F22C03C4F29C
:10210C0002031A680F218A431A6041F23003C4F2A9
:10211C0002031A6810490A401A601A680F490A40EB
:10212C001A601A68520052081A6041F23403C4F261
:10213C0002031A6801218A431A6041F20803C4F2AF
:10214C00020300221A60FFF781FF802000210005A6
:10215C00FEF79DFF03B000BDFCFEFFFFFFFFFEFF7F
:10216C0010B5040040F20040C4F600008021FEF7D8
:10217C0012FF43F20000C4F201000221FFF728FA1B
:10218C000028F6D043F20000C4F201002100FFF752
:10219C0010FA40F20040C4F600008021FEF7F9FE70
:1021AC0010BD10B50400000AFFF7DAFFE0B2FFF72C
:1021BC00D7FF10BD70B5040040F20045C4F6000511
:1021CC0040212800FEF7E7FE80212800FEF7E3FE01
:1021DC0043F20000C4F201000221FFF7F9F90028D4
:1021EC00F6D043F20000C4F201002100FFF7E1F940
:1021FC0040F20044C4F6000480212000FEF7C9FE22
:10220C0040212000FEF7C5FE70BDF8B507000D009B
:10221C0016001C002A20FFF7CDFF3800FFF7C1FF86
:10222C003000FFF7BEFF2B20FFF7C4FF2800FFF79D
:10223C00B8FF2000FFF7B5FF2C20FFF7BBFFF8BD60
:10224C0030B589B040F20044C4F6000440F2E0130B
:10225C00002201212000FEF756FE40F2E01303227B
:10226C0000212000FEF776FE40F2E0112000FEF780
:10227C0090FE40F20C60FEF718FF9025ED05A023B0
:10228C00002202212800FEF73EFEA023032200219B
:10229C002800FEF75FFEA02200212800FEF784FE36
:1022AC0043F20005C4F201052800FFF70BF901A861
:1022BC00FFF727F90023029340F20412019240F237
:1022CC000072039203220692FE32FF3204920793AD
:1022DC00059301A92800FFF71FF92800FFF764F9FF
:1022EC0020212000FEF757FE6420FEF7A2F92021E2
:1022FC002000FEF74EFE6420FEF79BF940F2001121
:10230C002000FEF746FE6420FEF793F91120FFF73C
:10231C0051FF7820FEF78DF9B120FFF74BFF052018
:10232C00FFF71EFF3C20FFF71BFF3C20FFF718FFB9
:10233C00B220FFF73FFF0520FFF712FF3C20FFF70D
:10234C000FFF3C20FFF70CFFB320FFF733FF0520F6
:10235C00FFF706FF3C20FFF703FF3C20FFF700FFD1
:10236C000520FFF7FDFE3C20FFF7FAFE3C20FFF7AF
:10237C00F7FEB420FFF71EFF0320FFF7F1FEC0208D
:10238C00FFF718FF2820FFF7EBFE0820FFF7E8FE09
:10239C000420FFF7E5FEC120FFF70CFFC020FFF77C
:1023AC00DFFEC220FFF706FF0D20FFF7D9FE00204D
:1023BC00FFF7D6FEC320FFF7FDFE8D20FFF7D0FE02
:1023CC002A20FFF7CDFEC420FFF7F4FE8D20FFF787
:1023DC00C7FEEE20FFF7C4FEC520FFF7EBFE1A2068
:1023EC00FFF7BEFE3620FFF7E5FE7020FFF7B8FEC4
:1023FC00E020FFF7DFFE0420FFF7B2FE2220FFF7FC
:10240C00AFFE0720FFF7ACFE0A20FFF7A9FE2E2037
:10241C00FFF7A6FE3020FFF7A3FE2520FFF7A0FE56
:10242C002A20FFF79DFE2820FFF79AFE2620FFF7B3
:10243C0097FE2E20FFF794FE3A20FFF791FE002026
:10244C00FFF78EFE0120FFF78BFE0320FFF788FEBF
:10245C001320FFF785FEE120FFF7ACFE0420FFF709
:10246C007FFE1620FFF77CFE0620FFF779FE0D207D
:10247C00FFF776FE2D20FFF773FE2620FFF770FE88
:10248C002320FFF76DFE2720FFF76AFE2720FFF7BA
:10249C0067FE2520FFF764FE2D20FFF761FE3B2031
:1024AC00FFF75EFE0020FFF75BFE0120FFF758FEF2
:1024BC000420FFF755FE1320FFF752FE3A20FFF7DA
:1024CC0079FE0520FFF74CFE2920FFF773FE09B0BB
:1024DC0030BDF0B5CE4600B582B001900E001500AF
:1024EC00994608AB1F884B46013B9BB2013A92B20E
:1024FC00FFF78BFE08E03800FFF753FE0134A4B25F
:10250C00AC42F8D30136B6B24E4501D2019CF7E786
:10251C0002B080BCB946F0BD10B514000B0002002F
:10252C00FFF773FE2000FFF73CFE10BDF0B5DE4652
:10253C0057464E464546E0B585B00EAC2488A146BC
:10254C000190141AA24602915C1AA3465446002C20
:10255C000DDD40F201085A46002A11DD01230393D8
:10256C00DA4516DD554600270026002415E02CB16F
:10257C00821A9246012252429046ECE7D046EAE794
:10258C002AB1CB1A9B4601235B420393E8E70392E3
:10259C00E6E75D46E7E70134A4B2AC4216DC6B46D5
:1025AC00198998884A46FFF7B7FF56445F44B542ED
:1025BC0003DA761B019B43440193BD42EBDA7F1B8C
:1025CC00029B039A944663440293E4E705B0F0BC83
:1025DC00BB46B246A946A046F0BDF0B5DE4657460E
:1025EC004E464546E0B587B082460D0003910093F8
:1025FC0010AB1B88029311AB1C78019412AB1B78A7
:10260C0099466708210907233B40581E8341CB1884
:10261C0020005C430494203AD3B205935346FA1835
:10262C0092B22B00844663449BB2013B9BB2013AAD
:10263C0092B229005046FFF7E8FD564640F2000BD7
:10264C00002557E0059A5300944663449B004CF2D6
:10265C003472C0F60002944663445A469B5C98461A
:10266C00002428E0059B1B014CF24412C0F600022A
:10267C00944663445A469B5C9846F1E7059A53008E
:10268C00944663441B014AF67472C0F600029446E9
:10269C0063445A469B5C9846E2E70298FFF781FD3B
:1026AC000135EDB2B5FBF7F37B43EB1ADBB2002B34
:1026BC0041D00134E4B2072C18D84B463BB9434601
:1026CC002341DB07E9D50098FFF76BFDE8E74346AC
:1026DC002341DB0729D40136B6B25346F31ABB4269
:1026EC00E7D1039B01339BB2039356465A46013202
:1026FC0093B29B46049B9B451FD2019B0C2BA1D0F4
:10270C00019B102BAED0019B182BB7D0019B202B1B
:10271C0013D1059B9B0149F2B472C0F6000294469A
:10272C0063445A469B5C98469AE7009A039930009A
:10273C00FFF7F2FECFE71D00D8E707B0F0BCBB46B1
:10274C00B246A946A046F0BDF0B5D6464F46464621
:10275C00C0B584B006000F0014009A460CAB1B8861
:10276C0099460DAB1D780EAB1B7898460DE0434691
:10277C00029301954B460093534639003000FFF706
:10278C002CFF68083618B6B201342278002AEED134
:10279C0004B0E0BCBA46B146A846F0BD30B583B033
:1027AC0089B2401A84B240F21403C2F200031B78BF
:1027BC00EBB940F25033C2F2000318889E282DD892
:1027CC00421C92B240F24E35C2F2000529884FF6F7
:1027DC00E07300932300FFF7A9FE40F25033C2F2DE
:1027EC0000031A8801321A802C8003B030BD40F2ED
:1027FC001403C2F2000300251D7040F2E0722100A8
:10280C000020FFF789FE40F25033C2F200031D8016
:10281C0040F24E33C2F200031C80E6E740F2E07255
:10282C0021000020FFF778FE40F25033C2F2000383
:10283C0000221A8040F24E33C2F200031C80D4E70F
:10284C000D488546002103E00C4B5B584350043186
:10285C000B480C4B42189A42F6D30B4A02E0002369
:10286C0013600432094B9A42F9D3FFF7F3FB01F0E2
:10287C00E1F8FDF7F1FCFEE70020002098D00008FD
:10288C0000000020E0010020E0010020A004002056
:10289C00FEE7F0B51F00002316008BB09F4204DA50
:1028AC00802109067B181F002D23129A149D13708A
:1028BC00202303229D43462D07D02B00453B594234
:1028CC004B411099013ACB18109309AB049308AB08
:1028DC000393139B00920293109B320001933B00D5
:1028EC0001F06AF90400472D1AD1119BDB0710D5B2
:1028FC00109BC31807930022002330003900FDF70A
:10290C000BFC08B1079B09933022099B07998B425A
:10291C001FD32000099B159A1B1B13600BB0F0BD35
:10292C00109BC3180793462DE5D10378302B0BD1A0
:10293C000022002330003900FDF7EEFB20B9012303
:10294C00109A9B1A139A1360139B079A1B68D3183F
:10295C00D0E7591C09911A70D7E7F7B52B230270F1
:10296C00002901DA494202334370092926DD6B46FE
:10297C00DA1D15000A2791FBF7F63B007343CB1ABF
:10298C0030331400013A13700B003100632BF2DC6E
:10299C00A61E3031831C317032001900954208D8C4
:1029AC000022B54202D309326A44121B9B18181A32
:1029BC00FEBD177801320F700131EFE73023303153
:1029CC008370C170031DF2E7F0B597B00D000A9249
:1029DC001C9C0B93099000F0E3FF036818000D9307
:1029EC00FDF76EFB00230F9014932B7E07220C93A4
:1029FC002B680E930E992368C90542D59B189343F7
:102A0C001A000832226001221E685F687B005B0896
:102A1C0011931096AE64EF6410981199A54B524225
:102A2C0006F0D4FC00282ED1109811990122A14B4C
:102A3C005242FDF781FB30BB0022002330003900ED
:102A4C00FDF770FB18B12B002D2243331A700C9B31
:102A5C00472B2AD8984F032300240E9A2B6101335D
:102A6C009A432A600B9B2900009309980A9B15AA8C
:102A7C0000F0E2F9013000D09EE00120404217B096
:102A8C00F0BD0733BBE732003B003000390006F0E5
:102A9C009DFC70B1002F03DA2B002D2243331A70EA
:102AAC000C9B472B03D8854FD5E7854FD3E7854F34
:102ABC00D1E720220C9C6B6894435A1C46D10733F7
:102ACC006B6040F200430E9A0AA9134300222B605C
:102ADC00069214AA05920C9A0193049213AA0392DB
:102AEC002322521802926B683200009309983B0023
:102AFC00FFF7CFFE139A0700472C2DD1D31C02DB16
:102B0C006B689A4245DD0C9B023BDBB20C932800B0
:102B1C0013990C9A013950301391FFF71EFF149A38
:102B2C00040013182B61012A02DC2A68D20701D594
:102B3C0001332B6123230AAA9B181B78002B00D18D
:102B4C0090E72B002D2243331A708BE7472CB8D11A
:102B5C00002BB6D10133B3E70C9B652BD7D90C9B5B
:102B6C00662B18D16B68002A08DD2A6113B9296815
:102B7C00C9070AD501339B182B6106E01BB901224A
:102B8C002968114200D09A1C2A61139B0024AB6562
:102B9C00D0E767230C931399149B994206DB2B689F
:102BAC002961DB07F1D501312961EEE7012200290A
:102BBC00E1DC9218521ADEE72A68530508D42B6917
:102BCC003A000A9909980B9CA047013028D154E788
:102BDC000C9B652B00D8DAE0A86CE96C0022002372
:102BEC00FDF79AFA98B30123374A0A9909980B9C76
:102BFC00A047013000D140E7149E139BB34202DB87
:102C0C002B68DB070CD50B9C0F9B0D9A0A99099826
:102C1C00A0470024013000D12FE7731EA3420ADC29
:102C2C002B689B0700D505E1159BE868984200DBF3
:102C3C0025E7180023E72A0001230A9909980B9F1E
:102C4C001A32B847013000D117E70134E5E7139B7E
:102C5C00002B3BDC01231C4A0A9909980B9CA047CA
:102C6C00013000D109E7149E139B334313B92B6831
:102C7C00DB07D5D50F9B0D9A0A9909980B9CA04799
:102C8C000023013000D1F8E60C93139B0C9A5B42A5
:102C9C00934201DC330093E72A0001230A99099837
:102CAC000B9C1A32A047013000D1E6E60C9B013395
:102CBC00EAE7C046FFFFEF7FA8CB0008B0CB0008C7
:102CCC00ACCB0008B4CB0008B8CB0008149BAE6D9D
:102CDC000C939E4200DD1E00002E31DCF3430024D9
:102CEC00DB1733400E93AE6D0E9BF31AA34230DC10
:102CFC00139B0C9A9A4238DC2B68DB0735D4139C57
:102D0C000C9B0C9A9B1B141B9C4200DD1C00002C82
:102D1C0034DCE3430026DB171C40139B0C9AD31ABC
:102D2C001B1BB34200DC7BE72A0001230A9909989C
:102D3C000B9F1A32B847013000D19EE60136ECE702
:102D4C0033003A000A9909980B9CA0470130C5D171
:102D5C0093E62A0001230A9909980B9E1A32B04770
:102D6C00013000D189E60134BDE70F9B0D9A0A9919
:102D7C0009980B9CA0470130C1D17EE6BA192300FB
:102D8C000A9909980B9EB0470130C2D175E6149B85
:102D9C000C93012B02DC01231A4238D001233A0098
:102DAC000A9909980B9EB047013000D165E60F9B3C
:102DBC000D9A0A9909980B9EB047013000D15CE638
:102DCC00A86CE96C0C9B0022013B0C930023FDF7D3
:102DDC00A3F9D0B90C9B7A1C0A9909980B9EB047A1
:102DEC0001300ED149E62A0001230A9909980B9F5C
:102DFC001A32B847013000D13FE601360C9B9E4297
:102E0C00F1DB2A0023005032DBE60026F6E73A001D
:102E1C00E2E72A0001230A9909980B9E1932B04760
:102E2C00013000D129E60134EB68159A9B1AA342B4
:102E3C00EFDCF9E60024F7E7F7B5160001938A6892
:102E4C000B690C000090934200DA130022003360EF
:102E5C00433212780AB10133336023689B0602D5E2
:102E6C003368023333602268062315001D401A4272
:102E7C0027D0230043331B785A1E934122689206B5
:102E8C0030D4220001990098089D4332A8470130A4
:102E9C0025D00622236800251340042B05D1336866
:102EAC00E568ED1AEB43DB171D40A36822699342DA
:102EBC0001DD9B1AED180026B54220D1002010E050
:102ECC000135E36832689B1AAB42D2DD2200012344
:102EDC0001990098089F1932B8470130F0D10120B0
:102EEC004042FEBD3020E1184331087021005A1CCD
:102EFC0045310978A218433202331170C1E7220020
:102F0C00012301990098089F1A32B8470130E6D086
:102F1C000136D1E7F0B50E0089B004920390059309
:102F2C000C00097E0E9A4336782907D8622909D8F5
:102F3C00002900D1B7E0582900D1A0E02500423586
:102F4C00297022E0080063381528F7D8FDF7CAF875
:102F5C0016001F00F6FFF6FFF6FFF6FF1F00F6FF48
:102F6C00F6FFF6FFF6FF9E0034004300F6FFF6FF77
:102F7C00AF00F6FF3400F6FFF6FF4700250013689C
:102F8C004235191D1B6811602B7001239CE01368DE
:102F9C002068191D050609D51B681160002B02DA83
:102FAC002D225B4232700A225B4832E01B681160B2
:102FBC004006F3D51BB2F1E71068256808C82F0648
:102FCC0002D46D0600D59BB21060082252486F29BE
:102FDC001BD00A2219E0202321680B43236078219F
:102FEC004E482300453319701568216808CD0F062B
:102FFC0002D44F0600D59BB21560CA0702D5202219
:10300C000A432260002B3CD01022210000254331C2
:10301C000D706168A160002908DB40F2040C674662
:10302C0025681943BD432560350061B13500B3FBFC
:10303C00F2FC61465143591A415C013D297019005B
:10304C0063468A42F3D9082A09D12368DB0706D5DF
:10305C00626823699A4202DC3023013D2B70761B97
:10306C002661059B210000930398049B07AAFFF798
:10307C00E3FE01302CD10120404209B0F0BD2648BE
:10308C00AFE7202122688A432260BDE713682568D8
:10309C00181D616910601B682F0601D5196002E0CC
:1030AC006D06FBD51980002335002361D9E7136821
:1030BC00191D11601D6800212800626800F0E5FCF4
:1030CC0008B1401B60606368236100233370C8E75C
:1030DC002A00236904990398059DA8470130CAD09A
:1030EC0023689B0715D4079BE0689842C5DA180043
:1030FC00C3E72200012304990398059E1932B047B7
:10310C000130B8D00135E368079A9B1AAB42F0DC6A
:10311C00E9E70025F7E7C046BACB0008CBCB00089F
:10312C00F0B58BB01600039040F25C1200200793B0
:10313C008B680C00591E0690914205D95E3BFF3BF3
:10314C00069340F25D13A36040F280732268002561
:10315C001343236023001C331F000493029509952D
:10316C00089501950595A26852B133681B784E2BD2
:10317C0043D81800402B2BD82B38C1B20E2929D993
:10318C00019B1BB12368A34A13402360029B013BA4
:10319C00012B00D9F9E040F27C15049B9F4200D929
:1031AC00E9E001200BB0F0BD180061380D28E7D81C
:1031BC00FCF798FF8500E6FFE6FFE6FFB600A200ED
:1031CC00E6FFE6FF8B00E6FFE6FFE6FFE6FF6900A1
:1031DC004138EBE70E28D3D8FCF784FF4D00D2FF23
:1031EC004D009800D2FF20003F003F003F003F0001
:1031FC003F003F003F003F003F006E2B09D8602B83
:10320C00D2D8542B7DD0592BBAD1072DB8D1082543
:10321C002EE0742B75D0792BF7D0B1E72168C80557
:10322C001BD580239943019B216001330193069B9D
:10323C001BB1013B01320693A260A368013BA36062
:10324C002369013323617368013B7360002B00DC3D
:10325C0087E033680133336085E7029A51190029FE
:10326C0000D08DE70D0022686B480291024022606D
:10327C003B700137E1E7802122680A4200D17FE7E9
:10328C008A432260F4E7029A72B9019A7AB92268E9
:10329C0040F2007110000840884208D15F490A4092
:1032AC00226001220292E3E7029A022A57D0012DF2
:1032BC0002D0042D00D063E70135EDB2D8E7029AB5
:1032CC00012A00D05CE70222ECE785B9019A002ABA
:1032DC0000D057E7226840F2007110000840884285
:1032EC0000D01AE14D4901350A402260C0E7FD21AA
:1032FC00EA1E0A42E0D043E7022D00D040E7032546
:10330C00B6E7062D00D03BE70725B1E7226891050B
:10331C0000D435E742490A402260019A0592A7E79A
:10332C0040F2005140F2004022681140814206D028
:10333C00024200D124E70199002900D1EDE091056A
:10334C0004D4019905980997091A089133490A4040
:10335C0040F280110A4322600022019288E7032286
:10336C00A0E740F280133100E358039898470028F7
:10337C0000D1F8E604E7013F63593200397803982D
:10338C0098472369013B236107E76B1E062B0ED878
:10339C000297022D20D9EB1BDBB20693029B069AF7
:1033AC009B18DBB2032B27D1033DEDB27F1B2368A7
:1033BC00DA0552D55B0535D540F27C15049B9F424E
:1033CC0000D8EEE6013F63593200397803989847EC
:1033DC002369013B2361F1E740F27C15049B9F427A
:1033EC0000D8DEE6013F63593200397803989847DC
:1033FC002369013B2361F1E7029B3200013B197801
:10340C00029340F27C130398E35898472369013BDD
:10341C002361C3E7FFFEFFFF7FFEFFFF7FF8FFFF87
:10342C007FFDFFFF23697D1E2978013B2361652900
:10343C000CD045290AD040F27C133200E358039893
:10344C0098472369BD1E013B2978236140F27C1308
:10345C003200E358039898472F00216810230A0084
:10346C001A40194201D000209CE640F200613A70EB
:10347C0023680B4040F200418B421BD1059B019A03
:10348C0001999A1A8B4221D100220499039802F0D7
:10349C0015FD079B226806000F001B68910722D5BB
:1034AC0007991A1D0A601B681E605F60E368013390
:1034BC00E360D8E7089B002BE6D0099B0398591CC6
:1034CC000A2302F097FD089B099FC21A2300703350
:1034DC00FF339F4202D327006F37FF373800104964
:1034EC0000F052F9D0E7191D520702D5079A116066
:1034FC00D9E7079A300011601D6832003B00390093
:10350C0005F064FF20B1074800F0CAFA2860CDE747
:10351C003000390006F042F8F8E70023019335E655
:10352C00DCCB00081FCD0008002310B5040003609D
:10353C004360836081814366C2810361436183611F
:10354C00190008225C3000F023FA0B4B24626362F2
:10355C000A4BA3620A4BE3620A4B23630A4B9C425D
:10356C0005D00A4B9C4202D0094B9C4203D120004F
:10357C00583000F087FA10BDD93700080138000820
:10358C00393800086538000854030020BC030020BB
:10359C002404002010B5034A0349044800F06AF8DB
:1035AC0010BDC04618000020456600082800002009
:1035BC0041680B4B10B50400994201D003F03CF864
:1035CC00A168084B994202D0200003F035F8E1685D
:1035DC00054B994202D0200003F02EF810BDC046D6
:1035EC0054030020BC0300202404002010B5094B18
:1035FC00094A04211A6009480022FFF795FF0122AD
:10360C0009210748FFF790FF022212210548FFF716
:10361C008BFF10BD8C040020A13500085403002042
:10362C00BC0300202404002010B5024800F02BFA43
:10363C0010BDC0469504002010B5024800F024FAD5
:10364C0010BDC0469504002010B50400FFF7ECFF38
:10365C00236A13B1FFF7F0FF10BD044B2362044B38
:10366C001B68002BF6D1FFF7C1FFF3E7BD3500084F
:10367C008C040020F7B51400002600900191A56879
:10368C006768013F04D52468002CF8D13000FEBDDA
:10369C00AB89012B08D90E22AB5E013304D0290073
:1036AC000098019B984706436835EAE70FB407B5C5
:1036BC00054904AB086804CB8168019302F024FE31
:1036CC0003B008BC04B0184724000020036A70B58E
:1036DC0005000E0084680BB9FFF7B6FF636EDB07BD
:1036EC0005D4A3899B0502D4A06D00F0CCF9A38965
:1036FC001B0701D52369F3B92100280000F0F0F86D
:10370C00C8B101256D42636EDB0705D4A3899B0507
:10371C0002D4A06D00F0B8F9280070BD0136A3608A
:10372C00002B04DAA2699A4216DC0A2914D0236809
:10373C005A1C22601970A3683178013B0029EDD125
:10374C00A360002B0FDA220028000A3100F08AF85F
:10375C000130D6D00A25D6E72200280000F082F8E6
:10376C000130E8D1CDE723685A1C22600A221A7076
:10377C00F0E7000010B5034B01001868FFF7A6FF37
:10378C0010BDC046240000200EB410B500240C4916
:10379C009DB01FAB029006900791049109480A490D
:1037AC0004CB0591006802A901931B9402F088FCDC
:1037BC00029B1C701DB010BC08BC03B01847C0465F
:1037CC00FFFFFF7F240000200802FFFF70B50C00F4
:1037DC000E25495F00F00AF9002803DB636D1B1806
:1037EC00636570BDA389024A1340A381F9E7C04603
:1037FC00FFEFFFFFF8B51F008B8905000C001600CA
:10380C00DB0505D50E23C95E0022022300F0DCF88F
:10381C00A389054A28001340A38132000E23E15EE0
:10382C003B0000F0F5F8F8BDFFEFFFFF70B50C00A2
:10383C000E25495F00F0C8F8A389421C03D1054A44
:10384C001340A38170BD41F200021343A381606554
:10385C00F8E7C046FFEFFFFF10B50E23C95E00F07E
:10386C00A3F810BDF8B506000D00140018B1036ADA
:10387C000BB9FFF7E9FEA369A360A3891B0701D568
:10388C00236943B92100300000F02AF818B1012552
:10389C006D422800F8BD23692068EFB2C01A636935
:1038AC00EDB2834205DC2100300002F0C5FE002899
:1038BC00EDD1A3680130013BA36023685A1C226040
:1038CC001F706369834204D0A389DB07E1D50A2DFD
:1038DC00DFD12100300002F0AFFE0028D9D0D6E7AE
:1038EC002A4B70B5050018680C0018B1036A0BB9A7
:1038FC00FFF7AAFE0C22A35E1A0722D4DA0607D41D
:10390C0009222A60402201201343A381404237E060
:10391C005B0712D5616B41B123004433994202D04D
:10392C00280000F01FFF002363632422A389934324
:10393C00A38100236360236923600823A2891343B6
:10394C00A38123695BB940F2802140F20022A38954
:10395C000B40934203D02100280002F0BFFE0C2242
:10396C00A35E01211A000A400B420AD00022A26079
:10397C0062695242A261226900200AB91A06C1D4B6
:10398C0070BD990700D46269A260F4E7240000209E
:10399C0003008218934200D1704719700133F9E784
:1039AC000048704764010020002370B5054D0400E9
:1039BC0008002B60FEF7CCFA431C02D12B6803B134
:1039CC00236070BD9004002070B504000800110045
:1039DC001A000023044D2B60FEF7C4FA431C02D1DD
:1039EC002B6803B1236070BD9004002070B50400F7
:1039FC00080011001A000023044D2B60FEF7B4FAE6
:103A0C00431C02D12B6803B1236070BD90040020CD
:103A1C0070B50400080011001A000023044D2B603F
:103A2C00FEF788FA431C02D12B6803B1236070BDEA
:103A3C009004002070B500250E4C0F4BE41AA41016
:103A4C00A54209D1002505F02DFE0C4C0C4BE41AB7
:103A5C00A410A54207D170BD074AAB009B181B6888
:103A6C0098470135ECE7064AAB009B181B68984752
:103A7C000135EEE790D0000890D0000894D00008F3
:103A8C0090D00008704770477047C9B282189042B6
:103A9C0001D10020704703788B42FBD00130F6E750
:103AAC00004870470000C07FF0B503690C69050041
:103ABC0089B00020A3426ADB0B00013C1433A00048
:103ACC0004931B1805932B00143318180193059BB2
:103ADC0002681B680133B2FBF3F602969A422FD3AD
:103AEC00019B049F9C4600230393079308CF029AE3
:103AFC009EB25643039A1B0CB618029A5343320CCF
:103B0C009B181A0C039262461268B6B206926A4669
:103B1C00128B9BB2921B079E9219069E360CF31ABF
:103B2C0016149E1933140793634692B2360432432B
:103B3C0004C39C46059BBB42D8D20368002B2BD0F8
:103B4C00280001F0D1F9002820DB0027019E049900
:103B5C00336801C903936B469B8982B29A1A039B03
:103B6C00D219000C1B0C1B1A10141B181F1492B228
:103B7C001B041A43059B04C68B42E9D2019AA3008D
:103B8C00D3181A688AB1029B01330293029809B0C8
:103B9C00F0BD036823B9013C019B04388342F8D380
:103BAC002C61CDE71A6822B9013C019A043B9A4278
:103BBC00F8D32C61E7E70000F0B514001D00C669CE
:103BCC009DB00A940B95259F03907EB9102000F0B0
:103BDC0011FE039B0200D86120B9EF21BF4BC048F6
:103BEC0002F026FE466086600660C660039BDB69B9
:103BFC00196859B15A68012393404A608B60039845
:103C0C0000F0F4FE0022039BDB691A60002D19DA28
:103C1C0001233B606B005B080B930B9FB14BB14ACC
:103C2C003B4093421DD142F20F73249A13603B0325
:103C3C001B0B2343002B01D100F069FD269B63B9BC
:103C4C00A94B23E000233B60E7E7A84B0893A84B64
:103C5C00269A136008981DB0F0BDA34B0893A54B92
:103C6C00F6E70A9A0B9B129213931298139900225F
:103C7C000023FCF751FA060050B10123249A13607B
:103C8C00269B13B19C4B269A13609C4B0893E1E73F
:103C9C001AAB01931BAB00930398129A139B01F080
:103CAC0041FA7A00520D0590002A79D0139B189690
:103CBC001903934B090B0B439249571812981399FC
:103CCC0019000022904B04F0AFFF904A904B04F087
:103CDC00D1FC904A904B03F0EFFC040038000D002F
:103CEC0005F0C8FB8D4A8E4B04F0C4FC02000B009F
:103CFC002000290003F0E0FC04000D0005F082FB1D
:103D0C0000220490002320002900FCF70BFA58B184
:103D1C00049805F0AFFB2B002200FCF7FDF94342A1
:103D2C005841049B1B1A049301231593049B162BD7
:103D3C000FD8129813997B4ADB009B181A685B68A2
:103D4C00FCF7F0F9002849D0049B013B04930023B5
:103D5C00159300221A9B0992DB1B5A1E40D5012297
:103D6C00D31A099300230E93049B002B3ADB049A7D
:103D7C000E9B944663440E93002314920F93229B44
:103D8C000124092B62D8052B02DD0024043B22936D
:103D9C00229B981E032863D8FCF79AF954563A2DA7
:103DAC001B9B1A9EF61840F23243F218202A10DDA3
:103DBC0040239B1A9F4040F21243F318DC4038001A
:103DCC00204305F083FB0122574B771ECB1818922A
:103DDC0076E7202320009B1A9840F2E71590B8E76D
:103DEC000E92C1E7099B049A9B1A099353420F93B5
:103DFC0000231493C3E70123239A10939446049B46
:103E0C006344069301330C93002B08DC012306E07A
:103E1C0001231093239B002B26DD06930C93039A0E
:103E2C000021D0690422150014359D4221D941602E
:103E3C00039800F09BFD0890F0B9020040F2AF111E
:103E4C003A4BCCE60023E4E70023D5E7002310949B
:103E5C002293013B002206930C9313332392DEE74B
:103E6C0001231093023BF5E701231A0006930C93F0
:103E7C00F4E701315200D6E7039B089ADB691A601C
:103E8C000C9B0E2B00D9D1E0002C00D1CEE0049B72
:103E9C00002B60DD0F2223491340DB005B181E68EA
:103EAC005F68049B02241D11DB050AD51298139937
:103EBC001F4B15401A6A5B6A03F080FF0A900B9146
:103ECC0001341B4B0D93ADBB0A980B9932003B0090
:103EDC0003F074FF0A900B9157E0C046EECB00083C
:103EEC0005CC00080000F07FEACB0008E1CB00080D
:103EFC00E9CB0008EDCB0008B9CB0008B8CB000823
:103F0C000000F03F01FCFFFF0000F83F61436F63CE
:103F1C00A787D23FB3C8608B288AC63FFB799F50D6
:103F2C001344D33FB8CD0008000010FE5ECC00084F
:103F3C0090CD000801231D4209D0E4180D9B3000E0
:103F4C001A685B68390004F095FB06000F000D9BA6
:103F5C006D100833B6E7049B0224B3B11298139981
:103F6C005D420F23D34A2B40DB009B181A685B6819
:103F7C0004F080FB012700230A900B91CE4E2D11EB
:103F8C00002D00D093E0002BA4D10A9E0B9F159B13
:103F9C00002B00D196E0002230003900C74BFCF713
:103FAC00C1F8002800D18DE00C9B002B00D189E0DA
:103FBC00069B002B36DD049B0022013B0D93300049
:103FCC00BF4B390004F056FB0A900B91069B013451
:103FDC002000119305F04EFA0A9A0B9B04F04AFB51
:103FEC00B84B002203F068FBB74B0600CF18119BAF
:103FFC00002B6BD10A980B990022B44B04F014FEE1
:10400C0032003B0004000D00FCF7A0F8002800D0A3
:10401C00A8E2802109067B18320020002900FCF759
:10402C0081F840BB129B139C0A930B941B9B002B97
:10403C0000DA71E1049A0E2A00DD6DE1D3009D4A8D
:10404C009B185C681B6806930794239B002B00DB72
:10405C00E6E00C9B002B00DDE2E063B906980799C3
:10406C0000229A4B04F006FB0A9A0B9BFCF778F89B
:10407C00002800D179E200263700239B089CDB4303
:10408C000D93049700273100039800F0AFFC049BBC
:10409C00002B00D1BAE02FB19F4203D03900039816
:1040AC0000F0A4FC0499039800F0A0FCAEE03D42A3
:1040BC0005D03268736804F0DDFA3B0001346D10F2
:1040CC0008365DE7049B0D930C9B81E7119B794AA5
:1040DC00013BDB0010999B181A685B6800294CD0D7
:1040EC0000207B4903F06AFE32003B0004F09CFD8B
:1040FC00089A060094460F00089B1693119B634484
:10410C0011930A980B9905F07DF9050005F0B2F9A9
:10411C0002000B000A980B9904F086FD169B3035B3
:10412C005C1C1D7032003B000A900B91FBF7FAFFF0
:10413C0000286BD10A9A0B9B0020604904F074FD97
:10414C0032003B00FBF7EEFF002800D0C4E0119BCF
:10415C00A34200D166E7002230003900584B04F02E
:10416C0089FA002206000F000A980B99544B04F0B0
:10417C0081FA16940A900B91C3E73000390004F0D1
:10418C0079FA089D119A2B00944616901791634466
:10419C0019930A980B9905F035F9040005F06AF9A2
:1041AC000B0002000A980B9904F03EFD3034199B69
:1041BC002C70013506000F00AB422AD116981799C6
:1041CC00089B119C9C460022414B644403F074FAFA
:1041DC0002000B0030003900FBF7B8FF002800D0BC
:1041EC007AE0169A179B0020394904F01DFD020055
:1041FC000B0030003900FBF795FF002800D111E7C8
:10420C002300013C2278302AFAD01C000D9B049329
:10421C0040E000222A4B04F02DFA0A900B91B8E7EB
:10422C000C9B089D013B5B190C930A9E0B9F069AF5
:10423C00079B3000390003F0C1FD05F0E3F809904D
:10424C0005F018F9069A079B04F014FA02000B000B
:10425C003000390004F0E8FC2B00099A01353032AB
:10426C001A700C9A2C009A4249D102000B0003F0F0
:10427C0023FA069A079B06000F00FBF767FF48BB63
:10428C00069A079B30003900FBF746FF10B1099BDB
:10429C00DD071FD40599039800F0A8FB00232370B9
:1042AC00049B249A01331360269B002B00D1D1E48C
:1042BC001C60CFE4B8CD000890CD00080000F03FA2
:1042CC000000244000001C400000C0FC0000144012
:1042DC000000E03F049B0D9323001C00013B1A7867
:1042EC00392A08D1089A9A42F7D10D9A08990132C5
:1042FC000D9230220A701A7801321A7086E7002269
:10430C00C04B04F0B7F90022002306000F00FBF7A6
:10431C0003FF00288BD0BDE7109F0F9D099CAFB108
:10432C00229A012A00DDDDE0189A002A00D1D3E0A0
:10433C0040F233429B18099A0121D21809920E9A25
:10434C000398D3180E9300F04FFC070074B10E9B2A
:10435C00002B0BDD0E9A2300944200DD1300099A0A
:10436C00E41AD21A09920E9AD31A0E930F9BF3B138
:10437C00109B002B00D1CDE085B139002A000398A9
:10438C0000F0F0FC059A01000700039800F042FCD5
:10439C0006000599039800F029FB05960F9B5A1B04
:1043AC00AB4204D00599039800F0DCFC0590012188
:1043BC00039800F019FC149B0600002B00D1AEE111
:1043CC001A000100039800F0CDFC229B060000258A
:1043DC00012B13DC0A9B00256BB90B9B1B0353B9F8
:1043EC00894B0B9A134206D0099B01350133099373
:1043FC000E9B01330E93149B012043B1336903339D
:10440C009B00F318586800F0A1FB2023181A0E9B90
:10441C00181802001F231A40184200D180E0013303
:10442C009B1A042B78DD1C239B1A099AE418D218CA
:10443C0009920E9AD3180E93099B002B05DD1A00D6
:10444C000599039800F0E6FC05900E9B002B05DD0A
:10445C0031001A00039800F0DDFC0600159B002BC0
:10446C0060D03100059800F03FFD00285ADA049B1B
:10447C000A22013B0D9305990023039800F0D8FA0A
:10448C00109B0590002B00D150E1002339000A222B
:10449C00039800F0CDFA069B0700002B4CDC229B06
:1044AC00022B45DD069B002B00D0E6E531000522F2
:1044BC00039800F0BDFA06000100059800F014FD09
:1044CC00002800DCD9E5089B089A5C1C312313708A
:1044DC000D9B01330D93D4E536231A9A0F9D9B1A2D
:1044EC00099C28E70C9B5D1E0F9BAB4208DB5D1BF8
:1044FC000C9B002BF4DA099B0C9A9C1A00231AE7EC
:10450C000F9B149AEB1AD31814930F95099C002542
:10451C000C9B10E70F9A45E7042B8DD01C3384E7D6
:10452C001300FBE7049B0D930C9B0693002BB6DD4D
:10453C00109B002B00D1FDE0002C05DD3900220082
:10454C00039800F067FC0700049705B3796803989B
:10455C0000F00CFA040060B9020040F2EF212B4B82
:10456C00FFF73DFB119E3700ADE7049B0C9E0D93AE
:10457C00F9E739003A690C31023292000C3002F042
:10458C0047F901222100039800F044FC0490089B99
:10459C00069A0993013B9B1801220F930A9B134027
:1045AC000E9331000598FFF77FFA390005000C9047
:1045BC00059800F099FC049A0A903100039800F0D9
:1045CC00AFFC0122C36804003035069223B9010008
:1045DC00059800F089FC06902100039800F006FA7B
:1045EC00099B229A5C1C069B13430E9A13437BB9BE
:1045FC00392D29D00A9B002B01DD0C9D3135099BEF
:10460C001D7040E5000024400000F07F5ECC0008E7
:10461C000A9B002B04DB229A13430E9A1343FBB91B
:10462C00069B002BEBDD05990122039800F0F2FBB1
:10463C003100059000F058FC002803DC0028DED186
:10464C00EB07DCD5392DD8D13923099A1370230007
:10465C001C00013B1A78392A50D001321A7012E52D
:10466C00069B002B03DD392DEED00135C7E7099BE6
:10467C00099A1D700F9B93422BD000230A22059997
:10468C00039800F0D5F9049B05909F4209D139009D
:10469C0000230A22039800F0CBF907000490099438
:1046AC007FE7390000230A22039800F0C1F90023A8
:1046BC0007000A220499039800F0BAF90490EEE777
:1046CC00069B0124002B00DD1C0004970027089B8F
:1046DC001C1905990122039800F09CFB31000590F0
:1046EC0000F002FC0028B2DC08B9ED07AFD42300BF
:1046FC001C00013B1A78302AFAD0C4E4089A9A427A
:10470C00A6D10D9B01330D9331231370BBE4269B73
:10471C00002B01D0FFF799FA114BFFF7B7FA229B48
:10472C00012B00DC56E60120149D70E6069B002B45
:10473C0000DCB4E6002431000598FFF7B5F9089BBE
:10474C0030301855069B01340500A342B8DD002318
:10475C000A220599039800F06BF90590EBE7C04627
:10476C00E1CB000870B505000C0079B1043C23685E
:10477C00002B00DAE418280000F0E8F81C4A136853
:10478C002BB963601460280000F0E8F870BDA342F8
:10479C0008D9206821188B42F3D119685B68091875
:1047AC002160EEE71A005B680BB1A342FAD91168DD
:1047BC005018A0420BD12068091850181160834280
:1047CC00E1D118685B68411811605360DBE7A042C7
:1047DC0002D90C232B60D6E7206821188B4203D119
:1047EC0019685B680918216063605460CBE7C046A8
:1047FC009C04002010B5034B0100186800F026F84B
:10480C0010BDC0462400002070B50F4E0D0031685D
:10481C00040011B901F0E6FF30602900200001F01E
:10482C00E1FF431C03D101256D42280070BD032319
:10483C00C51C9D43A842F8D0291A200001F0D2FFD4
:10484C000130F2D1EFE7C04698040020F7B50322FF
:10485C00CB1C9343083305001F000C2B34D20C27C0
:10486C00B94233D8384E280000F070F833681C0079
:10487C00002C2FD139002800FFF7C6FF0400431C81
:10488C005FD134680094009B002B4AD1002C52D08D
:10489C0023682800E3180099019301F0A3FF019B02
:1048AC00834248D123682800FF1A3900FFF7ACFF78
:1048BC00013040D02368DB19236033685A68002A22
:1048CC0033D1009B336019E0002BC9DA0C232B6029
:1048DC000020FEBD2168C91B20D40B290AD9E2197E
:1048EC002760A34204D1326063681160536005E015
:1048FC005A60F9E76268A3420ED13260280000F0DA
:10490C002DF8200007220B30231D9043C21A984229
:10491C00DFD01B1AA350DCE75A60EFE72300646872
:10492C00A6E7009C63680093ADE71A005B68A3429E
:10493C00FBD10023DAE70C2328002B6000F00EF8E3
:10494C00C6E70760DAE7C0469C04002010B50248B1
:10495C00FFF799F810BDC0469404002010B502482A
:10496C00FFF792F810BDC0469404002070B5C569DD
:10497C0006000C0075B91020FFF73CFF0200F06137
:10498C0020B96B21174B184801F052FF4560856028
:10499C000560C560F569EB688BB1F369A200DB6853
:1049AC009B181868B8B901210D00A5406A1D30008C
:1049BC00920001F05BFF60B1446085600DE0212244
:1049CC000421300001F052FFF369E860DB68002B32
:1049DC00E3D1002070BD02681A6000230361C3603C
:1049EC00F8E7C046EECB00086FCC000870B5C6697E
:1049FC0005000C0076B91020FFF7FCFE0200E86100
:104A0C0020B98F21084B094801F012FF46608660DF
:104A1C000660C6603CB1EB696268DB6892009B186B
:104A2C001A6822601C6070BDEECB00086FCC0008C9
:104A3C00F7B50F0001900C001E0000200D69143713
:104A4C003B68013099B251431B0C534389190E0C2E
:104A5C009B191E0C89B21B045B1808C78542EFDC3E
:104A6C0016B3A368AB4219DC616801980131FFF7FA
:104A7C007DFF070028B90200BA210C4B0C4801F04D
:104A8C00D7FE210022690C31023292000C3001F069
:104A9C00BFFE21000198FFF7A9FF3C002B1D9B00D6
:104AAC00E31801355E6025612000FEBD5ECC000878
:104ABC006FCC0008F7B5150009220C000700002187
:104ACC000193083393FBF2F3083A9A420ADB38005D
:104ADC00FFF74CFF010040B902001A4B1A48D331C2
:104AEC0001F0A6FE52000131EFE7089B4361012360
:104AFC000361092D18DD230009331E00009364198E
:104B0C0033780A223800303BFFF792FF0136010060
:104B1C00A642F5D12C00009B083C1C192E00019BD1
:104B2C009E4204DB0800FEBD09250A34F6E7631B30
:104B3C009B5D0A223800303BFFF77AFF01360100FB
:104B4C00EDE7C0465ECC00086FCC00084FF6FF7254
:104B5C0003000020934201D81B0410308022520421
:104B6C00934201D208301B0280225205934201D29B
:104B7C0004301B018022D205934201D202309B00EB
:104B8C00002B03DB0130134200D120207047036857
:104B9C00010007221800104013420DD0063A0020E5
:104BAC00134205D10230034203D0D34010000B60F6
:104BBC0070479B080B60FBE79AB20AB910201B0CDC
:104BCC00DAB20AB908301B0A1A0701D104301B09E2
:104BDC009A0701D102309B08DA07EBD45B0801304D
:104BEC00002BE7D12020E3E710B50C000121FFF7E3
:104BFC00BDFE30B9020040F24511044B044801F0EF
:104C0C0017FE01234461036110BDC0465ECC000851
:104C1C006FCC0008F0B514000A6923690D0089B047
:104C2C009A4202DB23000C001D0027692E69616883
:104C3C00BB190093A368BA19934200DA0131FFF74C
:104C4C0095FE844630B9020040F26211434B444851
:104C5C0001F0EEFD0200BB1914329B00D318019336
:104C6C00002113000198834228D32300BF00143382
:104C7C0004931435DB19B6000293AB190793042384
:104C8C000593230002991533994205D30C1B153C4F
:104C9C00A4080134A3000593079B9D4210D3009BED
:104CAC00002B05DD019B043B01931B68002B51D0AD
:104CBC0063466046009A1A6109B0F0BD02C3D1E7A1
:104CCC002C68A4B2FCB100231700049E039308CEF9
:104CDC00396806936B461B8B88B263431B18039889
:104CEC00090C1B180698000C60434018190C41184D
:104CFC00080C9BB209041943029B039002C7B342F0
:104D0C00E5D8059BD0502C68240C04B3002110006E
:104D1C001368049E03913168076889B261433F0CA4
:104D2C00C919039F9BB2C9190F041F43076080CE9A
:104D3C0043683F0C67439BB2090CFB185B18190CBA
:104D4C00039102990430B142E5D8059953500435CA
:104D5C000432A1E7009B013B0093A0E75ECC000866
:104D6C006FCC0008F7B50323150007000E001A409E
:104D7C001D4208D02449013A9200525800233100B8
:104D8C00FFF756FE0600AD10DDB3FC697CB91020B0
:104D9C00FFF730FD0200F86128B940F2B3111B4B4C
:104DAC001B4801F045FD446084600460C460FB69ED
:104DBC009C6801934CB940F271213800FFF714FF45
:104DCC00019B040098600023036001231D420AD05C
:104DDC00310022003800FFF71DFF31000190380030
:104DEC00FFF704FE019E6D105DB1206838B92200FA
:104DFC0021003800FFF70EFF002320600360040041
:104E0C00E3E73000FEBDC04684CD0008EECB0008C1
:104E1C006FCC0008F0B50C0016002369571185B053
:104E2C00FB180193013300934968A3680290009A20
:104E3C0093420FDB0298FFF799FD00230100050058
:104E4C001A00143160B9020040F2DE11244B2548DF
:104E5C0001F0EEFC01315B00E9E798000A500133E8
:104E6C00BB42FADBFB43DB171F40BF0023001F20B4
:104E7C00C91937002269143392009A180740064268
:104E8C0028D00130C01B03908C4600201E68BE4009
:104E9C000643604640C08446039E01CBF0409A42D4
:104EAC00F4D8260015360423B24204D3131B153B49
:104EBC009B0801339B00C85010B1019B0233009337
:104ECC00009B0298013B21002B61FFF78FFD28000E
:104EDC0005B0F0BD01CB01C19A42FBD8F0E7C0464A
:104EEC005ECC00086FCC000830B50B690469020079
:104EFC00E01A9C420FD114329B0014311400C918D3
:104F0C00D218043A043915680B689D4204D001206C
:104F1C009D4200D2023830BD9442F2D3FBE7000030
:104F2C00F0B50C0087B00090110020001700FFF7BF
:104F3C00DBFF050088B901000098FFF717FD0200A0
:104F4C0028B940F237213F4B3F4801F071FC012357
:104F5C0045610361100007B0F0BD0026B04203DAD2
:104F6C0023003C001F00013661680098FFF7FEFC2F
:104F7C00020018B940F24521324BE5E7236914349D
:104F8C0000939B00E318210001943C0002933B69C1
:104F9C0014349B00E31803930300C6608C46002076
:104FAC00143304930593634620CBA9B20E009C46A0
:104FBC0008CC2D0C99B2711A09181B0C0814EB1A99
:104FCC001B18181489B21B041943059B02C30593C3
:104FDC00039BA342E7D83900039C153104238C4270
:104FEC0004D3E31B153B9B0801339B000199CD189F
:104FFC0004992E00CB181F0002998E4210D3029CEC
:10500C00E91E00208C4204D321000331491B89087E
:10501C0088001B18043B196881B1009B136199E748
:10502C00844602CE88B2604400140C0C041961440E
:10503C00201489B22404214302C7DDE70099013909
:10504C000091E7E75ECC00086FCC000810B5002497
:10505C000C4B0D4A0B409B18A34206DC5B421A1505
:10506C00132A05DC80231B0313411900200010BDFB
:10507C00143A01241E2A02DC80242406D440002386
:10508C00F3E7C0460000F07F0000C0FCF7B5060057
:10509C00036914369B00F3181D1F2C680F002000A9
:1050AC000193FFF753FD2022121A3A6003001C4AA9
:1050BC000A2815DC0B212700091ACF403A438C46ED
:1050CC0011000022AE4202D2019A083A126815333E
:1050DC009C4063462700DA401743380003B0F0BD0C
:1050EC000027AE4202D2019D083D2F680B21494298
:1050FC008C469C440B2B10D0614620238C405B1AB1
:10510C003900D9400C43224311000022B54201D989
:10511C00043D2A686446A740DDE722431100DCE722
:10512C000000F03FF7B5012116001F00FFF71EFC31
:10513C00040030B9020040F20F31234B234801F038
:10514C0077FB7D003B036D0D1B0B15B180225203C9
:10515C00134301931EB368460096FFF718FD019B9D
:10516C000099D0B120221E00121A96403200C34082
:10517C000A4362610193019EA661731E9E41013632
:10518C002661A5B13526124BED18089B2D181D6014
:10519C00099B361A1E602000FEBD6161EBE701A879
:1051AC00FFF7F5FC019B012663612030E8E7094B12
:1051BC00C018089B1860084BF3189B00E31858693B
:1051CC00FFF7C4FC7601E3E75ECC00086FCC000867
:1051DC00CDFBFFFFCEFBFFFFFFFFFF3FF0B587B01E
:1051EC000F0004A90600FFF751FF00900191009BEE
:1051FC00019C380005A902930394FFF747FF0D00AB
:10520C0002000B0030693969049E401A059940016F
:10521C00711A41180805002908DD019941180391FC
:10522C000298039902F0CAFD07B0F0BD2B1AF7E7FC
:10523C0070B5140005000139136949110131890059
:10524C0014349B004118E318A3420DD814001134F8
:10525C000025A34203D39B1A113B9B089D000023FE
:10526C004019814203D870BD40CC40C5ECE708C062
:10527C00F7E70200006910B514324B11984213DBAA
:10528C000CDD1F2408002040214207D099008C58C7
:10529C002100C140814001208C4204D19B00D318D5
:1052AC00934203D8002010BD0300F7E7043B1968B4
:1052BC000029F5D00120F6E770B516000D00FFF7B8
:1052CC00C5FE6EB16B236A00520D9B1A002B07DDD5
:1052DC000024044A1B059D182B00220003F0CAF978
:1052EC0070BDC0460000F03FF0B5A3B01B92002289
:1052FC000026002705900E911E921D910A782B2AEC
:10530C0051D03DD80D2A37D8082A37D8002A40D09A
:10531C000022129200211D9D10912A78302A00D073
:10532C0081E06A7820318A43582A00D071E00293D8
:10533C00129B994A01931EAB009305981FAB1DA9B4
:10534C0001F026FB0F2302001A40040006921842BB
:10535C0005D0062A29D1109B01351D9512931B9B54
:10536C0013B11D9B1B9A1360129BCBB18023300091
:10537C001B06F91823B0F0BD202AC9D10131BCE7B6
:10538C002D2AC5D12C3A12924A1C1D924A78002A19
:10539C00C0D10E9B1D93002312931B9B002BE0D1BD
:1053AC0030003900E6E70022EDE71E9A3AB13521CC
:1053BC0020A8FFF73DFF1E990598FFF717FB0698ED
:1053CC001F9B0138042806D8FAF782FE12031D1F12
:1053DC001200209E219FE40502D580231B061F434B
:1053EC006E4B3B42BBD101F00DFA22230360B6E7B2
:1053FC006B49219A209E0A4040F233415B181B05F1
:10540C001A431700E7E7654FE5E70126654F76423B
:10541C00E1E71D9B5A1C1D925B78302BF9D0002BB9
:10542C009DD0012310931D9B0A22139300230993F3
:10543C000F9308931D9804782300303BD9B20929A7
:10544C0026D90122584901F099F998B3002023007C
:10545C008446089A0C9006922022190091430A0067
:10546C0000210791452A00D0C8E0069B109A0343FF
:10547C001343002B8DD01D9B0E9301331D930E9B5C
:10548C005B782B2B79D00C002D2B7CD1012475E073
:10549C000899082909DC0F9951435B180F93089B55
:1054AC000130013308931D90C4E7099D55435B19E6
:1054BC000993F4E71D9B5A1C1D92089A5B78F2B372
:1054CC000C9006921A00303A092A12D940F2010CBB
:1054DC00C2E71D9B01305A1C1D925B78302BF8D013
:1054EC001A00313A082A44D80C9000201D9A0690D4
:1054FC0013921C00421C303C302B1AD040F20A0C88
:10550C000C9B06999B180C93069D4B1C5D1BAA4289
:10551C0017DCC343069ADB170340D1180132D318AA
:10552C00069308291CDC0A230F9A53430022E31824
:10553C000F931D9B1000591C1D915B78C2E70898B6
:10554C00CCE7082905DC65460F9969430F911900D2
:10555C00DAE7102BFBDC6146099D4D430995F6E714
:10556C0000220F29E5DC0A23099D5D436319099389
:10557C00DFE700220C920692A8E7079C0E9B0233F1
:10558C001D930E9B9B781A00303A092A12D90E9A59
:10559C001D92002231E0C04694CE00080000F07F3E
:1055AC00FFFFEFFFFFFFFF7FC9CC00081D9B5A1CBC
:1055BC001D925B78302BF9D0002207921A00313AF9
:1055CC00082A1BD8303B1A001D9B07931D9B591CA6
:1055DC001D915B781D00303D092D3BD9079D491B62
:1055EC000D0044F61F610791082D03DC07928A42D7
:1055FC0000DD079114B1079A52420792069A002ACD
:10560C004BD1109A1043002800D0A8E66246002A1D
:10561C0000D0BEE6692B25D021DC492B22D04E2BA5
:10562C0000D0B6E6A0491DA801F0DCFB002800D193
:10563C00AFE61D9B1B78282B29D19C4920AA1DA8BD
:10564C0001F0E3FB052822D1219B994A209E1A43A5
:10565C00170084E60A214A43D218303AB6E76E2B7B
:10566C00E0D096E693491DA801F0BCFB002800D1C0
:10567C008FE61D9B9049013B1DA81D9301F0B2FBC9
:10568C0010B91D9B01331D930026894F67E68B488B
:10569C0001F0C8F806000F0061E6079B0C9A9B1AF4
:1056AC000E93089B0BB9069B0893069C102C00DDEF
:1056BC0010240F9803F00AFF069B06000F00092B1D
:1056CC0013DC0E9B002B00D149E60E9B002B00DC5B
:1056DC007FE0162B64DCD900794B3200C9183B00F3
:1056EC000868496802F0C6FFD4E72300744A093BF6
:1056FC00DB009B181A685B6802F0BCFF0600099877
:10570C000F0003F0E3FE0B0002003900300001F043
:10571C00D3FF069B06000F000F2BD2DD069B1C1B34
:10572C000E9BE418002C00DC9BE00F232100194099
:10573C001C420AD0624BC900C9183200086849687B
:10574C003B0002F097FF06000F000F239C43002C38
:10575C0072D02633FF339C424BDD00230693079314
:10576C000F93089322230026059A514F13600F9B29
:10577C00002B00D1F3E51E990598FFF737F908992E
:10578C000598FFF733F907990598FFF72FF90F994B
:10579C000598FFF72BF906990598FFF727F9DEE531
:1057AC002523069A9B1A0E9A9342B7DB0F24069B6D
:1057BC00434DE41AE10049193200086849683B007E
:1057CC0002F058FF0E9B1C1BE400641922686368EE
:1057DC0088E70E9B1633A1DB079A0C9B30009B1AB3
:1057EC00374ADB009B1839001A685B6802F0E6FA4E
:1057FC0050E7002330003900324D24110993012C5D
:10580C001DDC0BB106000F002F4B3200FF18099B5B
:10581C00DD002C4BED18286869683B0002F02AFF6C
:10582C00234B2A4A06000B40934296D8284A9342AF
:10583C0013D90126274F7642002309937FE00122DA
:10584C00144204D02A686B6802F014FF0123099AF1
:10585C006410013209920835D1E7D4239B04CF1888
:10586C00EAE7002CE8D064420F22230013401442D4
:10587C000AD0134ADB009B1830001A685B683900A9
:10588C0002F09CFA06000F002411002CD4D01F2C1F
:10589C0022DD0023069307930F9308932223059A86
:1058AC0000260027136062E7B5CB000880CE000805
:1058BC000000F07FADCB0008E4CB00081FCD000842
:1058CC00B8CD000890CD00080000B0FC0000A07C12
:1058DC000000907CFFFFEF7F102322001A400992FA
:1058EC001C4201D05A330993300039000023BD4DBE
:1058FC000122144204D02A686B6802F0BBFE01231B
:10590C0064100835002CF3D10BB106000F00099B75
:10591C006BB16B237A00520D39009B1A002B06DDFC
:10592C001F2B5BDD0026342B51DDDC27BF0400224E
:10593C00002330003900FAF7EFFB0028A9D10F9BA8
:10594C00089A00931399069B0598FFF7B3F80F90EC
:10595C00002800D101E70E9B0799DB430C9ADB175B
:10596C00521A14920E9A1499D21711400E9A14913D
:10597C001A4000231A92069307930F9B05985968B7
:10598C00FEF7F4FF0890002800D1EBE60F9B0C30DB
:10599C0019001A690C310232920000F039FF20AB69
:1059AC0001931FAB009332003B00059810961197A2
:1059BC00FFF7B8FB1E90002800D1D3E60121059813
:1059CC00FFF712F9079070B900230793CAE64B232F
:1059DC009A1A4C3B934019400F00A8E701225242FF
:1059EC009A401640A3E71F9B1A9A149DD41A002BB9
:1059FC0001DB1A9C5D190999209A5B1A36219B18B8
:105A0C008A1A794901208C460021013B1591169088
:105A1C00634506DA6146C91A521A1F293EDC8840D2
:105A2C001690AB180C93A418099B0C9A1C192B00FC
:105A3C00954200DD1300A34200DD2300002B04DDA2
:105A4C000C9AE41AD21A0C92ED1A149B002B16DD48
:105A5C001A0007990598FFF785F907900028B3D02D
:105A6C0001001E9A0598FFF7D5F81390002800D175
:105A7C0078E61E990598FEF7B9FF139B1E930C9BB5
:105A8C00002B11DC0E9B002B17DD1A9A0899059838
:105A9C00FFF768F9089080B9002362E65349CB1AE6
:105AAC00010099401591BBE70C9A1E990598FFF7D8
:105ABC00B1F91E900028E5D154E6002C07DD220038
:105ACC0008990598FFF7A6F908900028E4D0002D56
