:020000040800F2
:1000000000200020593100088703000889030008F8
:1000100000000000000000000000000000000000E0
:100020000000000000000000000000008B0300083A
:1000300000000000000000008D0300088F0300088E
:10004000A9310008A9310008A9310008A931000828
:10005000A9310008A9310008A93100089703000858
:1000600000000000A9310008A9310008A9310008EA
:10007000A9310008A9310008A931000800000000DA
:10008000A1060008A931000800000000A9310008FD
:10009000A931000895050008A9310008A931000818
:1000A000A9310008A9310008A9310008A9310008C8
:1000B000A93100080000000000000000000000005E
:0C00C000A931000800000000A931000870
:1000CC000023C25C0133002AFBD1581E704700008C
:1000DC0002B4714649084900095C49008E4402BCCF
:1000EC007047C04603B47146490840004900095E98
:1000FC0049008E4403BC70478446100062468C460F
:10010C001900634600E0C0461FB509F0ADFB00289E
:10011C0001D40021C8421FBD10B509F0F3FA4042CA
:10012C00013010BD10B509F09FFB002801DB002049
:10013C0010BD012010BDC04610B509F095FB00287C
:10014C0001DD002010BD012010BDC04610B509F026
:10015C001DFB002801DC002010BD012010BDC04695
:10016C0010B509F013FB002801DA002010BD0120A6
:10017C0010BDC046844608006146FFE71FB508F075
:10018C0017F8002801D40021C8421FBD10B507F094
:10019C00A5FF4042013010BD10B508F009F8002849
:1001AC0001DB002010BD012010BDC04610B507F0CA
:1001BC00FFFF002801DD002010BD012010BDC0464E
:1001CC0010B507F0B3FF002801DC002010BD0120A2
:1001DC0010BDC04610B507F0A9FF002801DA0020B9
:1001EC0010BD012010BDC0461C2101231B049842E8
:1001FC0001D3000C10391B0A984201D3000A0839AC
:10020C001B09984201D30009043902A2105C401862
:10021C007047C04604030202010101010000000006
:10022C000000000040F2D41040F2D413C2F20000DF
:10023C00C2F2000310B5834205D040F20003C0F2B5
:10024C00000303B1984710BD40F2D41040F2D41310
:10025C00C2F20000C2F200031B1A9A10D90F8918BF
:10026C00491010B529B140F20003C0F2000303B1EC
:10027C00984710BD10B540F2D414C2F20004237894
:10028C0073B9FFF7CFFF40F20003C0F200032BB1AC
:10029C004AF68010C0F6000000E000BF0123237076
:1002AC0010BDC04640F20003C0F2000310B54BB1C4
:1002BC0040F2D8114AF68010C2F20001C0F60000DC
:1002CC0000E000BFFFF7C0FF10BDC04610B500F046
:1002DC0022F800F058FC00F09DFCFCE7013880236C
:1002EC005B04984215D24EF21002CEF2000250601E
:1002FC004EF60051CEF200010B6A1B021B0AC02005
:10030C00000603430B620023936007331360002045
:10031C0070470120FCE710B540F20403C2F2000361
:10032C00186840F2E833B0FBF3F0FFF7D7FF00B1E9
:10033C00FEE74EF60052CEF20002136A1B021B0AB5
:10034C00136210BD40F2F013C2F20003186040F2C9
:10035C00F013C2F200031B68002BF8D1704740F277
:10036C00F013C2F200031B6833B140F2F013C2F277
:10037C0000031A68013A1A607047FEE7FEE7FEE7D1
:10038C00FEE710B5FFF7EBFF10BD10B5102001F024
:10039C0091F9012814D042F2000001F08BF90128E8
:1003AC0054D044F2000001F085F9012800D183E01B
:1003BC0048F2000001F07EF9012800D1B6E010BD32
:1003CC000F3001F082F940F20C23C2F200031A78CC
:1003DC000C231340082BF2D040F20040C4F600006E
:1003EC00082101F0C2F9B8B940F21023C2F200039F
:1003FC009B68322BE3D940F21022C2F20002013B7F
:10040C00936040F20C22C2F2000213780C218B4351
:10041C0004210B431370D2E740F21023C2F2000305
:10042C009B6840F2F3129342C9D840F21022C2F2F8
:10043C0000020133936040F20C22C2F200021378E6
:10044C000C218B4304210B431370B8E742F20000DC
:10045C0001F03BF940F20040C4F6000042F200010A
:10046C0001F083F90028AAD140F20C23C2F2000358
:10047C001B780F229343402BA1D040F21023C2F2E1
:10048C0000035B68632B10D940F21023C2F2000307
:10049C0000225A6040F20C22C2F2000211780F23A3
:1004AC000B4010210B43137089E740F21022C2F26B
:1004BC00000205335360EDE744F2000001F005F94A
:1004CC0040F20C23C2F200031B780F229343402B03
:1004DC0000D174E740F20040C4F6000044F2000181
:1004EC0001F043F9002800D069E740F21023C2F272
:1004FC0000031B6842F20F72934210D940F2102392
:10050C00C2F2000332221A6040F20C22C2F2000244
:10051C0011780F230B4010210B4313704FE740F25F
:10052C001022C2F2000232331360EDE748F20000F1
:10053C0001F0CBF840F20040C4F6000048F2000194
:10054C0001F013F9002800D039E740F20C23C2F275
:10055C0000031B780F229343402B0AD040F20C224D
:10056C00C2F2000211780F230B4020210B431370B1
:10057C0025E740F20C22C2F2000211780F230B4047
:10058C0030210B4313701AE710B544F20040C4F24B
:10059C000100012101F05BFD012807D040F204238A
:1005AC00C2F200031A6801321A6010BD44F2004016
:1005BC00C4F20100012101F056FD40F20423C2F205
:1005CC0000031B6840F20022C2F200021268934240
:1005DC0024D040F2FC12C2F200021268934240D0C6
:1005EC0040F2F812C2F2000212689342D6D140F2E5
:1005FC001022C2F200026421494211614AF2201C0D
:10060C00C0F2070C6344002263318B4252419B18A9
:10061C0040F2F812C2F200021360BFE740F210225F
:10062C00C2F2000292689A180021012040428242D4
:10063C004941521840F20021C2F200010A6040F216
:10064C000C22C2F2000212780C211142C1D140F2EC
:10065C000C21C2F200010D308243042002430A70C7
:10066C00B7E742F210729A180021012040428242F0
:10067C004941521840F2FC11C2F200010A6040F2EA
:10068C000C21C2F200010A7804308243012002439B
:10069C000A70A5E710B54AF6B013C0F600034AF687
:1006AC006821C0F60001CA22002000F083F840F255
:1006BC000040C4F20000022101F0C9FC012800D066
:1006CC0010BD40F20040C4F20000022101F0CBFC4E
:1006DC0040F21023C2F20003DB682BB140F2082376
:1006EC00C2F2000300221A6040F20823C2F2000397
:1006FC001B685BB340F20040C4F20000002101F023
:10070C002DFF40F2F413C2F20003186040F20823EC
:10071C00C2F200031B68C01A4FF6FF7C60444FF610
:10072C00FF73B0FBF3F31A04D31AC01A40F2102370
:10073C00C2F20003D86040F20C22C2F2000213781D
:10074C0003218B4301210B431370B9E740F20040A6
:10075C00C4F20000002101F001FF40F20823C2F2B4
:10076C0000031860ACE70000042817D88000104B79
:10077C001B589F464AF6C410C0F6000070474AF654
:10078C00D410C0F60000F9E74AF6DC10C0F6000001
:10079C00F4E74AF6E410C0F60000EFE74AF6EC1076
:1007AC00C0F60000EAE74AF6CC10C0F60000E5E718
:1007BC007CAA000808B4F0B5D6464F464646C0B5EC
:1007CC0087B004AF04000E002C23FD1808CD98460A
:1007DC007D602B0042460021002003F019FD411CD6
:1007EC000830C208D2006B469B1A9D4604AB994652
:1007FC007D602B004246484603F00AFD2000FFF7BF
:10080C00B3FF80464AF6F415C0F600054B4602933A
:10081C000194009603002A000021002003F02AFC1A
:10082C000730C108C9006B465B1A9D4604AB9A465B
:10083C004B4601930094330042462900504603F086
:10084C004DFC002C09DABD4603B0E0BCBA46B146FB
:10085C00A846F0BC08BC01B01847504603F000FC99
:10086C00F1E7F0B5C64600B584B0002500958223AB
:10087C00A1220021002002F0DAF94AF6B424C0F6D5
:10088C000004012702970C26019600954FF60003F1
:10089C00220006210C2002F005FB40F2E0784346D2
:1008AC000093602303221821032002F0EDF9434644
:1008BC00009360239E226021032002F0E5F948F2A8
:1008CC00100300933C239E223C21032002F0DCF910
:1008DC00220020320297019600954FF6E0736621B4
:1008EC00032002F0DFFA22004032029701960095B5
:1008FC0048F210037421032002F0D4FA04B080BC37
:10090C00B846F0BDF0B585B040F21024C2F2000438
:10091C00206907F0B1FF0021C4F2C82107F0CCFA1E
:10092C00021C0C270297002601964FF6E0750095E5
:10093C00042366211B2002F03FFBE06807F09CFFBC
:10094C000021C4F27A4107F0B7FA021C0297019613
:10095C00009505236621572002F02EFB40F20C2354
:10096C00C2F200031B780F229343402B32D04AF67D
:10097C000822C0F60002002302930C21019100937F
:10098C0048F2100368311B2002F08CFA40F210245C
:10099C00C2F20004206807F0B7FF0021C4F27A41CC
:1009AC0007F08AFA021C0C2702970026019648F2DF
:1009BC001005009503237421392002F0FDFAA2885A
:1009CC0002970196009503237421752002F05BFBBE
:1009DC0005B0F0BD4AF60C22C0F6000200230293CB
:1009EC000C210191009348F2100368311B2002F096
:1009FC0059FACBE710B50400FF21014043F6000083
:100A0C00C4F2010001F04FFE43F60000C4F20100F5
:100A1C0040F2077101F04CFE0028F5D0200010BD0B
:100A2C0010B501000522002000F0EEFC012000F0C2
:100A3C0097FD022000F0B2FD0028FAD000F0A7FDCF
:100A4C0010BD70B582B04AF61023C0F600034AF60A
:100A5C009021C0F60001BA220020FFF7ABFE40F255
:100A6C001023C2F200031B7D9C2B71D940F2102382
:100A7C00C2F2000300221A755A7D01325A75032006
:100A8C00FFF7CEFF07F0F8FEE621890507F0D0FB53
:100A9C00051C8421C90507F0CBFBFC21890507F057
:100AAC0073F840F21026C2F20006747D07F0C4FE03
:100ABC0008346400B4466444E080306907F0DCFE1E
:100ACC00291CFFF769FBA8B1281C09F08BFE46F224
:100ADC006662C6F2666246F26663C4F20A0308F006
:100AEC0031FF00220023C4F2590308F02BFF09F058
:100AFC00F1FD306140F21023C2F200031C7D002393
:100B0C0000935F33A1221821042002F090F82300F7
:100B1C0040F21022C2F20002527D944231D00134D4
:100B2C0024B208335B0040F21022C2F20002944659
:100B3C00634406229A5E3C21032002F0DDF948F260
:100B4C0010023C2102F096F89D2CE0DD0024DEE73B
:100B5C0040F21022C2F20002527D9C2A08D940F2C7
:100B6C001022C2F20002002151750133137586E781
:100B7C0040F21021C2F2000101330B7501324A75AB
:100B8C007DE702B070BD10B540F21023C2F2000335
:100B9C0032221A605A600022DA601A61F532FF3292
:100BAC009A6003211975563AFF3A5A7540F20C2394
:100BBC00C2F200031878903A0240402002431A70A7
:100BCC00D2B28A4301210A431A70D2B20C218A4351
:100BDC001A7000F02DF900F050F900F03BFB00F01A
:100BEC00E8FA00F013FB01F025FFFFF73AFEFFF7E0
:100BFC0028FFFFF787FE00F077FA4AF63423C0F699
:100C0C0000034AF6AC21C0F6000148220020FFF791
:100C1C00D1FD10BD70B582B040F20C23C2F20003BE
:100C2C001A781207920F4AF64023C0F600034AF6D0
:100C3C00A024C0F600040092522221000020FFF7ED
:100C4C00B9FD4AF65423C0F6000340F21022C2F25A
:100C5C00000292680092532221000020FFF7AAFDA7
:100C6C0040F20040C4F6000040F2002100F07DFD8F
:100C7C00002858D040F20C23C2F200031B781B0949
:100C8C00022B00D19CE0032B00D180E0012B36D14C
:100C9C0044F20005C4F201050021280001F0D1F94D
:100CAC0040F21024C2F20004606807F02DFE00210F
:100CBC00C4F2C82107F000F945F20001C4F6430163
:100CCC0007F0B6FA061C206807F01EFE011C301C4B
:100CDC0007F0F2F806F0D2FE02000021280001F025
:100CEC002DFB40F20C23C2F2000319780F220A40AC
:100CFC001A70D2B203218A4301210A431A7040F2BE
:100D0C000C23C2F200031A780C231340042B00D1DD
:100D1C0079E040F20C23C2F200031B789B0700D051
:100D2C007BE002B070BD0A30FFF70CFB40F20040D4
:100D3C00C4F6000040F2002100F017FD002899D104
:100D4C0040F20040C4F6000040F2002100F00DFD1E
:100D5C000028F5D040F20C23C2F200031A780C23C1
:100D6C001340082B0AD040F20C22C2F20002137876
:100D7C000C218B4308210B4313707BE740F20C23AF
:100D8C00C2F200031A780C218A431A7072E740F2FF
:100D9C001023C2F200035968186800F03AF900F009
:100DAC0012F940F20C23C2F2000319780F220A4008
:100DBC001A70D2B203218A4301210A431A709EE7AA
:100DCC0042F2000000F06EFC44F2000000F06AFCFD
:100DDC0044F20000C4F2010001F029F940F2106065
:100DEC0000F057FD40F20C23C2F2000319780F22D9
:100DFC000A4040210A431A70D2B203218A430121CE
:100E0C000A431A707BE740F20C23C2F200030C2158
:100E1C008A431A70FFF715FE7BE740F20C23C2F2EF
:100E2C0000031A7803218A431A70FFF76BFD78E7E9
:100E3C0010B540F2125000F01EFD40F2115000F0BF
:100E4C001AFD40F2006000F016FD40F2096000F05F
:100E5C0012FD032000F048FD40F2116000F00BFD84
:100E6C0040F2017000F007FD40F20C6000F003FD51
:100E7C0040F20E6000F0FFFC10BD70B540F60004AF
:100E8C00C4F600044EF2000300220121200000F001
:100E9C0022FC4EF2000303220021200000F042FC51
:100EAC0040F20045C4F600054EF218230122002141
:100EBC00280000F010FC9024E405082300220321F4
:100ECC00200000F008FC402300220221200000F04A
:100EDC0002FC402303220021200000F023FC042309
:100EEC0000220221200000F0F6FB04230322002143
:100EFC00200000F017FC40F2E01300220121280032
:100F0C0000F0E9FB40F2E01303220021280000F07E
:100F1C0009FC40F2E011280000F023FCA023002281
:100F2C000221200000F0D7FBA02301220021200089
:100F3C0000F0F8FB40F2006301220221200000F0D7
:100F4C00CAFB40F2006301220021200000F0EAFB02
:100F5C0004220021200000F00FFC4022012120007F
:100F6C0000F00AFCA0220021200000F005FC40F259
:100F7C0000620121200000F0FFFB0121072000F09E
:100F8C0058FC0421012000F030FF0F21012000F05B
:100F9C002CFF01220021102000F01AFB012200215D
:100FAC0048F2000000F014FB102000F073FB48F234
:100FBC00000000F06FFB102000F087FB48F20000EF
:100FCC0000F083FB70BD10B50D21012000F00DFF6A
:100FDC000E21012000F009FF0122002142F2000045
:100FEC0000F0F6FA0122002144F2000000F0F0FAC1
:100FFC0042F2000000F04EFB44F2000000F04AFB0D
:10100C0042F2000000F061FB44F2000000F05DFBD6
:10101C0010BDF0B589B004000E0040F2106000F075
:10102C002AFC44F20000C4F2010000F016FF04ADEB
:10103C00280000F082FF40F2CF232B80052C4ED9E4
:10104C0040F64053C0F20303B3FBF4F0013804A99B
:10105C0088600025CD804D808D8000230B7344F279
:10106C000007C4F20107380000F072FF01AC200049
:10107C0001F00CF8012323806580A580E580258193
:10108C00658122000021380001F008F8642E29D86F
:10109C006423B6FBF3F6069A724344F20004C4F2DE
:1010AC0001040021200001F049F9602200212000F8
:1010BC0001F018F900220021200001F04FF9200066
:1010CC0000F0BAFF0021200000F0BBFF012120003E
:1010DC0000F0CCFF200000F0A5FF09B0F0BD4CF2F1
:1010EC004F30B4E7069AD8E7F0B5C64600B586B0DF
:1010FC0044F20047C4F20107380000F0AEFE40F2A3
:10110C000045C4F20005280000F0A7FE02AC200048
:10111C0000F013FF40F24708434623803E3B049304
:10112C000026E6806680A680002323732100380009
:10113C0000F00EFF200000F000FF434623804FF626
:10114C00FF730493E6806680A6802100280000F0DF
:10115C00FFFE6B461E8001236A4653809680D68024
:10116C000021280001F052F9280000F065FF02214F
:10117C00152000F05EFB0121102000F05AFB01212C
:10118C00380000F070FF0221280000F06CFF0121F4
:10119C00380000F058FF0221280000F054FF3800FE
:1011AC0000F040FF280000F03DFF06B080BCB846C0
:1011BC00F0BD10B5002140F2001000F09FF80021A6
:1011CC00022000F09BF8E0210903012000F0A8F9AF
:1011DC0005220321002000F017F9002000F0D4F8BC
:1011EC00002000F0E7F90121012000F0E3F80121D3
:1011FC00012000F063F9012000F0B2F900F04FF883
:10120C000120FFF79FF800F05AF810BD10B588B018
:10121C0043F20004C4F20104200000F047FD01A8D1
:10122C0000F063FD0023029340F20412019240F29D
:10123C000072039203220692FE32FF32049207934D
:10124C00059301A9200000F05BFD200000F0A0FD3B
:10125C0008B010BD10B543F60004C4F20104200020
:10126C0001F090F90021200001F0ECF900212000A0
:10127C0001F0F6F90021200001F0D6F9E121490234
:10128C00200001F09EF90421200001F004FA08214D
:10129C00200001F0F8F9200001F0F0F910BD42F245
:1012AC000843C4F201031B68DB0707D442F208436E
:1012BC00C4F201031A6801210A431A60704742F212
:1012CC000843C4F201031A6808210A431A6042F267
:1012DC000843C4F201031B681B07F8D442F208430D
:1012EC00C4F201031A6804210A431A6042F208434B
:1012FC00C4F201031B685B07F8D4704701B3C30544
:10130C0008D542F20443C4F201031A6840F20011FA
:10131C000A431A60430508D542F20443C4F20103A0
:10132C001A6840F200410A431A60800707D542F25E
:10133C000843C4F201031A6802210A431A60704779
:10134C00C30507D542F20443C4F201031A680C49E1
:10135C000A401A60430507D542F20443C4F2010364
:10136C001A6808490A401A608007E8D542F2084317
:10137C00C4F201031A6802218A431A60DFE7C046EF
:10138C00FFFEFFFFFFFBFFFF48B142F20843C4F230
:10139C0001031A6840F600010A431A60704742F2D2
:1013AC000843C4F201031A6801490A401A60F5E7C0
:1013BC00FFF7FFFF012812D0022820D142F2384358
:1013CC00C4F201031A680E4802401A601A68013907
:1013DC000905C020800301400A431A600FE042F265
:1013EC002C43C4F201031A68064802401A601A68BA
:1013FC0001390905F020000401400A431A607047C6
:10140C00FFFFCFFFFFFF0FFF30B505281ED842F2BC
:10141C003444C4F20104256883001B181F20984033
:10142C0085430800984003002B432360092933D8D7
:10143C0042F21040C4F2010004684B005B18072113
:10144C0099408C439A402243026030BD0B2810D83F
:10145C0042F23044C4F20104256883001B181E3B81
:10146C001F20984085430800984003002B432360BD
:10147C00DCE70F28DAD842F22C44C4F201042568C8
:10148C0083001B183C3B1F20984085430800984064
:10149C0003002B432360C9E71229D6D842F20C4033
:1014AC00C4F2010004684B005B181E3B07219940F5
:1014BC008C439A4022430260C7E70000B1B1C307D6
:1014CC0008D542F20843C4F2010319688022520382
:1014DC000A431A60800708D542F20843C4F201039C
:1014EC001A6848F200010A431A607047C30707D50F
:1014FC0042F20843C4F201031A6807490A401A6011
:10150C008007F2D542F20843C4F201031A6803497A
:10151C000A401A60E9E7C046FFFFEFFFFF7FFFFFBD
:10152C0001280DD0022816D142F20843C4F201035F
:10153C001A68094802401A601A680A431A600AE0DD
:10154C0042F20843C4F201031A68044802401A60CC
:10155C001A680A431A607047FF8FFFFFFFFFF1FF05
:10156C00C30708D542F20843C4F20103196880226C
:10157C00D2030A431A60800708D542F20843C4F22A
:10158C0001031968802292030A431A60704742F2E1
:10159C004C43C4F20103186880B2704742F2004316
:1015AC00C4F201031B68184201D1002070470120CE
:1015BC00FCE7000042F20443C4F201031A68034939
:1015CC000A401A601A6802431A607047FFFFFFFC5A
:1015DC0030B540F20043C4F201031C68C543844398
:1015EC001C6040F20443C4F201031C6884431C6079
:1015FC0040F20843C4F201031C6884431C6040F2AF
:10160C000C43C4F201031C6884431C6049B10129DA
:10161C000ED140F20443C4F201031968014319606E
:10162C0006E040F20043C4F201031968014319605B
:10163C00012A11D0022A1ED06AB940F20843C4F222
:10164C0001031A6802431A6040F20C43C4F201030E
:10165C001A682A401A6030BD40F20843C4F20103F4
:10166C001A682A401A6040F20C43C4F201031A684B
:10167C0002431A60EFE740F20843C4F201031A6810
:10168C0002431A6040F20C43C4F201031A6802438D
:10169C001A60E0E740F20043C4F201031A68024307
:1016AC001A60704740F20043C4F201031A68824387
:1016BC001A60704740F21443C4F201031B681842CD
:1016CC0001D0012070470020FCE740F21443C4F223
:1016DC00010318607047F0B5CE46474680B5844686
:1016EC009146180063461F68DE68002401E001344F
:1016FC00A4B20F2C0FD80125A5402842F7D06300C7
:10170C0003259D40AF430A009A401743AE434A4617
:10171C009A401643EBE763461F60DE60C0BCB946D7
:10172C00B046F0BD70B5012905D0416899434160C0
:10173C008568002105E0416819434160F8E70131F3
:10174C0089B20F290BD801248C402342F7D04E00CC
:10175C000324B440A5431400B4402543EFE785604F
:10176C0070BD81617047816270470369194201D075
:10177C00012070470020FCE7F0B5066A456A00239B
:10178C0001E001339BB2072B0BD801249C40224271
:10179C00F7D09F000F24BC40A6430C00BC4026434E
:1017AC00EFE7082301E001339BB20F2B0DD8012486
:1017BC009C402242F7D01C00083CA4000F27A740F5
:1017CC00BD430F00A7403D43EDE706624562F0BD07
:1017DC0070B5002814DB83084EF20015CEF200051C
:1017EC00C0339B005C5903221040C000FC32160031
:1017FC008640B44389010A40824022435A5170BD4D
:10180C000F230340083B9B0806339B004EF6005CFD
:10181C00CEF2000C63445C6803221040C000FC3222
:10182C0015008540AC4389010A40824022435A602E
:10183C00E5E770B5050044B22000FFF7C9FF002CA6
:10184C000ADB1F222A406409012393404EF2001246
:10185C00CEF20002A400A35070BD4FF68073C1F607
:10186C00FF73194001434EF60053CEF2000399600A
:10187C00BFF34F8F7047830941F2000CC4F2020C86
:10188C0063441A681F2108401E3981400A431A60BC
:10189C007047830941F2000CC4F2020C63441A68CD
:1018AC001F2108401E3981408A431A607047830902
:1018BC0041F2000CC4F2020C63441A681F21084068
:1018CC001E3981400A431A607047830941F2000CAB
:1018DC00C4F2020C63441A681F2108401E3981406F
:1018EC008A431A607047000041F20403C4F20203F9
:1018FC001A686A490A401A6041F23003C4F20203C2
:10190C001A684FF6FF61C7F6FE710A401A60092883
:10191C000FD88000624B1B589F4641F23003C4F233
:10192C0002031A685F490A401A601A685E490A4045
:10193C001A60704741F23003C4F202031968802226
:10194C0052020A431A601A6857490A401A60F0E7B3
:10195C0041F20403C4F202031A681A6041F2300324
:10196C00C4F202031A6840F200110A431A60E0E75D
:10197C0041F20403C4F202031A681A6041F2300304
:10198C00C4F202031968802212060A431A601A680C
:10199C0040F200110A431A60CBE741F20403C4F28F
:1019AC0002031A6844F200010A431A6041F2300340
:1019BC00C4F202031A6840F200110A431A60B8E735
:1019CC0041F20403C4F202031A6844F200010A4310
:1019DC001A6041F23003C4F2020319688022120625
:1019EC000A431A601A6840F200110A431A60A0E711
:1019FC0041F20403C4F202031A6848F200010A43DC
:101A0C001A6041F23003C4F202031A6840F200116A
:101A1C000A431A608DE741F20403C4F202031A6808
:101A2C0048F200010A431A6041F23003C4F2020387
:101A3C001968802212060A431A601A6840F20011D3
:101A4C000A431A6075E741F20403C4F202031A68F0
:101A5C004CF200010A431A6041F23003C4F2020353
:101A6C001A6840F200110A431A6062E741F204035B
:101A7C00C4F202031A684CF200010A431A6041F2E4
:101A8C003003C4F202031968802212060A431A605A
:101A9C001A6840F200110A431A604AE7FF3FFFFF41
:101AAC0014AB0008FFFFFEFFFFFEFFFFF0B589B08F
:101ABC00020004A94AF69813C0F600031C00E0CCFF
:101ACC00E0C108002168016002A81900103160C94A
:101ADC0060C06946103330CB30C141F20403C4F20C
:101AEC0002031968890803230B40022B24D041F20E
:101AFC000020C0F27A0041F20404C4F2020421680E
:101B0C0009090F230B4004A9CB5C0500DD402368B9
:101B1C001B0A07210B4002AEF35C2E00DE4023684B
:101B2C00DB0A19406B465B5C2900D940052A34D886
:101B3C0092005D4B9B589F4641F20403C4F2020392
:101B4C001968890C0F2008401B681B0117D5113030
:101B5C0041F20403C4F202031B68DB0315D541F206
:101B6C002C03C4F2020319680F230B40013341F21A
:101B7C000021C0F27A01B1FBF3F14843BBE70F2817
:101B8C0001D00230E4E71020E2E74101091A8B0191
:101B9C005B1ADB0018180002ADE7002000E02800FB
:101BAC0009B0F0BD3000FBE70800F9E741F2300363
:101BBC00C4F202031B68DB050BD441F23003C4F200
:101BCC0002031B68DB0360D449F68070C0F2D500B9
:101BDC00E6E741F20403C4F202031A68920B0323F2
:101BEC00134041F23002C4F202021268D20F022BEF
:101BFC001AD007D86BB1012B02D18AB98808CFE76C
:101C0C000020CDE7032B02D1BAB9C808C8E70020E1
:101C1C00C6E70AB94808C3E70320B5FBF0F0BFE7F5
:101C2C000520B5FBF0F0BBE71AB90620B1FBF0F0CC
:101C3C00B6E70720B5FBF0F0B2E70920B5FBF0F0F2
:101C4C00AEE741F23003C4F202031B689B0721D0BC
:101C5C0041F23003C4F202031A6803231340012B30
:101C6C009ED041F23003C4F202031A6803231340DE
:101C7C00022B11D041F23003C4F202031A68032381
:101C8C001340032B0BD000208AE743F60070C0F200
:101C9C00AB1085E7080083E748F2000080E741F2CB
:101CAC000020C0F27A007BE73CAB000810B543F68D
:101CBC000003C4F2000398420ED043F20003C4F2B6
:101CCC000103984207D140F20C30FFF7F0FD40F2CF
:101CDC000C30FFF7FAFD10BD40F20E40FFF7E7FDA8
:101CEC0040F20E40FFF7F1FDF5E70023036043607F
:101CFC0040F200728260C36003614361836170478C
:101D0C0030B5046843F240031C40026843F64003BC
:101D1C001A4045684FF2FF032B4043F20005C4F212
:101D2C000105A84215D00C6814434A682243CC68BC
:101D3C0014430A6922434C6914438A6922430260A2
:101D4C008A6813434360C369104A1340C36101207E
:101D5C0030BD0B6823434A681A43CB6813430A69A6
:101D6C001A434B6913438A691A43896840F200731A
:101D7C00994203D040F60073994205D140F6000316
:101D8C000B4013430360DEE70020E1E7FFF7FFFFA2
:101D9C000368402213430360704743F20003C4F20C
:101DAC000103984204D04368DB0403D5017300E0BF
:101DBC00C1607047C160FCE7836819420DD143F6DE
:101DCC000003C4F20003984209D151B9836841F66B
:101DDC0000021A4207D0002000E0012070470020CA
:101DEC00FCE70020FAE70120F8E703230B409B00F7
:101DFC000F229A40D24398408908022923D00CD84C
:101E0C00B9B101291ED10C23C4F2010319680A408F
:101E1C001A601A6802431A6014E0032912D11423C1
:101E2C00C4F2010319680A401A601A6802431A6066
:101E3C0008E00823C4F2010319680A401A601A6802
:101E4C0002431A6070471023C4F2010319680A4058
:101E5C001A601A6802431A60F4E710B542F60043A0
:101E6C00C4F2010398423BD042F60043C4F2010392
:101E7C0098421AD841F20003C4F20003984238D0B9
:101E8C0042F20003C4F2000398423BD040F20043FC
:101E9C00C4F2000398422BD140F20140FFF707FD3A
:101EAC0040F20140FFF711FD22E044F20043C4F27E
:101EBC00010398422FD044F60003C4F20103984268
:101ECC0032D044F20003C4F20103984210D140F224
:101EDC001030FFF7ECFC40F21030FFF7F6FC07E097
:101EEC0040F20B30FFF7E3FC40F20B30FFF7EDFC58
:101EFC0010BD40F20440FFF7DAFC40F20440FFF75B
:101F0C00E4FCF5E740F20840FFF7D1FC40F2084052
:101F1C00FFF7DBFCECE740F21130FFF7C8FC40F2B6
:101F2C001130FFF7D2FCE3E740F21230FFF7BFFCB1
:101F3C0040F21230FFF7C9FCDAE70023038043803C
:101F4C0083804FF6FF728260C3800373704700007A
:101F5C000B88836242F60043C4F20103984205D019
:101F6C0040F20043C4F2000398420BD10368702284
:101F7C009343036003684A881343036003688A88A9
:101F8C00134303608B68C36242F60043C4F201033F
:101F9C0098421DD040F20043C4F20003984217D07F
:101FAC0042F20003C4F20003984211D044F2000341
:101FBC00C4F2010398420BD044F20043C4F2010373
:101FCC00984205D044F60003C4F20103984207D1AD
:101FDC000368134A134003600368CA881343036001
:101FEC0042F60043C4F20103984211D044F20003BC
:101FFC00C4F2010398420BD044F20043C4F2010333
:10200C00984205D044F60003C4F20103984201D172
:10201C000B7B036343690122134343617047C04642
:10202C00FFFCFFFF03680122134303607047036842
:10203C0001229343036070470368802213430360BB
:10204C00704741627047C3680B43C3607047C368F5
:10205C000B400269114202D01BB9002000E00020A5
:10206C0070470120FCE7C94301617047012904D086
:10207C00436C054A134043647047436C48F20002BA
:10208C0013434364F8E7C046FF7FFFFF0023038040
:10209C0043808380C380038143817047022900D130
:1020AC00CDE032D8002958D0012900D0A1E0036A34
:1020BC0010218B430362836982490B408361036A5D
:1020CC00118809010B430362036A20218B430362CD
:1020DC00036A918809010B43036242F60043C4F280
:1020EC000103984200D185E044F20003C4F20103DD
:1020FC00984200D07DE0436873490B4043604368CD
:10210C00128992001343436073E0032971D1036A6F
:10211C006E490B400362C3696A490B40C361036A91
:10212C00118809030B430362036A69490B4003627C
:10213C00036A918809030B43036242F60043C4F21D
:10214C000103984255D1436862490B404360436890
:10215C0012899201134343604BE0036A01218B43C4
:10216C000362836902318B438361036A11880B43D9
:10217C000362036A02218B430362036A91880B4357
:10218C00036242F60043C4F20103984211D044F2B8
:10219C000003C4F2010398420BD044F20043C4F292
:1021AC000103984205D044F60003C4F2010398429F
:1021BC001FD1036A04218B430362036A51880B43CA
:1021CC000362036A08218B430362036AD1880B43C1
:1021DC000362436840490B404360436811890B43D9
:1021EC00436043683D490B40436043685289134345
:1021FC0043607047036A40218B430362036A518832
:10220C0009010B430362036A80218B430362036A57
:10221C00D18809010B43036243682B490B4043608F
:10222C004368118989000B43436043682C490B4078
:10223C0043604368518989000B43436054E7036A48
:10224C0025490B400362C3690531FF318B43C361E0
:10225C00036A118809020B430362036A1F490B408E
:10226C000362036A918809020B43036242F600433E
:10227C00C4F201039842BCD1036A13490B400362B8
:10228C00036A518809020B430362036A14490B4029
:10229C000362036AD18809020B43036243680B494A
:1022AC000B4043604368118909010B434360436849
:1022BC0007490B4043604368528912011343436042
:1022CC0097E7C046FFFCFFFFFFFBFFFFFFEFFFFFA1
:1022DC00FFDFFFFFFFBFFFFFFFFEFFFFFFFDFFFF65
:1022EC00FFF7FFFF02291FD00BD8A9B101291AD182
:1022FC00836911490B408361836912021A4382611D
:10230C0011E003290FD1C3690B490B40C361C369A9
:10231C0012021343C36106E0836970218B4383610E
:10232C008369134383617047C36970218B43C36115
:10233C00C3691343C361F6E7FF8FFFFF02290BD07C
:10234C0004D839B1012906D1826304E0032902D1F2
:10235C00026400E042637047C263FCE702291FD0AD
:10236C000BD8A9B101291AD1836911490B4083619A
:10237C00836912021A43826111E003290FD1C369E8
:10238C000B490B40C361C36912021343C36106E0DE
:10239C00836908218B43836183691343836170478D
:1023AC00C36908218B43C361C3691343C361F6E757
:1023BC00FFF7FFFF02291FD00BD8A9B101291AD1B1
:1023CC00836911490B408361836912021A4382614C
:1023DC0011E003290FD1C3690B490B40C361C369D9
:1023EC0012021343C36106E083690C218B438361A2
:1023FC008369134383617047C3690C218B43C361A9
:10240C00C3691343C361F6E7FFF3FFFF70B50229FD
:10241C0000D172E026D800294BD0012969D1036A7A
:10242C001025AB430362036AA024A3430362036A2F
:10243C0014882401234303628369424C2340836143
:10244C008369548824022343836183693E4C23406F
:10245C0083618369D488240323438361036A2B43F8
:10246C00036246E0032944D1036A384C23400362DB
:10247C00036A374C23400362036A14882403234302
:10248C000362C3692F4C2340C361C369548824027F
:10249C002343C361C3692C4C2340C361C369D488F3
:1024AC0024032343C361036A41F200042343036200
:1024BC001FE0036A0125AB430362036A0A24A343AA
:1024CC000362036A14882343036283690324A343CE
:1024DC00836183695488234383618369F024A34314
:1024EC0083618369D488240123438361036A2B436A
:1024FC0003629288FFF75EFF70BD036A154C2340A0
:10250C000362036A144C23400362036A1488240296
:10251C0023430362C3690324A343C361C36954887F
:10252C002343C361C369F024A343C361C369D48843
:10253C0024012343C361036A40F200142343036262
:10254C00D7E7C046FFFCFFFFFF0FFFFFFFEFFFFFCA
:10255C00FF5FFFFFFFFEFFFFFFF5FFFF02290FD01C
:10256C0006D859B1012901D1806B08E0002006E0A2
:10257C00032901D1006C02E0002000E0406B7047A1
:10258C00C06BFCE710B544F20043C4F20003984260
:10259C000ED043F60003C4F20103984207D140F277
:1025AC000E30FFF784F940F20E30FFF78EF910BDB4
:1025BC0040F21140FFF77BF940F21140FFF785F92B
:1025CC00F5E770B504000D0044F20043C4F20003BB
:1025DC00984219D043F60003C4F20103984217D174
:1025EC000520FFF763FA23681B0413D543006A0820
:1025FC009B18B3FBF5F14FF6F0730B40490807221B
:10260C000A401343E36070BD0220FFF74FFAEAE77C
:10261C000020E8E76B081B18B3FBF5F34FF6FF72CD
:10262C001340E360EFE7000003680122934303606B
:10263C000368034A1340036003680B43036070474D
:10264C00FFF9FFFF03680122934303600368034A09
:10265C001340036003680B4303607047FFEFFFFFF9
:10266C0003680122934303604368034A13404360A9
:10267C0043680B4343607047FFCFFFFF03680122A1
:10268C001343036070470368082293430360036895
:10269C000B43036070470368042293430360036891
:1026AC000B430360704740F2FF130B40836270478B
:1026BC008B091B181B681F220A40D340DB0701D56E
:1026CC00012070470020FCE7030040F20002C2F238
:1026DC0000021068C31840F2B442C2F200029342E6
:1026EC000BD340F60002C2F20002934208D840F22B
:1026FC000002C2F200021360704701204042FBE767
:10270C0001204042F8E70120704740F2A443C2F296
:10271C00000316221A6001204042704710B50121B7
:10272C004942FFF7F2FFFEE770B51600002405E002
:10273C004D1C0878FEF75EF901342900B442F7DB32
:10274C00300070BD01204042704742F200034B60E4
:10275C0000207047012070470020704770B50C00B6
:10276C001600002504E000E000BF207001350134A4
:10277C00B542F8DB300070BD41F20003C4F2020335
:10278C001968802252020A431A600022013241F277
:10279C000003C4F202031B689B0303D44FF6FF73C0
:1027AC009A42F3D141F20003C4F202031B689B036B
:1027BC0000D4FEE742F20002C4F2020213680721C1
:1027CC008B4305390B43136041F20403C4F202033B
:1027DC001A681A601A681A601A681A601A684FF632
:1027EC00FF71C7F2C2710A401A601968E8225203DD
:1027FC000A431A6041F20003C4F2020319688022F2
:10280C0052040A431A6041F20003C4F202031B682B
:10281C009B01F8D541F20403C4F202031A680321A8
:10282C008A431A601A6801390A431A6041F2040398
:10283C00C4F202031A680C231340082BF6D170471C
:10284C0010B5FFF799FF10BD00B583B041F200033E
:10285C00C4F202031A6801210A431A6041F2000310
:10286C00C4F202031B689B07F8D541F20403C4F2BF
:10287C0002031A6880210A431A600023019302E0C4
:10288C00019B01330193019B7F2BF9D941F2040386
:10289C00C4F202031A6890210A431A6000230193C0
:1028AC0002E0019B01330193019B7F2BF9D941F28B
:1028BC000403C4F202031A6803218A431A6041F22A
:1028CC000002C4F2020211684FF6FF70CFF6F260FC
:1028DC00014011601A680C21C0F6FF010A401A6011
:1028EC001A684FF6FF71C7F2C2710A401A6041F2C2
:1028FC002C03C4F202031A680F218A431A6041F2B6
:10290C003003C4F202031A6810490A401A601A68AC
:10291C000F490A401A601A68520052081A6041F2B4
:10292C003403C4F202031A6801218A431A6041F28B
:10293C000803C4F2020300221A60FFF781FF802013
:10294C0000210005FEF789FF03B000BDFCFEFFFF70
:10295C00FFFFFEFF10B5040040F20040C4F600007B
:10296C008021FEF700FF43F20000C4F201000221B7
:10297C00FFF722FA0028F6D043F20000C4F201005F
:10298C002100FFF70AFA40F20040C4F60000802153
:10299C00FEF7E7FE10BD10B50400000AFFF7DAFFE2
:1029AC00E0B2FFF7D7FF10BD70B5040040F2004550
:1029BC00C4F6000540212800FEF7D5FE8021280032
:1029CC00FEF7D1FE43F20000C4F201000221FFF732
:1029DC00F3F90028F6D043F20000C4F20100210004
:1029EC00FFF7DBF940F20044C4F60004802120001C
:1029FC00FEF7B7FE40212000FEF7B3FE70BDF8B520
:102A0C0007000D0016001C002A20FFF7CDFF380030
:102A1C00FFF7C1FF3000FFF7BEFF2B20FFF7C4FF0D
:102A2C002800FFF7B8FF2000FFF7B5FF2C20FFF7B9
:102A3C00BBFFF8BD10B540F20044C4F600042021E1
:102A4C002000FEF790FE6420FDF77CFC2021200086
:102A5C00FEF787FE6420FDF775FC40F200112000A4
:102A6C00FEF77FFE6420FDF76DFC1120FFF79CFF45
:102A7C007820FDF767FCB120FFF796FF0520FFF7E4
:102A8C0069FF3C20FFF766FF3C20FFF763FFB22095
:102A9C00FFF78AFF0520FFF75DFF3C20FFF75AFF89
:102AAC003C20FFF757FFB320FFF77EFF0520FFF711
:102ABC0051FF3C20FFF74EFF3C20FFF74BFF05205A
:102ACC00FFF748FF3C20FFF745FF3C20FFF742FF94
:102ADC00B420FFF769FF0320FFF73CFFC020FFF78E
:102AEC0063FF2820FFF736FF0820FFF733FF042091
:102AFC00FFF730FFC120FFF757FFC020FFF72AFF79
:102B0C00C220FFF751FF0D20FFF724FF0020FFF735
:102B1C0021FFC320FFF748FF8D20FFF71BFF2A2062
:102B2C00FFF718FFC420FFF73FFF8D20FFF712FFC0
:102B3C00EE20FFF70FFFC520FFF736FF1A20FFF737
:102B4C0009FF3620FFF730FF7020FFF703FFE0206E
:102B5C00FFF72AFF0420FFF7FDFE2220FFF7FAFE05
:102B6C000720FFF7F7FE0A20FFF7F4FE2E20FFF7F1
:102B7C00F1FE3020FFF7EEFE2520FFF7EBFE2A20BA
:102B8C00FFF7E8FE2820FFF7E5FE2620FFF7E2FE20
:102B9C002E20FFF7DFFE3A20FFF7DCFE0020FFF7C8
:102BAC00D9FE0120FFF7D6FE0320FFF7D3FE13203A
:102BBC00FFF7D0FEE120FFF7F7FE0420FFF7CAFE77
:102BCC001620FFF7C7FE0620FFF7C4FE0D20FFF707
:102BDC00C1FE2D20FFF7BEFE2620FFF7BBFE2320F3
:102BEC00FFF7B8FE2720FFF7B5FE2720FFF7B2FE50
:102BFC002520FFF7AFFE2D20FFF7ACFE3B20FFF7A3
:102C0C00A9FE0020FFF7A6FE0120FFF7A3FE04207B
:102C1C00FFF7A0FE1320FFF79DFE3A20FFF7C4FE3E
:102C2C000520FFF797FE2920FFF7BEFE10BDF0B57B
:102C3C00CE4600B582B001900E001500994608AB47
:102C4C001F884B46013B9BB2013A92B2FFF7D7FE6D
:102C5C0008E03800FFF79FFE0134A4B2AC42F8D371
:102C6C000136B6B24E4501D2019CF7E702B080BCEA
:102C7C00B946F0BD10B514000B000200FFF7BFFE03
:102C8C002000FFF788FE10BDF0B5DE4657464E46D5
:102C9C004546E0B585B00EAC2488A1460190141AC7
:102CAC00A24602915C1AA3465446002C0DDD40F25C
:102CBC0001085A46002A11DD01230393DA4516DD7B
:102CCC00554600270026002415E02CB1821A9246A6
:102CDC00012252429046ECE7D046EAE72AB1CB1AE1
:102CEC009B4601235B420393E8E70392E6E75D46CC
:102CFC00E7E70134A4B2AC4216DC6B46198998881C
:102D0C004A46FFF7B7FF56445F44B54203DA761BD9
:102D1C00019B43440193BD42EBDA7F1B029B039A58
:102D2C00944663440293E4E705B0F0BCBB46B2465C
:102D3C00A946A046F0BDF0B5DE4657464E46454680
:102D4C00E0B587B082460D000391009310AB1B8851
:102D5C00029311AB1C78019412AB1B78994667084F
:102D6C00210907233B40581E8341CB1820005C43AC
:102D7C000494203AD3B205935346FA1892B22B001E
:102D8C00844663449BB2013B9BB2013A92B2290048
:102D9C005046FFF734FE564640F2000B002557E034
:102DAC00059A5300944663449B004DF6D422C0F61A
:102DBC000002944663445A469B5C9846002428E0E3
:102DCC00059B1B014DF2E442C0F60002944663449D
:102DDC005A469B5C9846F1E7059A53009446634427
:102DEC001B014CF21432C0F60002944663445A465E
:102DFC009B5C9846E2E70298FFF7CDFD0135EDB2FA
:102E0C00B5FBF7F37B43EB1ADBB2002B41D001345B
:102E1C00E4B2072C18D84B463BB943462341DB0799
:102E2C00E9D50098FFF7B7FDE8E743462341DB07F8
:102E3C0029D40136B6B25346F31ABB42E7D1039BF1
:102E4C0001339BB2039356465A46013293B29B46CA
:102E5C00049B9B451FD2019B0C2BA1D0019B102BDB
:102E6C00AED0019B182BB7D0019B202B13D1059B07
:102E7C009B014AF65432C0F60002944663445A460B
:102E8C009B5C98469AE7009A03993000FFF7F2FE94
:102E9C00CFE71D00D8E707B0F0BCBB46B246A94649
:102EAC00A046F0BDF0B5D6464F464646C0B584B0F8
:102EBC0006000F0014009A460CAB1B8899460DAB0C
:102ECC001D780EAB1B7898460DE043460293019596
:102EDC004B460093534639003000FFF72CFF68082F
:102EEC003618B6B201342278002AEED104B0E0BC18
:102EFC00BA46B146A846F0BD30B583B0050092B2D3
:102F0C00891A8CB240F20803C2F200031B7813BB7F
:102F1C0040F26633C2F2000318889E2831D8421C56
:102F2C0092B240F26435C2F2000529884FF6E07384
:102F3C0000932300FFF7A8FE40F26633C2F20003B1
:102F4C001A8801321A802C8040F26633C2F20003D8
:102F5C00188803B030BD40F20803C2F2000300220F
:102F6C001A7040F2E0722100FFF784FE40F26633E3
:102F7C00C2F200031D8040F26433C2F200031C80D5
:102F8C00E2E740F2E07221002800FFF773FE40F206
:102F9C006633C2F200031D8040F26433C2F20003B8
:102FAC001C80D1E70200012001E0504319004B1EA8
:102FBC00DBB20029F9D17047F0B5DE4657464E46D4
:102FCC004546E0B587B007000491101C1E0010ABFD
:102FDC001B88059311AB1B889B4612AB1B7898463C
:102FEC005B089A460021C4F2C82105F021F904F0CF
:102FFC0045FD83B2994600253B0057469A4611E0A1
:10300C00380068433034E2B2504480B2002302935B
:10301C00434601935B460093059B0499FFF78BFE97
:10302C000135EDB2B54227D2711BC9B20139C9B213
:10303C000A20FFF7B7FFB9FBF0F00A23B0FBF3F35C
:10304C009C00E4186400041BE4B2B31E9D42D7D16B
:10305C0018007843504480B20023029343460193F6
:10306C005B460093059B2E220499FFF764FE013505
:10307C00EDB20136B6B2C3E707B0F0BCBB46B24600
:10308C00A946A046F0BDF0B5DE4657464E4645462D
:10309C00E0B587B00490059117001D0010AB1B889C
:1030AC009B4611AB1B889A4612AB1B7899465B0862
:1030BC0098460026002425E040466043049B9C462D
:1030CC00604480B2002302934B4601935346009315
:1030DC005B4620220599FFF72EFE11E03030C2B27C
:1030EC0040466043049B9C46604480B2002302939C
:1030FC004B460193534600935B460599FFF71BFE25
:10310C000134E4B2AC4219D2291BC9B20139C9B29B
:10311C000A20FFF747FFB7FBF0F00A22B0FBF2F2F0
:10312C0093009B185B00C01AC0B2002ED6D16B1E48
:10313C009C42D3DA0028BFD00126CFE707B0F0BC01
:10314C00BB46B246A946A046F0BD00000D488546D8
:10315C00002103E00C4B5B58435004310B480C4BE3
:10316C0042189A42F6D30B4A02E000231360043251
:10317C00094B9A42F9D3FFF767FB01F03DF9FDF7D4
:10318C00A5F8FEE70020002038E40008000000202D
:10319C00D4010020D4010020B4040020FEE7F0B5D7
:1031AC001F00002316008BB09F4204DA8021090611
:1031BC007B181F002D23129A149D137020230322B9
:1031CC009D43462D07D02B00453B59424B4110994E
:1031DC00013ACB18109309AB049308AB0393139BE0
:1031EC0000920293109B320001933B0001F0C6F950
:1031FC000400472D1AD1119BDB0710D5109BC31867
:10320C0007930022002330003900FCF785FF08B13A
:10321C00079B09933022099B07998B421FD32000EF
:10322C00099B159A1B1B13600BB0F0BD109BC318A8
:10323C000793462DE5D10378302B0BD100220023C8
:10324C0030003900FCF768FF20B90123109A9B1A53
:10325C00139A1360139B079A1B68D318D0E7591C59
:10326C0009911A70D7E7F7B52B230270002901DA00
:10327C00494202334370092926DD6B46DA1D1500DD
:10328C000A2791FBF7F63B007343CB1A303314003B
:10329C00013A13700B003100632BF2DCA61E3031A7
:1032AC00831C317032001900954208D80022B542B7
:1032BC0002D309326A44121B9B18181AFEBD1778E8
:1032CC0001320F700131EFE7302330318370C17060
:1032DC00031DF2E7F0B597B00D000A921C9C0B93FE
:1032EC00099001F03FF8036818000D93FCF7E8FE15
:1032FC0000230F9014932B7E07220C932B680E93B4
:10330C000E992368C90542D59B1893431A000832BD
:10331C00226001221E685F687B005B081193109687
:10332C00AE64EF6410981199A54B524207F0B6F9B0
:10333C0000282ED1109811990122A14B5242FCF772
:10334C00FBFE30BB0022002330003900FCF7EAFE04
:10335C0018B12B002D2243331A700C9B472B2AD803
:10336C00984F032300240E9A2B6101339A432A6051
:10337C000B9B2900009309980A9B15AA00F0E2F90F
:10338C00013000D09EE00120404217B0F0BD073361
:10339C00BBE732003B003000390007F07FF970B119
:1033AC00002F03DA2B002D2243331A700C9B472B72
:1033BC0003D8854FD5E7854FD3E7854FD1E720223A
:1033CC000C9C6B6894435A1C46D107336B6040F2DB
:1033DC0000430E9A0AA9134300222B60069214AAEA
:1033EC0005920C9A0193049213AA03922322521869
:1033FC0002926B683200009309983B00FFF7CFFEF6
:10340C00139A0700472C2DD1D31C02DB6B689A4210
:10341C0045DD0C9B023BDBB20C93280013990C9AF4
:10342C00013950301391FFF71EFF149A0400131842
:10343C002B61012A02DC2A68D20701D501332B61EA
:10344C0023230AAA9B181B78002B00D190E72B0092
:10345C002D2243331A708BE7472CB8D1002BB6D1F1
:10346C000133B3E70C9B652BD7D90C9B662B18D17A
:10347C006B68002A08DD2A6113B92968C9070AD5C7
:10348C0001339B182B6106E01BB9012229681142FC
:10349C0000D09A1C2A61139B0024AB65D0E76723EC
:1034AC000C931399149B994206DB2B682961DB075B
:1034BC00F1D501312961EEE701220029E1DC9218F6
:1034CC00521ADEE72A68530508D42B693A000A9988
:1034DC0009980B9CA047013028D154E70C9B652B15
:1034EC0000D8DAE0A86CE96C00220023FCF714FE8B
:1034FC0098B30123374A0A9909980B9CA0470130CD
:10350C0000D140E7149E139BB34202DB2B68DB0710
:10351C000CD50B9C0F9B0D9A0A990998A047002477
:10352C00013000D12FE7731EA3420ADC2B689B07E6
:10353C0000D505E1159BE868984200DB25E71800EB
:10354C0023E72A0001230A9909980B9F1A32B847DE
:10355C00013000D117E70134E5E7139B002B3BDC6E
:10356C0001231C4A0A9909980B9CA047013000D1F1
:10357C0009E7149E139B334313B92B68DB07D5D58E
:10358C000F9B0D9A0A9909980B9CA04700230130B8
:10359C0000D1F8E60C93139B0C9A5B42934201DC2E
:1035AC00330093E72A0001230A9909980B9C1A32DD
:1035BC00A047013000D1E6E60C9B0133EAE7C04698
:1035CC00FFFFEF7F48DF000850DF00084CDF0008EA
:1035DC0054DF000858DF0008149BAE6D0C939E421C
:1035EC0000DD1E00002E31DCF3430024DB173340DA
:1035FC000E93AE6D0E9BF31AA34230DC139B0C9A08
:10360C009A4238DC2B68DB0735D4139C0C9B0C9A44
:10361C009B1B141B9C4200DD1C00002C34DCE34380
:10362C000026DB171C40139B0C9AD31A1B1BB342AE
:10363C0000DC7BE72A0001230A9909980B9F1A32B8
:10364C00B847013000D19EE60136ECE733003A0072
:10365C000A9909980B9CA0470130C5D193E62A0022
:10366C0001230A9909980B9E1A32B047013000D1F8
:10367C0089E60134BDE70F9B0D9A0A9909980B9CBA
:10368C00A0470130C1D17EE6BA1923000A990998E6
:10369C000B9EB0470130C2D175E6149B0C93012BE5
:1036AC0002DC01231A4238D001233A000A99099806
:1036BC000B9EB047013000D165E60F9B0D9A0A991D
:1036CC0009980B9EB047013000D15CE6A86CE96C00
:1036DC000C9B0022013B0C930023FCF71DFDD0B981
:1036EC000C9B7A1C0A9909980B9EB04701300ED19D
:1036FC0049E62A0001230A9909980B9F1A32B84708
:10370C00013000D13FE601360C9B9E42F1DB2A00D2
:10371C0023005032DBE60026F6E73A00E2E72A0007
:10372C0001230A9909980B9E1932B047013000D138
:10373C0029E60134EB68159A9B1AA342EFDCF9E6F3
:10374C000024F7E7F7B5160001938A680B690C00A3
:10375C000090934200DA1300220033604332127857
:10376C000AB10133336023689B0602D533680233F8
:10377C0033602268062315001D401A4227D023000F
:10378C0043331B785A1E93412268920630D4220090
:10379C0001990098089D4332A847013025D0062294
:1037AC00236800251340042B05D13368E568ED1A16
:1037BC00EB43DB171D40A3682269934201DD9B1A82
:1037CC00ED180026B54220D1002010E00135E36849
:1037DC0032689B1AAB42D2DD22000123019900987A
:1037EC00089F1932B8470130F0D101204042FEBD8C
:1037FC003020E1184331087021005A1C45310978FA
:10380C00A218433202331170C1E72200012301993F
:10381C000098089F1A32B8470130E6D00136D1E73C
:10382C00F0B50E0089B00492039005930C00097E4C
:10383C000E9A4336782907D8622909D8002900D175
:10384C00B7E0582900D1A0E025004235297022E0CC
:10385C00080063381528F7D8FCF744FC16001F0045
:10386C00F6FFF6FFF6FFF6FF1F00F6FFF6FFF6FF7A
:10387C00F6FF9E0034004300F6FFF6FFAF00F6FFA4
:10388C003400F6FFF6FF4700250013684235191D7A
:10389C001B6811602B7001239CE013682068191DB4
:1038AC00050609D51B681160002B02DA2D225B423C
:1038BC0032700A225B4832E01B6811604006F3D577
:1038CC001BB2F1E71068256808C82F0602D46D06F4
:1038DC0000D59BB21060082252486F291BD00A22D7
:1038EC0019E0202321680B43236078214E482300E4
:1038FC00453319701568216808CD0F0602D44F06A0
:10390C0000D59BB21560CA0702D520220A4322605B
:10391C00002B3CD010222100002543310D70616832
:10392C00A160002908DB40F2040C674625681943A6
:10393C00BD432560350061B13500B3FBF2FC614637
:10394C005143591A415C013D2970190063468A4262
:10395C00F3D9082A09D12368DB0706D562682369E5
:10396C009A4202DC3023013D2B70761B2661059BAD
:10397C00210000930398049B07AAFFF7E3FE013094
:10398C002CD10120404209B0F0BD2648AFE72021E0
:10399C0022688A432260BDE713682568181D616997
:1039AC0010601B682F0601D5196002E06D06FBD56F
:1039BC001980002335002361D9E71368191D1160A4
:1039CC001D6800212800626800F041FD08B1401B11
:1039DC0060606368236100233370C8E72A002369A1
:1039EC0004990398059DA8470130CAD023689B070A
:1039FC0015D4079BE0689842C5DA1800C3E722008B
:103A0C00012304990398059E1932B0470130B8D0B0
:103A1C000135E368079A9B1AAB42F0DCE9E7002515
:103A2C00F7E7C0465ADF00086BDF0008F0B58BB033
:103A3C001600039040F25C12002007938B680C0078
:103A4C00591E0690914205D95E3BFF3B069340F20E
:103A5C005D13A36040F2807322680025134323603A
:103A6C0023001C331F0004930295099508950195BA
:103A7C000595A26852B133681B784E2B43D81800B9
:103A8C00402B2BD82B38C1B20E2929D9019B1BB145
:103A9C002368A34A13402360029B013B012B00D9EE
:103AAC00F9E040F27C15049B9F4200D9E9E001202B
:103ABC000BB0F0BD180061380D28E7D8FCF712FBED
:103ACC008500E6FFE6FFE6FFB600A200E6FFE6FF94
:103ADC008B00E6FFE6FFE6FFE6FF69004138EBE707
:103AEC000E28D3D8FCF7FEFA4D00D2FF4D009800FB
:103AFC00D2FF20003F003F003F003F003F003F004F
:103B0C003F003F003F006E2B09D8602BD2D8542BBE
:103B1C007DD0592BBAD1072DB8D108252EE0742BA6
:103B2C0075D0792BF7D0B1E72168C8051BD5802358
:103B3C009943019B216001330193069B1BB1013B0F
:103B4C0001320693A260A368013BA3602369013391
:103B5C0023617368013B7360002B00DC87E03368E2
:103B6C000133336085E7029A5119002900D08DE7A3
:103B7C000D0022686B480291024022603B700137B5
:103B8C00E1E7802122680A4200D17FE78A43226064
:103B9C00F4E7029A72B9019A7AB9226840F200717C
:103BAC0010000840884208D15F490A402260012277
:103BBC000292E3E7029A022A57D0012D02D0042D7B
:103BCC0000D063E70135EDB2D8E7029A012A00D0A4
:103BDC005CE70222ECE785B9019A002A00D057E78E
:103BEC00226840F2007110000840884200D01AE1AF
:103BFC004D4901350A402260C0E7FD21EA1E0A4208
:103C0C00E0D043E7022D00D040E70325B6E7062DB0
:103C1C0000D03BE70725B1E72268910500D435E7D2
:103C2C0042490A402260019A0592A7E740F20051EE
:103C3C0040F2004022681140814206D0024200D17D
:103C4C0024E70199002900D1EDE0910504D40199F4
:103C5C0005980997091A089133490A4040F28011D6
:103C6C000A4322600022019288E70322A0E740F277
:103C7C0080133100E35803989847002800D1F8E6E8
:103C8C0004E7013F63593200397803989847236958
:103C9C00013B236107E76B1E062B0ED80297022D02
:103CAC0020D9EB1BDBB20693029B069A9B18DBB266
:103CBC00032B27D1033DEDB27F1B2368DA0552D5C8
:103CCC005B0535D540F27C15049B9F4200D8EEE68F
:103CDC00013F635932003978039898472369013BB7
:103CEC002361F1E740F27C15049B9F4200D8DEE68D
:103CFC00013F635932003978039898472369013B97
:103D0C002361F1E7029B3200013B1978029340F2E8
:103D1C007C130398E35898472369013B2361C3E75D
:103D2C00FFFEFFFF7FFEFFFF7FF8FFFF7FFDFFFF22
:103D3C0023697D1E2978013B236165290CD0452917
:103D4C000AD040F27C133200E35803989847236959
:103D5C00BD1E013B2978236140F27C133200E358ED
:103D6C00039898472F00216810230A001A40194223
:103D7C0001D000209CE640F200613A7023680B40B1
:103D8C0040F200418B421BD1059B019A01999A1A72
:103D9C008B4221D100220499039802F071FD079BFC
:103DAC00226806000F001B68910722D507991A1D7F
:103DBC000A601B681E605F60E3680133E360D8E74C
:103DCC00089B002BE6D0099B0398591C0A2302F090
:103DDC00F3FD089B099FC21A23007033FF339F42E7
:103DEC0002D327006F37FF373800104900F076F9FF
:103DFC00D0E7191D520702D5079A1160D9E7079A27
:103E0C00300011601D6832003B00390006F046FCA2
:103E1C0020B1074800F026FB2860CDE730003900C0
:103E2C0006F024FDF8E70023019335E67CDF00085B
:103E3C00BFE00008002310B50400036043608360FA
:103E4C0081814366C2810361436183611900082249
:103E5C005C3000F07FFA0B4B246263620A4BA36266
:103E6C000A4BE3620A4B23630A4B9C4205D00A4B74
:103E7C009C4202D0094B9C4203D12000583000F0E8
:103E8C00E3FA10BD2D410008554100088D41000892
:103E9C00B941000868030020D0030020380400203A
:103EAC0010B5034A0349044800F06AF810BDC04637
:103EBC000C0000208D6D00081C00002041680B4B8D
:103ECC0010B50400994201D002F05AFFA168084BCA
:103EDC00994202D0200002F053FFE168054B994251
:103EEC0002D0200002F04CFF10BDC0466803002039
:103EFC00D00300203804002010B5094B094A0421D6
:103F0C001A6009480022FFF795FF01220921074892
:103F1C00FFF790FF022212210548FFF78BFF10BD1F
:103F2C00A0040020AD3E000868030020D003002050
:103F3C003804002010B5024800F087FA10BDC046C6
:103F4C00A904002010B5024800F080FA10BDC0464C
:103F5C00A904002010B50400FFF7ECFF236A13B18D
:103F6C00FFF7F0FF10BD044B2362044B1B68002BC2
:103F7C00F6D1FFF7C1FFF3E7C93E0008A00400200B
:103F8C00F7B51400002600900191A5686768013F01
:103F9C0004D52468002CF8D13000FEBDAB89012B70
:103FAC0008D90E22AB5E013304D029000098019B86
:103FBC00984706436835EAE7036A70B505000E00BA
:103FCC0084680BB9FFF7C6FF636EDB0705D4A389C2
:103FDC009B0502D4A06D00F038FAA3891B0701D50C
:103FEC002369F3B92100280000F05CF9C8B1012560
:103FFC006D42636EDB0705D4A3899B0502D4A06DCB
:10400C0000F024FA280070BD0136A360002B04DAFE
:10401C00A2699A4216DC0A2914D023685A1C226021
:10402C001970A3683178013B0029EDD1A360002BF6
:10403C000FDA220028000A3100F0F6F80130D6D051
:10404C000A25D6E72200280000F0EEF80130E8D16E
:10405C00CDE723685A1C22600A221A70F0E7000090
:10406C0010B5034B01001868FFF7A6FF10BDC04642
:10407C00180000200CB430B5174B0C001D689DB017
:10408C00002908DA8B2301202B6040421DB030BC84
:10409C0008BC02B0184740F208236A4693820023FA
:1040AC0002901B93069001B14B1E049307930123BE
:1040BC006A465B42D382280021AB209A02A9019365
:1040CC0002F0E0FC431C01DA8B232B60002CDDD0CA
:1040DC000022029B1A70D9E7180000200EB410B50C
:1040EC0000240C499DB01FAB0290069007910491DF
:1040FC0009480A4904CB0591006802A901931B9455
:10410C0002F0C0FC029B1C701DB010BC08BC03B0BC
:10411C001847C046FFFFFF7F180000200802FFFF72
:10412C0070B50C000E25495F00F042F9002803DB46
:10413C00636D1B18636570BDA389024A1340A3818C
:10414C00F9E7C046FFEFFFFFF8B51F008B890500AC
:10415C000C001600DB0505D50E23C95E00220223D8
:10416C0000F014F9A389054A28001340A3813200FA
:10417C000E23E15E3B0000F02DF9F8BDFFEFFFFFD1
:10418C0070B50C000E25495F00F000F9A389421CA4
:10419C0003D1054A1340A38170BD41F200021343C1
:1041AC00A3816065F8E7C046FFEFFFFF10B50E2353
:1041BC00C95E00F0DBF810BD30B505001400080036
:1041CC001A009BB0002C05DA8B2301202B60404297
:1041DC001BB030BD694640F208238B810021009052
:1041EC001991049004B1611E012302910591694655
:1041FC005B42CB8128001E9B02F044FC431C01DA7D
:10420C008B232B60002CE3D00022009B1A70DFE77D
:10421C0007B5009313000A00010002480068FFF77D
:10422C00CBFF0EBD18000020F8B506000D001400E1
:10423C0018B1036A0BB9FFF78DFEA369A360A389BC
:10424C001B0701D5236943B92100300000F02AF87F
:10425C0018B101256D422800F8BD23692068EFB222
:10426C00C01A6369EDB2834205DC2100300002F014
:10427C0087FD0028EDD1A3680130013BA3602368C2
:10428C005A1C22601F706369834204D0A389DB0728
:10429C00E1D50A2DDFD12100300002F071FD00289C
:1042AC00D9D0D6E72A4B70B5050018680C0018B1A8
:1042BC00036A0BB9FFF74EFE0C22A35E1A0722D439
:1042CC00DA0607D409222A60402201201343A38175
:1042DC00404237E05B0712D5616B41B12300443398
:1042EC00994202D0280000F01FFF002363632422B0
:1042FC00A3899343A381002363602369236008236C
:10430C00A2891343A38123695BB940F2802140F257
:10431C000022A3890B40934203D02100280002F015
:10432C0081FD0C22A35E01211A000A400B420AD027
:10433C000022A26062695242A261226900200AB97D
:10434C001A06C1D470BD990700D46269A260F4E763
:10435C001800002003008218934200D17047197096
:10436C000133F9E70048704758010020002370B56D
:10437C00054D040008002B60FEF7E4F9431C02D144
:10438C002B6803B1236070BDA404002070B5040039
:10439C00080011001A000023044D2B60FEF7DCF915
:1043AC00431C02D12B6803B1236070BDA404002010
:1043BC0070B50400080011001A000023044D2B6096
:1043CC00FEF7CCF9431C02D12B6803B1236070BDFE
:1043DC00A404002070B50400080011001A0000238A
:1043EC00044D2B60FEF7A0F9431C02D12B6803B1DE
:1043FC00236070BDA404002070B500250E4C0F4B3B
:10440C00E41AA410A54209D1002506F0B3FA0C4C0D
:10441C000C4BE41AA410A54207D170BD074AAB009F
:10442C009B181B6898470135ECE7064AAB009B18B4
:10443C001B6898470135EEE730E4000830E40008CB
:10444C0034E4000830E40008704770477047C9B284
:10445C008218904201D10020704703788B42FBD028
:10446C000130F6E7004870470000C07FF0B50369E3
:10447C000C69050089B00020A3426ADB0B00013CEB
:10448C001433A00004931B1805932B001433181835
:10449C000193059B02681B680133B2FBF3F602968D
:1044AC009A422FD3019B049F9C46002303930793AE
:1044BC0008CF029A9EB25643039A1B0CB618029A66
:1044CC005343320C9B181A0C039262461268B6B214
:1044DC0006926A46128B9BB2921B079E9219069EFD
:1044EC00360CF31A16149E1933140793634692B2C2
:1044FC003604324304C39C46059BBB42D8D20368A6
:10450C00002B2BD0280001F0D1F9002820DB00274C
:10451C00019E0499336801C903936B469B8982B24F
:10452C009A1A039BD219000C1B0C1B1A10141B1883
:10453C001F1492B21B041A43059B04C68B42E9D28A
:10454C00019AA300D3181A688AB1029B0133029313
:10455C00029809B0F0BD036823B9013C019B0438F3
:10456C008342F8D32C61CDE71A6822B9013C019A39
:10457C00043B9A42F8D32C61E7E70000F0B5140035
:10458C001D00C6699DB00A940B95259F03907EB9BA
:10459C00102000F011FE039B0200D86120B9EF211E
:1045AC00BF4BC04802F0E8FC466086600660C660FF
:1045BC00039BDB69196859B15A68012393404A601F
:1045CC008B60039800F0F4FE0022039BDB691A60F9
:1045DC00002D19DA01233B606B005B080B930B9FDA
:1045EC00B14BB14A3B4093421DD142F20F73249A16
:1045FC0013603B031B0B2343002B01D100F069FD1F
:10460C00269B63B9A94B23E000233B60E7E7A84B4B
:10461C000893A84B269A136008981DB0F0BDA34BC5
:10462C000893A54BF6E70A9A0B9B129213931298D8
:10463C00139900220023FBF76FFD060050B10123F4
:10464C00249A1360269B13B19C4B269A13609C4BA7
:10465C000893E1E71AAB01931BAB00930398129AF2
:10466C00139B01F041FA7A00520D0590002A79D083
:10467C00139B18961903934B090B0B43924957182C
:10468C001298139919000022904B05F035FC904AB2
:10469C00904B05F057F9904A904B04F075F90400D3
:1046AC0038000D0006F04EF88D4A8E4B05F04AF995
:1046BC0002000B002000290004F066F904000D0034
:1046CC0006F008F800220490002320002900FBF7D4
:1046DC0029FD58B1049806F035F82B002200FBF7A1
:1046EC001BFD43425841049B1B1A04930123159351
:1046FC00049B162B0FD8129813997B4ADB009B183E
:10470C001A685B68FBF70EFD002849D0049B013B3F
:10471C0004930023159300221A9B0992DB1B5A1E4B
:10472C0040D50122D31A099300230E93049B002B2E
:10473C003ADB049A0E9B944663440E930023149226
:10474C000F93229B0124092B62D8052B02DD002438
:10475C00043B2293229B981E032863D8FBF7B8FCDA
:10476C0054563A2D1B9B1A9EF61840F23243F218FF
:10477C00202A10DD40239B1A9F4040F21243F3186D
:10478C00DC403800204306F009F80122574B771E15
:10479C00CB18189276E7202320009B1A9840F2E75A
:1047AC001590B8E70E92C1E7099B049A9B1A0993DE
:1047BC0053420F9300231493C3E70123239A1093BE
:1047CC009446049B6344069301330C93002B08DC42
:1047DC00012306E001231093239B002B26DD069377
:1047EC000C93039A0021D0690422150014359D42C4
:1047FC0021D94160039800F09BFD0890F0B90200AC
:10480C0040F2AF113A4BCCE60023E4E70023D5E7A6
:10481C00002310942293013B002206930C93133334
:10482C002392DEE701231093023BF5E701231A00E4
:10483C0006930C93F4E701315200D6E7039B089AD8
:10484C00DB691A600C9B0E2B00D9D1E0002C00D137
:10485C00CEE0049B002B60DD0F2223491340DB00CC
:10486C005B181E685F68049B02241D11DB050AD5CA
:10487C00129813991F4B15401A6A5B6A04F006FCD8
:10488C000A900B9101341B4B0D93ADBB0A980B99FD
:10489C0032003B0004F0FAFB0A900B9157E0C04643
:1048AC008EDF0008A5DF00080000F07F8ADF00081B
:1048BC0081DF000889DF00088DDF000859DF000860
:1048CC0058DF00080000F03F01FCFFFF0000F83F3C
:1048DC0061436F63A787D23FB3C8608B288AC63FFA
:1048EC00FB799F501344D33F58E10008000010FEA1
:1048FC00FEDF000830E1000801231D4209D0E41856
:10490C000D9B30001A685B68390005F01BF8060037
:10491C000F000D9B6D100833B6E7049B0224B3B156
:10492C00129813995D420F23D34A2B40DB009B183E
:10493C001A685B6805F006F8012700230A900B91B2
:10494C00CE4E2D11002D00D093E0002BA4D10A9E49
:10495C000B9F159B002B00D196E0002230003900F4
:10496C00C74BFBF7DFFB002800D18DE00C9B002B25
:10497C0000D189E0069B002B36DD049B0022013B15
:10498C000D933000BF4B390004F0DCFF0A900B9103
:10499C00069B01342000119305F0D4FE0A9A0B9B60
:1049AC0004F0D0FFB84B002203F0EEFFB74B06002B
:1049BC00CF18119B002B6BD10A980B990022B44B8A
:1049CC0005F09AFA32003B0004000D00FBF7BEFB29
:1049DC00002800D0A8E2802109067B1832002000B4
:1049EC002900FBF79FFB40BB129B139C0A930B9473
:1049FC001B9B002B00DA71E1049A0E2A00DD6DE19D
:104A0C00D3009D4A9B185C681B6806930794239BF4
:104A1C00002B00DBE6E00C9B002B00DDE2E063B931
:104A2C000698079900229A4B04F08CFF0A9A0B9B6C
:104A3C00FBF796FB002800D179E200263700239B78
:104A4C00089CDB430D93049700273100039800F07A
:104A5C00AFFC049B002B00D1BAE02FB19F4203D0D6
:104A6C003900039800F0A4FC0499039800F0A0FC12
:104A7C00AEE03D4205D03268736804F063FF3B0042
:104A8C0001346D1008365DE7049B0D930C9B81E798
:104A9C00119B794A013BDB0010999B181A685B68E3
:104AAC0000294CD000207B4904F0F0FA32003B0086
:104ABC0005F022FA089A060094460F00089B1693FC
:104ACC00119B634411930A980B9905F003FE0500A2
:104ADC0005F038FE02000B000A980B9905F00CFA51
:104AEC00169B30355C1C1D7032003B000A900B91FC
:104AFC00FBF718FB00286BD10A9A0B9B002060492E
:104B0C0005F0FAF932003B00FBF70CFB002800D053
:104B1C00C4E0119BA34200D166E7002230003900AB
:104B2C00584B04F00FFF002206000F000A980B9957
:104B3C00544B04F007FF16940A900B91C3E7300016
:104B4C00390004F0FFFE089D119A2B009446169034
:104B5C001791634419930A980B9905F0BBFD040057
:104B6C0005F0F0FD0B0002000A980B9905F0C4F952
:104B7C003034199B2C70013506000F00AB422AD142
:104B8C0016981799089B119C9C460022414B644433
:104B9C0003F0FAFE02000B0030003900FBF7D6FAE6
:104BAC00002800D07AE0169A179B0020394905F0AE
:104BBC00A3F902000B0030003900FBF7B3FA002810
:104BCC0000D111E72300013C2278302AFAD01C00D6
:104BDC000D9B049340E000222A4B04F0B3FE0A9094
:104BEC000B91B8E70C9B089D013B5B190C930A9E3B
:104BFC000B9F069A079B3000390004F047FA05F02A
:104C0C0069FD099005F09EFD069A079B04F09AFE3B
:104C1C0002000B003000390005F06EF92B00099AE8
:104C2C00013530321A700C9A2C009A4249D102008C
:104C3C000B0003F0A9FE069A079B06000F00FBF77A
:104C4C0085FA48BB069A079B30003900FBF764FADB
:104C5C0010B1099BDD071FD40599039800F0A8FB40
:104C6C0000232370049B249A01331360269B002B92
:104C7C0000D1D1E41C60CFE458E1000830E1000819
:104C8C000000F03F0000244000001C400000C0FC6D
:104C9C00000014400000E03F049B0D9323001C0017
:104CAC00013B1A78392A08D1089A9A42F7D10D9A01
:104CBC00089901320D9230220A701A7801321A705A
:104CCC0086E70022C04B04F03DFE002200230600C4
:104CDC000F00FBF721FA00288BD0BDE7109F0F9D2A
:104CEC00099CAFB1229A012A00DDDDE0189A002A56
:104CFC0000D1D3E040F233429B18099A0121D2181B
:104D0C0009920E9A0398D3180E9300F04FFC0700EB
:104D1C0074B10E9B002B0BDD0E9A2300944200DD28
:104D2C001300099AE41AD21A09920E9AD31A0E9306
:104D3C000F9BF3B1109B002B00D1CDE085B1390056
:104D4C002A00039800F0F0FC059A01000700039874
:104D5C0000F042FC06000599039800F029FB05962B
:104D6C000F9B5A1BAB4204D00599039800F0DCFC56
:104D7C0005900121039800F019FC149B0600002BF0
:104D8C0000D1AEE11A000100039800F0CDFC229B8B
:104D9C0006000025012B13DC0A9B00256BB90B9B2D
:104DAC001B0353B9894B0B9A134206D0099B01354F
:104DBC00013309930E9B01330E93149B012043B1D5
:104DCC00336903339B00F318586800F0A1FB2023D0
:104DDC00181A0E9B181802001F231A40184200D1F3
:104DEC0080E001339B1A042B78DD1C239B1A099A53
:104DFC00E418D21809920E9AD3180E93099B002B23
:104E0C0005DD1A000599039800F0E6FC05900E9B51
:104E1C00002B05DD31001A00039800F0DDFC0600C4
:104E2C00159B002B60D03100059800F03FFD002849
:104E3C005ADA049B0A22013B0D930599002303982F
:104E4C0000F0D8FA109B0590002B00D150E1002304
:104E5C0039000A22039800F0CDFA069B0700002BBC
:104E6C004CDC229B022B45DD069B002B00D0E6E59B
:104E7C0031000522039800F0BDFA060001000598E8
:104E8C0000F014FD002800DCD9E5089B089A5C1C96
:104E9C00312313700D9B01330D93D4E536231A9AED
:104EAC000F9D9B1A099C28E70C9B5D1E0F9BAB4228
:104EBC0008DB5D1B0C9B002BF4DA099B0C9A9C1AEB
:104ECC0000231AE70F9B149AEB1AD31814930F951F
:104EDC00099C00250C9B10E70F9A45E7042B8DD0FD
:104EEC001C3384E71300FBE7049B0D930C9B069388
:104EFC00002BB6DD109B002B00D1FDE0002C05DD56
:104F0C0039002200039800F067FC0700049705B3F2
:104F1C007968039800F00CFA040060B9020040F2C2
:104F2C00EF212B4BFFF73DFB119E3700ADE7049BA8
:104F3C000C9E0D93F9E739003A690C31023292005C
:104F4C000C3002F009F801222100039800F044FC17
:104F5C000490089B069A0993013B9B1801220F931E
:104F6C000A9B13400E9331000598FFF77FFA390026
:104F7C0005000C90059800F099FC049A0A903100F9
:104F8C00039800F0AFFC0122C36804003035069290
:104F9C0023B90100059800F089FC069021000398C4
:104FAC0000F006FA099B229A5C1C069B13430E9A8E
:104FBC0013437BB9392D29D00A9B002B01DD0C9DA5
:104FCC003135099B1D7040E5000024400000F07F46
:104FDC00FEDF00080A9B002B04DB229A13430E9A77
:104FEC001343FBB9069B002BEBDD059901220398BB
:104FFC0000F0F2FB3100059000F058FC002803DCB7
:10500C000028DED1EB07DCD5392DD8D13923099A0C
:10501C00137023001C00013B1A78392A50D001323E
:10502C001A7012E5069B002B03DD392DEED00135ED
:10503C00C7E7099B099A1D700F9B93422BD0002345
:10504C000A220599039800F0D5F9049B05909F421C
:10505C0009D1390000230A22039800F0CBF907008C
:10506C00049009947FE7390000230A22039800F08A
:10507C00C1F9002307000A220499039800F0BAF939
:10508C000490EEE7069B0124002B00DD1C00049726
:10509C000027089B1C1905990122039800F09CFB22
:1050AC003100059000F002FC0028B2DC08B9ED07D5
:1050BC00AFD423001C00013B1A78302AFAD0C4E488
:1050CC00089A9A42A6D10D9B01330D93312313708C
:1050DC00BBE4269B002B01D0FFF799FA114BFFF78D
:1050EC00B7FA229B012B00DC56E60120149D70E6DA
:1050FC00069B002B00DCB4E6002431000598FFF77A
:10510C00B5F9089B30301855069B01340500A342B5
:10511C00B8DD00230A220599039800F06BF905907D
:10512C00EBE7C04681DF000870B505000C0079B1D3
:10513C00043C2368002B00DAE418280000F0E8F89F
:10514C001C4A13682BB963601460280000F0E8F85F
:10515C0070BDA34208D9206821188B42F3D119687D
:10516C005B6809182160EEE71A005B680BB1A3427B
:10517C00FAD911685018A0420BD1206809185018A0
:10518C0011608342E1D118685B684118116053606B
:10519C00DBE7A04202D90C232B60D6E7206821184C
:1051AC008B4203D119685B680918216063605460F5
:1051BC00CBE7C046B004002010B5034B01001868C3
:1051CC0000F026F810BDC0461800002070B50F4E38
:1051DC000D003168040011B901F0A8FE30602900FF
:1051EC00200001F0A3FE431C03D101256D422800D1
:1051FC0070BD0323C51C9D43A842F8D0291A20007A
:10520C0001F094FE0130F2D1EFE7C046AC0400206F
:10521C00F7B50322CB1C9343083305001F000C2B5E
:10522C0034D20C27B94233D8384E280000F070F82D
:10523C0033681C00002C2FD139002800FFF7C6FF63
:10524C000400431C5FD134680094009B002B4AD1AE
:10525C00002C52D023682800E3180099019301F028
:10526C0065FE019B834248D123682800FF1A390050
:10527C00FFF7ACFF013040D02368DB1923603368A3
:10528C005A68002A33D1009B336019E0002BC9DA2D
:10529C000C232B600020FEBD2168C91B20D40B29D8
:1052AC000AD9E2192760A34204D132606368116005
:1052BC00536005E05A60F9E76268A3420ED1326090
:1052CC00280000F02DF8200007220B30231D9043FE
:1052DC00C21A9842DFD01B1AA350DCE75A60EFE7E2
:1052EC0023006468A6E7009C63680093ADE71A008E
:1052FC005B68A342FBD10023DAE70C2328002B6068
:10530C0000F00EF8C6E70760DAE7C046B0040020EC
:10531C0010B50248FFF799F810BDC046A80400204C
:10532C0010B50248FFF792F810BDC046A804002043
:10533C0070B5C56906000C0075B91020FFF73CFF6D
:10534C000200F06120B96B21174B184801F014FED4
:10535C00456085600560C560F569EB688BB1F369E4
:10536C00A200DB689B181868B8B901210D00A54094
:10537C006A1D3000920001F01DFE60B14460856032
:10538C000DE021220421300001F014FEF369E860E5
:10539C00DB68002BE3D1002070BD02681A6000238B
:1053AC000361C360F8E7C0468EDF00080FE0000819
:1053BC0070B5C66905000C0076B91020FFF7FCFE2D
:1053CC000200E86120B98F21084B094801F0D4FD97
:1053DC00466086600660C6603CB1EB696268DB685B
:1053EC0092009B181A6822601C6070BD8EDF00084A
:1053FC000FE00008F7B50F0001900C001E00002014
:10540C000D6914373B68013099B251431B0C53435F
:10541C0089190E0C9B191E0C89B21B045B1808C74A
:10542C008542EFDC16B3A368AB4219DC61680198C6
:10543C000131FFF77DFF070028B90200BA210C4BA0
:10544C000C4801F099FD210022690C3102329200C6
:10545C000C3001F081FD21000198FFF7A9FF3C0001
:10546C002B1D9B00E31801355E6025612000FEBDFD
:10547C00FEDF00080FE00008F7B5150009220C004C
:10548C00070000210193083393FBF2F3083A9A4288
:10549C000ADB3800FFF74CFF010040B902001A4B41
:1054AC001A48D33101F068FD52000131EFE7089B37
:1054BC00436101230361092D18DD230009331E000C
:1054CC000093641933780A223800303BFFF792FFBF
:1054DC0001360100A642F5D12C00009B083C1C199A
:1054EC002E00019B9E4204DB0800FEBD09250A34F8
:1054FC00F6E7631B9B5D0A223800303BFFF77AFF0F
:10550C0001360100EDE7C046FEDF00080FE00008A1
:10551C004FF6FF7203000020934201D81B04103099
:10552C0080225204934201D208301B028022520581
:10553C00934201D204301B018022D205934201D246
:10554C0002309B00002B03DB0130134200D12020E2
:10555C0070470368010007221800104013420DD059
:10556C00063A0020134205D10230034203D0D34047
:10557C0010000B6070479B080B60FBE79AB20AB9EE
:10558C0010201B0CDAB20AB908301B0A1A0701D119
:10559C0004301B099A0701D102309B08DA07EBD4BF
:1055AC005B080130002BE7D12020E3E710B50C009D
:1055BC000121FFF7BDFE30B9020040F24511044B4A
:1055CC00044801F0D9FC01234461036110BDC046BD
:1055DC00FEDF00080FE00008F0B514000A6923692B
:1055EC000D0089B09A4202DB23000C001D002769D4
:1055FC002E696168BB190093A368BA19934200DA4B
:10560C000131FFF795FE844630B9020040F2621179
:10561C00434B444801F0B0FC0200BB1914329B0010
:10562C00D3180193002113000198834228D323003F
:10563C00BF00143304931435DB19B6000293AB1975
:10564C00079304230593230002991533994205D33C
:10565C000C1B153CA4080134A3000593079B9D4229
:10566C0010D3009B002B05DD019B043B01931B68B1
:10567C00002B51D063466046009A1A6109B0F0BD08
:10568C0002C3D1E72C68A4B2FCB100231700049E1E
:10569C00039308CE396806936B461B8B88B2634321
:1056AC001B180398090C1B180698000C6043401833
:1056BC00190C4118080C9BB209041943029B039066
:1056CC0002C7B342E5D8059BD0502C68240C04B318
:1056DC00002110001368049E03913168076889B299
:1056EC0061433F0CC919039F9BB2C9190F041F4397
:1056FC00076080CE43683F0C67439BB2090CFB18D4
:10570C005B18190C039102990430B142E5D8059944
:10571C00535004350432A1E7009B013B0093A0E7F2
:10572C00FEDF00080FE00008F7B5032315000700A3
:10573C000E001A401D4208D02449013A92005258DA
:10574C0000233100FFF756FE0600AD10DDB3FC69F7
:10575C007CB91020FFF730FD0200F86128B940F247
:10576C00B3111B4B1B4801F007FC446084600460C0
:10577C00C460FB699C6801934CB940F271213800FC
:10578C00FFF714FF019B04009860002303600123C2
:10579C001D420AD0310022003800FFF71DFF3100F6
:1057AC0001903800FFF704FE019E6D105DB120687A
:1057BC0038B9220021003800FFF70EFF00232060CB
:1057CC0003600400E3E73000FEBDC04624E100089E
:1057DC008EDF00080FE00008F0B50C0016002369FE
:1057EC00571185B0FB180193013300934968A368E6
:1057FC000290009A93420FDB0298FFF799FD002369
:10580C00010005001A00143160B9020040F2DE11EB
:10581C00244B254801F0B0FB01315B00E9E798000F
:10582C000A500133BB42FADBFB43DB171F40BF00BE
:10583C0023001F20C91937002269143392009A18CB
:10584C000740064228D00130C01B03908C46002034
:10585C001E68BE400643604640C08446039E01CB92
:10586C00F0409A42F4D8260015360423B24204D3F1
:10587C00131B153B9B0801339B00C85010B1019BB7
:10588C0002330093009B0298013B21002B61FFF730
:10589C008FFD280005B0F0BD01CB01C19A42FBD8A9
:1058AC00F0E7C046FEDF00080FE0000830B50B69DA
:1058BC0004690200E01A9C420FD114329B0014318F
:1058CC001400C918D218043A043915680B689D42A3
:1058DC0004D001209D4200D2023830BD9442F2D354
:1058EC00FBE70000F0B50C0087B000901100200021
:1058FC001700FFF7DBFF050088B901000098FFF7E0
:10590C0017FD020028B940F237213F4B3F4801F008
:10591C0033FB012345610361100007B0F0BD002685
:10592C00B04203DA23003C001F0001366168009886
:10593C00FFF7FEFC020018B940F24521324BE5E7B7
:10594C002369143400939B00E318210001943C005C
:10595C0002933B6914349B00E31803930300C66065
:10596C008C460020143304930593634620CBA9B2D4
:10597C000E009C4608CC2D0C99B2711A09181B0C00
:10598C000814EB1A1B18181489B21B041943059B35
:10599C0002C30593039BA342E7D83900039C15313E
:1059AC0004238C4204D3E31B153B9B0801339B005F
:1059BC000199CD1804992E00CB181F0002998E4224
:1059CC0010D3029CE91E00208C4204D32100033129
:1059DC00491B890888001B18043B196881B1009B7E
:1059EC00136199E7844602CE88B2604400140C0C13
:1059FC0004196144201489B22404214302C7DDE751
:105A0C00009901390091E7E7FEDF00080FE000087C
:105A1C0010B500240C4B0D4A0B409B18A34206DC1E
:105A2C005B421A15132A05DC80231B031341190052
:105A3C00200010BD143A01241E2A02DC8024240606
:105A4C00D4400023F3E7C0460000F07F0000C0FC08
:105A5C00F7B50600036914369B00F3181D1F2C685C
:105A6C000F0020000193FFF753FD2022121A3A6019
:105A7C0003001C4A0A2815DC0B212700091ACF4009
:105A8C003A438C4611000022AE4202D2019A083AE7
:105A9C00126815339C4063462700DA4017433800E0
:105AAC0003B0F0BD0027AE4202D2019D083D2F6825
:105ABC000B2149428C469C440B2B10D06146202371
:105ACC008C405B1A3900D9400C4322431100002250
