:020000040800F2
:1000000000200020A13000088703000889030008B1
:1000100000000000000000000000000000000000E0
:100020000000000000000000000000008B0300083A
:1000300000000000000000008D0300088F0300088E
:10004000F1300008F1300008F1300008F13000080C
:10005000F1300008F1300008F13000089903000881
:100060000000000025060008F1300008F13000080B
:10007000F1300008F1300008F13000080000000005
:10008000B3060008F130000800000000F13000085D
:10009000F13000085B060008F1300008F13000087C
:1000A000F1300008F1300008F1300008F1300008AC
:1000B000F130000800000000000000000000000017
:0C00C000F130000800000000F1300008E2
:1000CC000023C25C0133002AFBD1581E704700008C
:1000DC0002B4714649084900095C49008E4402BCCF
:1000EC007047C04603B47146490840004900095E98
:1000FC0049008E4403BC70478446100062468C460F
:10010C001900634600E0C0461FB509F0AFF800289F
:10011C0001D40021C8421FBD10B508F0F5FF4042C4
:10012C00013010BD10B509F0A1F8002801DB00204A
:10013C0010BD012010BDC04610B509F097F800287D
:10014C0001DD002010BD012010BDC04610B509F026
:10015C001FF8002801DC002010BD012010BDC04696
:10016C0010B509F015F8002801DA002010BD0120A7
:10017C0010BDC046844608006146FFE71FB507F076
:10018C0059FD002801D40021C8421FBD10B507F04D
:10019C00E7FC4042013010BD10B507F04BFD0028C4
:1001AC0001DB002010BD012010BDC04610B507F0CA
:1001BC0041FD002801DD002010BD012010BDC0460E
:1001CC0010B507F0F5FC002801DC002010BD012063
:1001DC0010BDC04610B507F0EBFC002801DA00207A
:1001EC0010BD012010BDC0461C2101231B049842E8
:1001FC0001D3000C10391B0A984201D3000A0839AC
:10020C001B09984201D30009043902A2105C401862
:10021C007047C04604030202010101010000000006
:10022C000000000040F2D41040F2D413C2F20000DF
:10023C00C2F2000310B5834205D040F20003C0F2B5
:10024C00000303B1984710BD40F2D41040F2D41310
:10025C00C2F20000C2F200031B1A9A10D90F8918BF
:10026C00491010B529B140F20003C0F2000303B1EC
:10027C00984710BD10B540F2D414C2F20004237894
:10028C0073B9FFF7CFFF40F20003C0F200032BB1AC
:10029C004AF2FC20C0F6000000E000BF01232370EE
:1002AC0010BDC04640F20003C0F2000310B54BB1C4
:1002BC0040F2D8114AF2FC20C2F20001C0F6000054
:1002CC0000E000BFFFF7C0FF10BDC04610B500F046
:1002DC0022F800F02BFC00F070FCFCE701388023C6
:1002EC005B04984215D24EF21002CEF2000250601E
:1002FC004EF60051CEF200010B6A1B021B0AC02005
:10030C00000603430B620023936007331360002045
:10031C0070470120FCE710B540F20403C2F2000361
:10032C00186840F2E833B0FBF3F0FFF7D7FF00B1E9
:10033C00FEE74EF60052CEF20002136A1B021B0AB5
:10034C00136210BD40F2F013C2F20003186040F2C9
:10035C00F013C2F200031B68002BF8D1704740F277
:10036C00F013C2F200031B6833B140F2F013C2F277
:10037C0000031A68013A1A607047FEE7FEE7FEE7D1
:10038C00FEE710B5FFF7EBFF10BD000010B5102015
:10039C0001F0BBFA012815D042F2000001F0B5FAC9
:1003AC00012800D196E044F2000001F0AEFA0128D9
:1003BC0000D1C7E048F2000001F0A7FA012800D1F3
:1003CC00F8E010BD0F3001F0ABFA40F2FC13C2F2B2
:1003DC0000031A780C231340082BF2D040F2004093
:1003EC00C4F60000082101F0EBFAE8BB40F2002350
:1003FC00C2F200039B68033B042B2ED89B00844A5B
:10040C00D3589F4640F20023C2F2000303229A60A5
:10041C0040F2FC13C2F200031A7802210A431A704C
:10042C00CFE740F20023C2F2000307229A60EFE705
:10043C0040F20023C2F2000306229A60E8E740F281
:10044C000023C2F2000305229A60E1E740F2002388
:10045C00C2F2000304229A60DAE740F20023C2F2EF
:10046C00000307229A60D3E740F20023C2F2000394
:10047C009B68033B042B26D89B00664AD3589F46A7
:10048C0040F20023C2F2000306229A60C0E740F259
:10049C000023C2F2000305229A60B9E740F2002360
:1004AC00C2F2000304229A60B2E740F20023C2F2C7
:1004BC00000303229A60ABE740F20023C2F2000370
:1004CC0007229A60A4E740F20023C2F2000307223D
:1004DC009A609DE742F2000001F022FA40F20040DF
:1004EC00C4F6000042F2000101F06AFA002800D0C4
:1004FC0067E740F2FC13C2F200031B780F22934310
:10050C00402B00D15DE740F20023C2F200039B8830
:10051C00632B10D940F20023C2F2000300229A8010
:10052C0040F2FC12C2F2000211780F230B40102192
:10053C000B43137045E740F20022C2F20002053370
:10054C009380EDE744F2000001F0EAF940F2FC136D
:10055C00C2F200031B780F229343402B00D130E7EB
:10056C0040F20040C4F6000044F2000101F028FA09
:10057C00002800D025E740F20023C2F200031B68DC
:10058C00052B10D840F20023C2F2000332221A606D
:10059C0040F2FC12C2F2000211780F230B40102122
:1005AC000B4313700DE740F20022C2F20002053B30
:1005BC001360EDE748F2000001F0B2F940F20040A0
:1005CC00C4F6000048F2000101F0FAF9002800D04E
:1005DC00F7E640F2FC13C2F200031B780F229343A0
:1005EC00402B0AD040F2FC12C2F2000211780F2309
:1005FC000B4020210B431370E3E640F2FC12C2F2D5
:10060C00000211780F230B4030210B431370D8E6F6
:10061C0018A300082CA3000810B54AF24033C0F60A
:10062C0000034AF2F041C0F60001CF22002000F096
:10063C0097F80221002001F09CF800B910BD0020B1
:10064C0001F02BF80121002001F0D8F8F6E710B5E5
:10065C0044F20040C4F20100012101F024FD012804
:10066C0000D010BD44F20040C4F20100012101F0A1
:10067C0026FD40F2FC13C2F200031B780C221A4236
:10068C0008D140F2FC12C2F200020C218B4304216F
:10069C000B43137040F2FC13C2F200031A780121D1
:1006AC000A431A70DDE710B54AF25033C0F6000366
:1006BC004AF2DC41C0F6000140F20A12002000F0C0
:1006CC004FF840F20040C4F20000022101F0EBFCB4
:1006DC00012800D010BD40F20040C4F200000221FD
:1006EC0001F0EDFC40F2F813C2F200031B6853B3A7
:1006FC0040F20040C4F20000002101F05BFF40F228
:10070C00F411C2F20001086040F2F812C2F20002C9
:10071C001368C31A4FF6FF7C63444FF6FF70B3FBAC
:10072C00F0F00404201A1B1A0B6044F24021C0F2B2
:10073C000F01B1FBF3F140F20023C2F20003D960C8
:10074C0000231360C6E740F20040C4F20000002111
:10075C0001F030FF40F2F813C2F200031860B9E761
:10076C0008B401B07047F0B585B040F2E0724E218C
:10077C00022002F009FA002500958223A122002113
:10078C00002002F0DEF94AF23C54C0F600040127C6
:10079C0002971023019300954FF6000322000421C9
:1007AC000C2002F009FB4AF26432C0F600020295FA
:1007BC000C26019600954FF6E0730821782002F084
:1007CC00FBFA220020320297019600954FF6E07357
:1007DC006621032002F0F0FA2200403202970196C3
:1007EC00009548F210037421032002F0E5FA40F260
:1007FC00E0740094602302221821022002F0CEF94A
:10080C00009460239F226021022002F0C7F948F275
:10081C00100300934E239F224E21032002F0BEF9B9
:10082C0005B0F0BDF0B587B00622002104A803F096
:10083C00D5FB4AF26C33C0F600034AF21851C0F6ED
:10084C000001BA220020FFF78BFF40F20023C2F216
:10085C0000039B68052B00D1A0E00ED8032B19D008
:10086C00042B00D0A4E04AF29C33C0F600031A68B3
:10087C0004929A8804AB9A8015E0062B00D097E07E
:10088C004AF2A433C0F600031A6804929A8804ABA7
:10089C009A8008E04AF2AC33C0F600031A6804925E
:1008AC009A8804AB9A80002502950C260196009537
:1008BC004FF6E07304AA0821782002F07DFA40F28A
:1008CC000024C2F20004E08807F018FDE621890537
:1008DC0007F0F0F943F23331C4F2530107F0EAF9AF
:1008EC00021C029601954FF6E077009704236621CF
:1008FC001B2002F005FBE06807F000FD4DF20A71C9
:10090C00C3F6837107F0D6F90021C4F27A4107F0DF
:10091C0015F8021C029601950097042366215720B6
:10092C0002F0EEFAE56040F2FC13C2F200031B7811
:10093C000F229343402B45D04AF29432C0F600026A
:10094C00002302930C210191009348F210036831AB
:10095C001B2002F031FA40F20024C2F2000423689A
:10096C0048F2A062C0F20102B2FBF3F292B20C2781
:10097C0002970026019648F2100500950523742174
:10098C00392002F024FBA2880297019600950323DC
:10099C0074216F2002F01BFB07B0F0BD4AF2B43398
:1009AC00C0F600031A6804929A8804AB9A807AE71E
:1009BC004AF26433C0F600031A6804929A8804ABB6
:1009CC009A8070E74AF29832C0F600020023029334
:1009DC000C210191009348F2100368311B2002F0A6
:1009EC00EBF9B8E770B54AF2BC33C0F600034AF233
:1009FC000851C0F60001E7220120FFF7B1FE0024E8
:100A0C00882C1FDC40F20023C2F2000322000832C3
:100A1C005200D25A40F620439A4202D8013424B2F2
:100A2C00EEE78A2C0EDC40F20023C2F20003220017
:100A3C0008325200D25A40F61F439A4202D901346E
:100A4C0024B2EEE740F2E0724E21002002F09CF856
:100A5C0040F20023C2F200030022DA80250023E0DA
:100A6C0007F04CFC0021C4F2425106F067FF002154
:100A7C00C4F2542107F01EF907F020FC02B24E21FB
:100A8C00032002F0C3F900B240F20023C2F20003CB
:100A9C00083676000022F25280B248F210024E2143
:100AAC0002F072F801352DB22E0023009C33AB42BC
:100ABC0030DB40F20023C2F200032A00083252005D
:100ACC00D05A40F61F4398420CD840F20023C2F291
:100ADC000003DB889842C3D940F20023C2F2000322
:100AEC00D880BDE7104B9C46604407F007FC002102
:100AFC00C4F2784106F022FF0021CCF2881107F0F5
:100B0C00D9F807F0DBFB02B24E21032002F07EF98C
:100B1C0000B2B9E740F22C11002000F01DFE0020BD
:100B2C0000F0AEFD70BDC046E0F3FFFF10B540F223
:100B3C000023C2F2000332221A609A800022DA608B
:100B4C00DA8007329A6040F2FC13C2F20003197883
:100B5C0008320A4040210A431A70D2B201218A435A
:100B6C001A70D2B201318A431A70D2B20A318A4356
:100B7C001A7000F0A6F900F0C5F900F030FB00F097
:100B8C005FFB00F097FB01F0DFFE0A20FFF7DAFBBA
:100B9C00FFF7E9FDFFF726FFFFF744FE00F0B9FA77
:100BAC004AF2E033C0F600034AF23451C0F60001B9
:100BBC0049220020FFF7D4FD10BDF0B583B04AF2F6
:100BCC00EC33C0F600034AF22854C0F6000453225A
:100BDC0021000020FFF7C4FD40F2FC15C2F2000515
:100BEC002A78D207D20F4AF21443C0F600030092BF
:100BFC00542221000020FFF7B3FD2A789207D20F70
:100C0C004AF22843C0F6000300925522210000202E
:100C1C00FFF7A6FD2A781207920F4AF23C43C0F662
:100C2C0000030092562221000020FFF799FD2A783C
:100C3C0012094AF25043C0F60003009257222100D9
:100C4C000120FFF78DFD4AF26043C0F600035922E4
:100C5C0021000020FFF784FD4AF28846C0F600060A
:100C6C0040F20025C2F200052B68009333005A2293
:100C7C0021000020FFF774FDAA884AF29843C0F6C1
:100C8C00000300925B2221000020FFF769FD4AF26D
:100C9C00A847C0F60007EB6800933B005C222100DC
:100CAC000020FFF75DFDEA884AF2B843C0F6000366
:100CBC0000925D2221000020FFF752FD4AF2C8434A
:100CCC00C0F60003AA6800925E2221000020FFF704
:100CDC0047FD2B6800933300602221000120FFF7B1
:100CEC003FFDAB8800933300612221000120FFF708
:100CFC0037FDEB6800933B00622221000120FFF7D7
:100D0C002FFD40F20040C4F6000040F2002100F03C
:100D1C0057FE00284BD040F2FC13C2F200031B78A4
:100D2C001B09022B00D17BE0032B00D173E0012BBC
:100D3C0021D140F20024C2F20004218844F20005C3
:100D4C00C4F20105280001F0A6F92368A2885A43D1
:100D5C006423B2FBF3F20021280001F01BFB40F2EC
:100D6C00FC13C2F2000319780F220A401A70D2B297
:100D7C0001210A431A7040F2FC13C2F200031B78E3
:100D8C009B0700D572E040F2FC13C2F200031A7804
:100D9C000C231340042B00D17EE040F2FC13C2F272
:100DAC0000031B78DB0700D580E003B0F0BD0A30F0
:100DBC00FFF7C8FA40F20040C4F6000040F20021F0
:100DCC0000F0FEFD0028A6D140F20040C4F6000061
:100DDC0040F2002100F0F4FD0028F5D040F2FC13A5
:100DEC00C2F200031A780C231340082B0AD040F2ED
:100DFC00FC12C2F2000213780C218B4308210B4326
:100E0C00137088E740F2FC13C2F200031A780C212D
:100E1C008A431A707FE700F02DF900F005F988E796
:100E2C0042F2000000F069FD44F2000000F065FDA4
:100E3C0044F20000C4F2010001F023F940F210600A
:100E4C0000F052FE90200421C00500F0B7FD40F2E6
:100E5C00FC13C2F2000319780F220A4040210A4306
:100E6C001A70D2B201210A431A7084E740F20023AF
:100E7C00C2F200039A680321002000F0FFFA40F24E
:100E8C00FC13C2F200031A7802218A431A70D2B200
:100E9C0001210A431A7076E740F2FC13C2F20003F8
:100EAC000C218A431A70FFF79DFD76E740F2FC1384
:100EBC00C2F200031A7801218A431A70FFF7B2FCC0
:100ECC0073E710B540F2125000F000FE40F21150E2
:100EDC0000F0FCFD40F2006000F0F8FD40F209600B
:100EEC0000F0F4FD092000F029FE40F2116000F042
:100EFC00EDFD40F2017000F0E9FD40F20C6000F0F5
:100F0C00E5FD10BD70B540F60004C4F600044EF2C9
:100F1C00000300220121200000F008FD4EF2000326
:100F2C0003220021200000F028FD40F20045C4F609
:100F3C0000054EF2182301220021280000F0F6FCD7
:100F4C009024E405082300220321200000F0EEFC8D
:100F5C00402300220221200000F0E8FC4023032261
:100F6C000021200000F009FD0423002202212000B2
:100F7C0000F0DCFC042303220021200000F0FDFC27
:100F8C0040F2E01300220121280000F0CFFC40F2D7
:100F9C00E01303220021280000F0EFFC40F2E011E6
:100FAC00280000F009FDA02300220221200000F0FF
:100FBC00BDFCA02301220021200000F0DEFC042255
:100FCC000021200000F003FD40220121200000F050
:100FDC00FEFCA0220021200000F0F9FC01210720DA
:100FEC0000F052FD0421012000F029FF0F21012007
:100FFC0000F025FF01220021102000F014FC01223A
:10100C00002148F2000000F00EFC102000F06DFCF6
:10101C0048F2000000F069FC102000F081FC48F25E
:10102C00000000F07DFC70BD10B50D21012000F01A
:10103C0006FF0E21012000F002FF0122002142F2E6
:10104C00000000F0F0FB0122002144F2000000F04F
:10105C00EAFB42F2000000F048FC44F2000000F011
:10106C0044FC42F2000000F05BFC44F2000000F093
:10107C0057FC10BD70B588B040F2106000F026FD32
:10108C0044F20004C4F20104200000F010FF04AD8F
:10109C00280000F07CFF40F2CF232B8031230693F5
:1010AC000026EE806E80AE8000232B73290020007A
:1010BC0000F078FF01AD280001F014F801232B801B
:1010CC006E80AE80EE802E816E812A000021200081
:1010DC0001F010F800220021200001F05BF96022E1
:1010EC000021200001F02AF900220021200001F04B
:1010FC0061F9200000F0CAFF0021200000F0CDFFB4
:10110C000121200000F0DEFF200000F0B5FF08B048
:10111C0070BDF0B587B00221152000F0B5FC02219E
:10112C00102000F0B1FC44F20047C4F20107380073
:10113C0000F0BDFE40F20045C4F20005280000F0AE
:10114C00B6FE02AC200000F022FF41F61F432380C4
:10115C0041F2873304930026E6806680A680002344
:10116C0023732100380000F01DFF200000F00FFF5A
:10117C00472323804FF6FF730493E6806680A68096
:10118C002100280000F00EFF6A460021280001F023
:10119C0069F96B461E8001236A4653809680D6807F
:1011AC000021280001F05EF9280000F06FFF0121FA
:1011BC00380000F084FF0221280000F080FF01219C
:1011CC00380000F06CFF0221280000F068FF3800A6
:1011DC0000F052FF280000F04FFF07B0F0BD10B533
:1011EC00002140F2001000F0C3F80121022000F0B1
:1011FC00BFF8002140F2004000F0BAF8002000F0E7
:10120C00FDF80121012000F00FF907220321002035
:10121C0000F034F9E0210903012000F0BBF90121B1
:10122C00012000F085F900F069F80120FFF78AF839
:10123C0000F074F800F091F8012000F0CBF910BD2B
:10124C0010B588B040F2005000F040FC002109209D
:10125C0000F01AFC002000F0D4F901AC200000F0E2
:10126C00F7F942F24C43C4F20103019300232376B5
:10127C000F4A039201226276FF32029240F2004240
:10128C000492A3762D33FF33059342F200030693A9
:10129C002100002000F00EFA002000F0E4F90020FC
:1012AC0000F0EEF90221002000F0B1FA08B010BDF8
:1012BC001002002010B588B043F20004C4F20104FF
:1012CC00200000F01DFD01A800F039FD0023029361
:1012DC0040F20412019240F2007203920322069231
:1012EC00FE32FF3204920793059301A9200000F00F
:1012FC0031FD200000F076FD08B010BD42F208432D
:10130C00C4F201031B68DB0707D442F20843C4F2A2
:10131C0001031A6801210A431A60704742F208431C
:10132C00C4F201031A6808210A431A6042F2084306
:10133C00C4F201031B681B07F8D442F20843C4F241
:10134C0001031A6804210A431A6042F20843C4F2EA
:10135C0001031B685B07F8D4704742F20843C4F2E0
:10136C0001031A6840F200110A431A60704700002A
:10137C0001B3C30508D542F20443C4F201031A6851
:10138C0040F200110A431A60430508D542F20443A7
:10139C00C4F201031A6840F200410A431A60800744
:1013AC0007D542F20843C4F201031A6802210A432A
:1013BC001A607047C30507D542F20443C4F2010317
:1013CC001A680C490A401A60430507D542F20443D7
:1013DC00C4F201031A6808490A401A608007E8D56C
:1013EC0042F20843C4F201031A6802218A431A60CC
:1013FC00DFE7C046FFFEFFFFFFFBFFFF48B142F2F5
:10140C000843C4F201031A6840F600010A431A604B
:10141C00704742F20843C4F201031A6801490A40BA
:10142C001A60F5E7FFF7FFFF012812D0022820D140
:10143C0042F23843C4F201031A680E4802401A60A3
:10144C001A6801390905C020800301400A431A605B
:10145C000FE042F22C43C4F201031A680648024022
:10146C001A601A6801390905F020000401400A438A
:10147C001A607047FFFFCFFFFFFF0FFF30B5052845
:10148C001ED842F23444C4F20104256883001B18B0
:10149C001F20984085430800984003002B4323608D
:1014AC00092933D842F21040C4F2010004684B0001
:1014BC005B18072199408C439A402243026030BD4F
:1014CC000B2810D842F23044C4F201042568830082
:1014DC001B181E3B1F2098408543080098400300B2
:1014EC002B432360DCE70F28DAD842F22C44C4F2F9
:1014FC000104256883001B183C3B1F209840854342
:10150C000800984003002B432360C9E71229D6D862
:10151C0042F20C40C4F2010004684B005B181E3B05
:10152C00072199408C439A4022430260C7E7000090
:10153C00B1B1C30708D542F20843C4F201031968DC
:10154C00802252030A431A60800708D542F20843EE
:10155C00C4F201031A6848F200010A431A6070478A
:10156C00C30707D542F20843C4F201031A680749BE
:10157C000A401A608007F2D542F20843C4F2010314
:10158C001A6803490A401A60E9E7C046FFFFEFFFFB
:10159C00FF7FFFFF01280DD0022816D142F208432D
:1015AC00C4F201031A68094802401A601A680A4317
:1015BC001A600AE042F20843C4F201031A680448B4
:1015CC0002401A601A680A431A607047FF8FFFFFC7
:1015DC00FFFFF1FFC30708D542F20843C4F2010331
:1015EC0019688022D2030A431A60800708D542F298
:1015FC000843C4F201031968802292030A431A605B
:10160C00704710B58400201880000823C4F2020330
:10161C00C218136801218B431360002313600C2242
:10162C00C4F20202821813601022C4F20202821861
:10163C00136040F2140CC4F2020C604403600433D7
:10164C00C4F202031A680E31A1400A431A6010BD9D
:10165C0000230360436003768360C36043760361B9
:10166C0083764361704783001B189B0040F2080C83
:10167C00C4F2020C63441A6820210A431A607047B2
:10168C0083001B189B0040F2080CC4F2020C63444C
:10169C001A6801210A431A60704783001B189B00CB
:1016AC0040F2080CC4F2020C63441A6801218A430C
:1016BC001A60704770B505000C00FFF7EEFFA8002C
:1016CC00401980001023C4F20203C31822681A6068
:1016DC001423C4F20203C318A2681A6021690C23F4
:1016EC00C4F20203C2184FF6FF730B40136040F2B2
:1016FC00080CC4F2020C60440268164B1A40636872
:10170C00E1680B4361690B4313430360237E012B98
:10171C0011D00368402293430360637E012B0FD0EA
:10172C000368802293430360A37E73B9036810227D
:10173C009343036070BD0368402213430360ECE7DE
:10174C000368802213430360EEE7036810221343FF
:10175C000360EFE7FFC0FFFF83001B189B0040F204
:10176C000C0CC4F2020C63444FF6FF720A401A6070
:10177C007047042918D0082928D0022938D1002311
:10178C00C4F202031A688300994011401B189B0095
:10179C0040F2080CC4F2020C63441A680223134092
:1017AC0041B34BBB002026E00023C4F202031A68AD
:1017BC008300994011401B189B0040F2080CC4F2A6
:1017CC00020C63441A6804231340E9E70023C4F2B3
:1017DC0002031A688300994011401B189B0040F2C9
:1017EC00080CC4F2020C63441A6808231340D7E7B0
:1017FC00002000E0002070470120FCE70423C4F225
:10180C0002031A68800081400A431A607047830003
:10181C001B189B0040F2080CC4F2020C63441A68BB
:10182C000A431A60704730B540F20043C4F201031A
:10183C001C68C54384431C6040F20443C4F201039A
:10184C001C6884431C6040F20843C4F201031C680A
:10185C0084431C6040F20C43C4F201031C688443B3
:10186C001C6049B101290ED140F20443C4F20103BA
:10187C0019680143196006E040F20043C4F2010309
:10188C00196801431960012A11D0022A1ED06AB9C5
:10189C0040F20843C4F201031A6802431A6040F292
:1018AC000C43C4F201031A682A401A6030BD40F29E
:1018BC000843C4F201031A682A401A6040F20C4330
:1018CC00C4F201031A6802431A60EFE740F20843BE
:1018DC00C4F201031A6802431A6040F20C43C4F2CA
:1018EC0001031A6802431A60E0E740F20043C4F2B5
:1018FC0001031A6802431A60704740F20043C4F2B5
:10190C0001031A6882431A60704740F21443C4F210
:10191C0001031B68184201D0012070470020FCE72E
:10192C0040F21443C4F2010318607047F0B5CE4680
:10193C00474680B584469146180063461F68DE68AA
:10194C00002401E00134A4B20F2C0FD80125A540CE
:10195C002842F7D0630003259D40AF430A009A400C
:10196C001743AE434A469A401643EBE763461F6063
:10197C00DE60C0BCB946B046F0BD70B5012905D0DB
:10198C004168994341608568002105E0416819432D
:10199C004160F8E7013189B20F290BD801248C4042
:1019AC002342F7D04E000324B440A5431400B440A6
:1019BC002543EFE7856070BD816170478162704798
:1019CC000369194201D0012070470020FCE7F0B5F3
:1019DC00066A456A002301E001339BB2072B0BD842
:1019EC0001249C402242F7D09F000F24BC40A64308
:1019FC000C00BC402643EFE7082301E001339BB207
:101A0C000F2B0DD801249C402242F7D01C00083C1F
:101A1C00A4000F27A740BD430F00A7403D43EDE7AF
:101A2C0006624562F0BD70B5002814DB83084EF2E7
:101A3C000015CEF20005C0339B005C590322104008
:101A4C00C000FC3216008640B44389010A40824033
:101A5C0022435A5170BD0F230340083B9B080633A9
:101A6C009B004EF6005CCEF2000C63445C680322D3
:101A7C001040C000FC3215008540AC4389010A407F
:101A8C00824022435A60E5E770B5050044B220005D
:101A9C00FFF7C9FF002C0ADB1F222A40640901232F
:101AAC0093404EF20012CEF20002A400A35070BD7F
:101ABC004FF68073C1F6FF73194001434EF6005385
:101ACC00CEF200039960BFF34F8F7047830941F248
:101ADC00000CC4F2020C63441A681F2108401E3922
:101AEC0081400A431A607047830941F2000CC4F22A
:101AFC00020C63441A681F2108401E3981408A4336
:101B0C001A607047830941F2000CC4F2020C634462
:101B1C001A681F2108401E3981400A431A60704719
:101B2C00830941F2000CC4F2020C63441A681F21B1
:101B3C0008401E3981408A431A60704741F2040301
:101B4C00C4F202031A686A490A401A6041F230036F
:101B5C00C4F202031A684FF6FF61C7F6FE710A4021
:101B6C001A6009280FD88000624B1B589F4641F21F
:101B7C003003C4F202031A685F490A401A601A68FB
:101B8C005E490A401A60704741F23003C4F2020306
:101B9C001968802252020A431A601A6857490A408F
:101BAC001A60F0E741F20403C4F202031A681A60E7
:101BBC0041F23003C4F202031A6840F200110A43E6
:101BCC001A60E0E741F20403C4F202031A681A60D7
:101BDC0041F23003C4F202031968802212060A4350
:101BEC001A601A6840F200110A431A60CBE741F2FE
:101BFC000403C4F202031A6844F200010A431A6097
:101C0C0041F23003C4F202031A6840F200110A4395
:101C1C001A60B8E741F20403C4F202031A6844F2F2
:101C2C0000010A431A6041F23003C4F2020319683E
:101C3C00802212060A431A601A6840F200110A4305
:101C4C001A60A0E741F20403C4F202031A6848F2D6
:101C5C0000010A431A6041F23003C4F202031A680D
:101C6C0040F200110A431A608DE741F20403C4F2FA
:101C7C0002031A6848F200010A431A6041F2300369
:101C8C00C4F202031968802212060A431A601A6809
:101C9C0040F200110A431A6075E741F20403C4F2E2
:101CAC0002031A684CF200010A431A6041F2300335
:101CBC00C4F202031A6840F200110A431A6062E788
:101CCC0041F20403C4F202031A684CF200010A4305
:101CDC001A6041F23003C4F2020319688022120622
:101CEC000A431A601A6840F200110A431A604AE764
:101CFC00FF3FFFFF9CA50008FFFFFEFFFFFEFFFF5D
:101D0C0010B543F60003C4F2000398420ED043F220
:101D1C000003C4F20103984207D140F20C30FFF7E4
:101D2C00F1FE40F20C30FFF7FBFE10BD40F20E400E
:101D3C00FFF7E8FE40F20E40FFF7F2FEF5E7002356
:101D4C000360436040F200728260C36003614361D0
:101D5C008361704730B5046843F240031C4002684D
:101D6C0043F640031A4045684FF2FF032B4043F201
:101D7C000005C4F20105A84215D00C6814434A684A
:101D8C002243CC6814430A6922434C6914438A6980
:101D9C00224302608A6813434360C369104A1340AC
:101DAC00C361012030BD0B6823434A681A43CB68DA
:101DBC0013430A691A434B6913438A691A438968A6
:101DCC0040F20073994203D040F60073994205D15A
:101DDC0040F600030B4013430360DEE70020E1E70D
:101DEC00FFF7FFFF0368402213430360704743F281
:101DFC000003C4F20103984204D04368DB0403D50A
:101E0C00017300E0C1607047C160FCE78368194250
:101E1C000DD143F60003C4F20003984209D151B925
:101E2C00836841F600021A4207D0002000E001202E
:101E3C0070470020FCE70020FAE70120F8E70323B5
:101E4C000B409B000F229A40D243984089080229EC
:101E5C0023D00CD8B9B101291ED10C23C4F2010333
:101E6C0019680A401A601A6802431A6014E00329C0
:101E7C0012D11423C4F2010319680A401A601A68BB
:101E8C0002431A6008E00823C4F2010319680A40EF
:101E9C001A601A6802431A6070471023C4F20103D7
:101EAC0019680A401A601A6802431A60F4E710B500
:101EBC0042F60043C4F2010398423BD042F6004381
:101ECC00C4F2010398421AD841F20003C4F2000391
:101EDC00984238D042F20003C4F2000398423BD03F
:101EEC0040F20043C4F2000398422BD140F201406F
:101EFC00FFF708FE40F20140FFF712FE22E044F229
:101F0C000043C4F2010398422FD044F60003C4F2FC
:101F1C000103984232D044F20003C4F20103984208
:101F2C0010D140F21030FFF7EDFD40F21030FFF70A
:101F3C00F7FD07E040F20B30FFF7E4FD40F20B3009
:101F4C00FFF7EEFD10BD40F20440FFF7DBFD40F261
:101F5C000440FFF7E5FDF5E740F20840FFF7D2FD3E
:101F6C0040F20840FFF7DCFDECE740F21130FFF7E0
:101F7C00C9FD40F21130FFF7D3FDE3E740F2123018
:101F8C00FFF7C0FD40F21230FFF7CAFDDAE700237D
:101F9C000380438083804FF6FF728260C38003739B
:101FAC00704700000B88836242F60043C4F20103C1
:101FBC00984205D040F20043C4F2000398420BD182
:101FCC00036870229343036003684A8813430360D9
:101FDC0003688A88134303608B68C36242F600432C
:101FEC00C4F2010398421DD040F20043C4F2000336
:101FFC00984217D042F20003C4F20003984211D069
:10200C0044F20003C4F2010398420BD044F20043A3
:10201C00C4F20103984205D044F60003C4F2010354
:10202C00984207D10368134A134003600368CA88B7
:10203C001343036042F60043C4F20103984211D0EB
:10204C0044F20003C4F2010398420BD044F2004363
:10205C00C4F20103984205D044F60003C4F2010314
:10206C00984201D10B7B0363436901221343436103
:10207C007047C046FFFCFFFF036801221343036057
:10208C007047036801229343036070470368802202
:10209C00134303607047C162704741627047C36865
:1020AC000B43C3607047C3680B400269114202D0F6
:1020BC001BB9002000E0002070470120FCE7C94359
:1020CC0001617047012904D0436C054A13404364F5
:1020DC007047436C48F2000213434364F8E7C04670
:1020EC00FF7FFFFF0023038043808380C380038135
:1020FC0043817047022900D1CDE032D8002958D055
:10210C00012900D0A1E0036A10218B43036283698B
:10211C0082490B408361036A118809010B430362F6
:10212C00036A20218B430362036A918809010B43E4
:10213C00036242F60043C4F20103984200D185E0E9
:10214C0044F20003C4F20103984200D07DE04368DE
:10215C0073490B40436043681289920013434360F8
:10216C0073E0032971D1036A6E490B400362C369A2
:10217C006A490B40C361036A118809030B4303626C
:10218C00036A69490B400362036A918809030B4394
:10219C00036242F60043C4F20103984255D14368EE
:1021AC0062490B40436043681289920113434360B8
:1021BC004BE0036A01218B430362836902318B4339
:1021CC008361036A11880B430362036A02218B4308
:1021DC000362036A91880B43036242F60043C4F224
:1021EC000103984211D044F20003C4F20103984257
:1021FC000BD044F20043C4F20103984205D044F6DC
:10220C000003C4F2010398421FD1036A04218B43DB
:10221C000362036A51880B430362036A08218B43F0
:10222C000362036AD1880B430362436840490B4045
:10223C004360436811890B43436043683D490B403D
:10224C00436043685289134343607047036A4021DB
:10225C008B430362036A518809010B430362036ACF
:10226C0080218B430362036AD18809010B4303620B
:10227C0043682B490B4043604368118989000B4329
:10228C00436043682C490B40436043685189890083
:10229C000B43436054E7036A25490B400362C3694F
:1022AC000531FF318B43C361036A118809020B436B
:1022BC000362036A1F490B400362036A9188090297
:1022CC000B43036242F60043C4F201039842BCD1B3
:1022DC00036A13490B400362036A518809020B43DA
:1022EC000362036A14490B400362036AD188090232
:1022FC000B43036243680B490B40436043681189ED
:10230C0009010B434360436807490B404360436832
:10231C00528912011343436097E7C046FFFCFFFF4D
:10232C00FFFBFFFFFFEFFFFFFFDFFFFFFFBFFFFF25
:10233C00FFFEFFFFFFFDFFFFFFF7FFFF02291FD08E
:10234C000BD8A9B101291AD1836911490B408361BA
:10235C00836912021A43826111E003290FD1C36908
:10236C000B490B40C361C36912021343C36106E0FE
:10237C00836970218B438361836913438361704745
:10238C00C36970218B43C361C3691343C361F6E70F
:10239C00FF8FFFFF02290BD004D839B1012906D1D8
:1023AC00826304E0032902D1026400E042637047B7
:1023BC00C263FCE702291FD00BD8A9B101291AD19D
:1023CC00836911490B408361836912021A4382614C
:1023DC0011E003290FD1C3690B490B40C361C369D9
:1023EC0012021343C36106E0836908218B438361A6
:1023FC008369134383617047C36908218B43C361AD
:10240C00C3691343C361F6E7FFF7FFFF02291FD02F
:10241C000BD8A9B101291AD1836911490B408361E9
:10242C00836912021A43826111E003290FD1C36937
:10243C000B490B40C361C36912021343C36106E02D
:10244C0083690C218B4383618369134383617047D8
:10245C00C3690C218B43C361C3691343C361F6E7A2
:10246C00FFF3FFFF70B5022900D172E026D80029D6
:10247C004BD0012969D1036A1025AB430362036A6F
:10248C00A024A3430362036A148824012343036238
:10249C008369424C2340836183695488240223431B
:1024AC00836183693E4C234083618369D488240310
:1024BC0023438361036A2B43036246E0032944D11F
:1024CC00036A384C23400362036A374C234003628F
:1024DC00036A1488240323430362C3692F4C2340EB
:1024EC00C361C369548824022343C361C3692C4C60
:1024FC002340C361C369D48824032343C361036AA3
:10250C0041F20004234303621FE0036A0125AB433D
:10251C000362036A0A24A3430362036A14882343F5
:10252C00036283690324A34383618369548823432F
:10253C0083618369F024A34383618369D488240174
:10254C0023438361036A2B4303629288FFF75EFF88
:10255C0070BD036A154C23400362036A144C23407C
:10256C000362036A1488240223430362C3690324AD
:10257C00A343C361C36954882343C361C369F02473
:10258C00A343C361C369D48824012343C361036A91
:10259C0040F2001423430362D7E7C046FFFCFFFF61
:1025AC00FF0FFFFFFFEFFFFFFF5FFFFFFFFEFFFFD0
:1025BC00FFF5FFFF02290FD006D859B1012901D12F
:1025CC00806B08E0002006E0032901D1006C02E0DA
:1025DC00002000E0406B7047C06BFCE7030040F24A
:1025EC000002C2F200021068C31840F2B852C2F2E4
:1025FC00000293420BD340F60002C2F20002934257
:10260C0008D840F20002C2F20002136070470120A9
:10261C004042FBE701204042F8E70120704740F2BE
:10262C00A853C2F2000316221A60012040427047E0
:10263C0010B501214942FFF7F2FFFEE770B5160015
:10264C00002405E04D1C087800E000BF013429008F
:10265C00B442F7DB300070BD01204042704742F2BB
:10266C0000034B600020704701207047002070472A
:10267C0070B50C001600002504E000E000BF2070CF
:10268C0001350134B542F8DB300070BD41F2000376
:10269C00C4F202031968802252020A431A60002213
:1026AC00013241F20003C4F202031B689B0303D402
:1026BC004FF6FF739A42F3D141F20003C4F20203C6
:1026CC001B689B0300D4FEE742F20002C4F2020234
:1026DC00136807218B4305390B43136041F2040344
:1026EC00C4F202031A681A601A681A601A681A602F
:1026FC001A684FF6FF71C7F2C2710A401A60196866
:10270C00E82252030A431A6041F20003C4F20203A6
:10271C001968802252040A431A6041F20003C4F281
:10272C0002031B689B01F8D541F20403C4F20203B7
:10273C001A6803218A431A601A6801390A431A601D
:10274C0041F20403C4F202031A680C231340082B51
:10275C00F6D1704710B5FFF799FF10BD00B583B0E7
:10276C0041F20003C4F202031A6801210A431A6001
:10277C0041F20003C4F202031B689B07F8D541F237
:10278C000403C4F202031A6880210A431A6000236E
:10279C00019302E0019B01330193019B7F2BF9D93B
:1027AC0041F20403C4F202031A6890210A431A602E
:1027BC000023019302E0019B01330193019B7F2BCA
:1027CC00F9D941F20403C4F202031A6803218A43C3
:1027DC001A6041F20002C4F2020211684FF6FF7057
:1027EC00CFF6F260014011601A680C21C0F6FF01AF
:1027FC000A401A601A684FF6FF71C7F2C2710A409C
:10280C001A6041F22C03C4F202031A680F218A43A6
:10281C001A6041F23003C4F202031A6810490A40EC
:10282C001A601A680F490A401A601A685200520856
:10283C001A6041F23403C4F202031A6801218A437C
:10284C001A6041F20803C4F2020300221A60FFF777
:10285C0081FF802000210005FFF72AF903B000BD9D
:10286C00FCFEFFFFFFFFFEFF10B5040040F200402E
:10287C00C4F600008021FFF7A1F843F20000C4F277
:10288C0001000221FFF7C2FA0028F6D043F2000043
:10289C00C4F201002100FFF7AAFA40F20040C4F68E
:1028AC0000008021FFF788F810BD10B50400000A65
:1028BC00FFF7DAFFE0B2FFF7D7FF10BD70B50400E9
:1028CC0040F20045C4F6000540212800FFF776F8D9
:1028DC0080212800FFF772F843F20000C4F20100D7
:1028EC000221FFF793FA0028F6D043F20000C4F25D
:1028FC0001002100FFF77BFA40F20044C4F600040B
:10290C0080212000FFF758F840212000FFF754F8F1
:10291C0070BDF8B507000D0016001C002A20FFF74B
:10292C00CDFF3800FFF7C1FF3000FFF7BEFF2B20B3
:10293C00FFF7C4FF2800FFF7B8FF2000FFF7B5FF33
:10294C002C20FFF7BBFFF8BD10B540F20044C4F6D5
:10295C00000420212000FFF731F86420FDF7F2FC81
:10296C0020212000FFF728F86420FDF7EBFC40F253
:10297C0000112000FFF720F86420FDF7E3FC112084
:10298C00FFF79CFF7820FDF7DDFCB120FFF796FFE9
:10299C000520FFF769FF3C20FFF766FF3C20FFF79F
:1029AC0063FFB220FFF78AFF0520FFF75DFF3C2095
:1029BC00FFF75AFF3C20FFF757FFB320FFF77EFFCE
:1029CC000520FFF751FF3C20FFF74EFF3C20FFF79F
:1029DC004BFF0520FFF748FF3C20FFF745FF3C204D
:1029EC00FFF742FFB420FFF769FF0320FFF73CFF1E
:1029FC00C020FFF763FF2820FFF736FF0820FFF702
:102A0C0033FF0420FFF730FFC120FFF757FFC02032
:102A1C00FFF72AFFC220FFF751FF0D20FFF724FF1D
:102A2C000020FFF721FFC320FFF748FF8D20FFF7A1
:102A3C001BFF2A20FFF718FFC420FFF73FFF8D2054
:102A4C00FFF712FFEE20FFF70FFFC520FFF736FF51
:102A5C001A20FFF709FF3620FFF730FF7020FFF731
:102A6C0003FFE020FFF72AFF0420FFF7FDFE2220E2
:102A7C00FFF7FAFE0720FFF7F7FE0A20FFF7F4FE38
:102A8C002E20FFF7F1FE3020FFF7EEFE2520FFF79A
:102A9C00EBFE2A20FFF7E8FE2820FFF7E5FE2620B4
:102AAC00FFF7E2FE2E20FFF7DFFE3A20FFF7DCFEF9
:102ABC000020FFF7D9FE0120FFF7D6FE0320FFF719
:102ACC00D3FE1320FFF7D0FEE120FFF7F7FE042022
:102ADC00FFF7CAFE1620FFF7C7FE0620FFF7C4FE5D
:102AEC000D20FFF7C1FE2D20FFF7BEFE2620FFF7BD
:102AFC00BBFE2320FFF7B8FE2720FFF7B5FE2720EB
:102B0C00FFF7B2FE2520FFF7AFFE2D20FFF7ACFE3E
:102B1C003B20FFF7A9FE0020FFF7A6FE0120FFF7E0
:102B2C00A3FE0420FFF7A0FE1320FFF79DFE3A2022
:102B3C00FFF7C4FE0520FFF797FE2920FFF7BEFE26
:102B4C0010BDF0B5CE4600B582B001900E00150058
:102B5C00994608AB1F884B46013B9BB2013A92B297
:102B6C00FFF7D7FE08E03800FFF79FFE0134A4B250
:102B7C00AC42F8D30136B6B24E4501D2019CF7E710
:102B8C0002B080BCB946F0BD10B514000B000200B9
:102B9C00FFF7BFFE2000FFF788FE10BDF0B5DE4644
:102BAC0057464E464546E0B585B00EAC2488A14646
:102BBC000190141AA24602915C1AA3465446002CAA
:102BCC000DDD40F201085A46002A11DD0123039362
:102BDC00DA4516DD554600270026002415E02CB1F9
:102BEC00821A9246012252429046ECE7D046EAE71E
:102BFC002AB1CB1A9B4601235B420393E8E703926D
:102C0C00E6E75D46E7E70134A4B2AC4216DC6B465E
:102C1C00198998884A46FFF7B7FF56445F44B54276
:102C2C0003DA761B019B43440193BD42EBDA7F1B15
:102C3C00029B039A944663440293E4E705B0F0BC0C
:102C4C00BB46B246A946A046F0BDF0B5DE46574697
:102C5C004E464546E0B587B082460D000391009381
:102C6C0010AB1B88029311AB1C78019412AB1B7830
:102C7C0099466708210907233B40581E8341CB180E
:102C8C0020005C430494203AD3B205935346FA18BF
:102C9C0092B22B00844663449BB2013B9BB2013A37
:102CAC0092B229005046FFF734FE564640F2000B14
:102CBC00002557E0059A5300944663449B004DF25F
:102CCC004452C0F60002944663445A469B5C9846B4
:102CDC00002428E0059B1B014CF65472C0F6000240
:102CEC00944663445A469B5C9846F1E7059A530018
:102CFC00944663441B014BF68452C0F60002944682
:102D0C0063445A469B5C9846E2E70298FFF7CDFD78
:102D1C000135EDB2B5FBF7F37B43EB1ADBB2002BBD
:102D2C0041D00134E4B2072C18D84B463BB943468A
:102D3C002341DB07E9D50098FFF7B7FDE8E74346E9
:102D4C002341DB0729D40136B6B25346F31ABB42F2
:102D5C00E7D1039B01339BB2039356465A4601328B
:102D6C0093B29B46049B9B451FD2019B0C2BA1D07D
:102D7C00019B102BAED0019B182BB7D0019B202BA5
:102D8C0013D1059B9B014AF2C452C0F60002944633
:102D9C0063445A469B5C98469AE7009A0399300024
:102DAC00FFF7F2FECFE71D00D8E707B0F0BCBB463B
:102DBC00B246A946A046F0BDF0B5D6464F464646AB
:102DCC00C0B584B006000F0014009A460CAB1B88EB
:102DDC0099460DAB1D780EAB1B7898460DE043461B
:102DEC00029301954B460093534639003000FFF790
:102DFC002CFF68083618B6B201342278002AEED1BE
:102E0C0004B0E0BCBA46B146A846F0BD70B582B07D
:102E1C00050092B2891A8EB240F20803C2F2000386
:102E2C001B7843B940F26A43C2F2000318889E280B
:102E3C0017D91A2441E040F20803C2F20003002221
:102E4C001A7040F2E0723100FFF79EFE40F26A43C6
:102E5C00C2F200031D8040F26843C2F200031E80E0
:102E6C003DE0013080B25E2302001A21FFF751FDD4
:102E7C001A2403E00020FFF718FD01345E2CF9DD65
:102E8C0040F26A44C2F200042088421C92B240F222
:102E9C006845C2F2000529884FF6E07300933300B1
:102EAC00FFF77CFE2388013323802E8017E0A1B22C
:102EBC0000222800FFF768FE01345E2CF7DD40F29B
:102ECC00E07231002800FFF75FFE40F26A43C2F265
:102EDC0000031D8040F26843C2F200031E8040F2E2
:102EEC006A43C2F20003188802B070BD02000120D0
:102EFC0001E0504319004B1EDBB20029F9D1704799
:102F0C00F0B5DE4657464E464546E0B587B007005D
:102F1C000491101C1E0010AB1B88059311AB1B8871
:102F2C009B4612AB1B7898465B089A460021C4F26C
:102F3C00C82104F0BFFE04F07BFC83B29946002547
:102F4C003B0057469A4611E0380068433034E2B2F1
:102F5C00504480B200230293434601935B46009396
:102F6C00059B0499FFF771FE0135EDB2B54227D2EE
:102F7C00711BC9B20139C9B20A20FFF7B7FFB9FBFF
:102F8C00F0F00A23B0FBF3F39C00E4186400041B7C
:102F9C00E4B2B31E9D42D7D118007843504480B29E
:102FAC0000230293434601935B460093059B2E221C
:102FBC000499FFF74AFE0135EDB20136B6B2C3E70C
:102FCC0007B0F0BCBB46B246A946A046F0BDF0B572
:102FDC00DE4657464E464546E0B587B0049005910F
:102FEC0017001D0010AB1B889B4611AB1B889A4623
:102FFC0012AB1B7899465B0898460026002425E006
:10300C0040466043049B9C46604480B2002302937C
:10301C004B460193534600935B4620220599FFF7DC
:10302C0014FE11E03030C2B240466043049B9C4613
:10303C00604480B2002302934B46019353460093A5
:10304C005B460599FFF701FE0134E4B2AC4219D29C
:10305C00291BC9B20139C9B20A20FFF747FFB7FBD8
:10306C00F0F00A22B0FBF2F293009B185B00C01A3E
:10307C00C0B2002ED6D16B1E9C42D3DA0028BFD032
:10308C000126CFE707B0F0BCBB46B246A946A04626
:10309C00F0BD00000D488546002103E00C4B5B5849
:1030AC00435004310B480C4B42189A42F6D30B4A4E
:1030BC0002E0002313600432094B9A42F9D3FFF764
:1030CC004DFB00F0DDFFFDF701F9FEE700200020CD
:1030DC00A8DE000800000020D4010020D40100204C
:1030EC00B8050020FEE7F0B51F00002316008BB0DA
:1030FC009F4204DA802109067B181F002D23129AA7
:10310C00149D1370202303229D43462D07D02B00C2
:10311C00453B59424B411099013ACB18109309ABDE
:10312C00049308AB0393139B00920293109B320001
:10313C0001933B0001F066F80400472D1AD1119B56
:10314C00DB0710D5109BC318079300220023300017
:10315C003900FCF7E1FF08B1079B09933022099B6A
:10316C0007998B421FD32000099B159A1B1B1360D8
:10317C000BB0F0BD109BC3180793462DE5D1037817
:10318C00302B0BD10022002330003900FCF7C4FF98
:10319C0020B90123109A9B1A139A1360139B079A58
:1031AC001B68D318D0E7591C09911A70D7E7F7B5EB
:1031BC002B230270002901DA49420233437009299A
:1031CC0026DD6B46DA1D15000A2791FBF7F63B004E
:1031DC007343CB1A30331400013A13700B003100D7
:1031EC00632BF2DCA61E3031831C317032001900C7
:1031FC00954208D80022B54202D309326A44121B08
:10320C009B18181AFEBD177801320F700131EFE7C9
:10321C00302330318370C170031DF2E7F0B597B0E5
:10322C000D000A921C9C0B93099000F0DFFE0368C2
:10323C0018000D93FCF744FF00230F9014932B7E82
:10324C0007220C932B680E930E992368C90542D55F
:10325C009B1893431A000832226001221E685F6893
:10326C007B005B0811931096AE64EF641098119973
:10327C00A54B524206F014FF00282ED1109811993C
:10328C000122A14B5242FCF757FF30BB0022002316
:10329C0030003900FCF746FF18B12B002D224333C8
:1032AC001A700C9B472B2AD8984F032300240E9A94
:1032BC002B6101339A432A600B9B290000930998D8
:1032CC000A9B15AA00F0E2F9013000D09EE0012023
:1032DC00404217B0F0BD0733BBE732003B00300073
:1032EC00390006F0DDFE70B1002F03DA2B002D2221
:1032FC0043331A700C9B472B03D8854FD5E7854F6A
:10330C00D3E7854FD1E720220C9C6B6894435A1C61
:10331C0046D107336B6040F200430E9A0AA913435F
:10332C0000222B60069214AA05920C9A0193049227
:10333C0013AA03922322521802926B683200009354
:10334C0009983B00FFF7CFFE139A0700472C2DD1AD
:10335C00D31C02DB6B689A4245DD0C9B023BDBB253
:10336C000C93280013990C9A013950301391FFF7E4
:10337C001EFF149A040013182B61012A02DC2A6820
:10338C00D20701D501332B6123230AAA9B181B7882
:10339C00002B00D190E72B002D2243331A708BE7C2
:1033AC00472CB8D1002BB6D10133B3E70C9B652B5E
:1033BC00D7D90C9B662B18D16B68002A08DD2A61C3
:1033CC0013B92968C9070AD501339B182B6106E08C
:1033DC001BB901222968114200D09A1C2A61139B47
:1033EC000024AB65D0E767230C931399149B994287
:1033FC0006DB2B682961DB07F1D501312961EEE78A
:10340C0001220029E1DC9218521ADEE72A685305E2
:10341C0008D42B693A000A9909980B9CA0470130F3
:10342C0028D154E70C9B652B00D8DAE0A86CE96C2A
:10343C0000220023FCF770FE98B30123374A0A9947
:10344C0009980B9CA047013000D140E7149E139BB8
:10345C00B34202DB2B68DB070CD50B9C0F9B0D9A40
:10346C000A990998A0470024013000D12FE7731E58
:10347C00A3420ADC2B689B0700D505E1159BE86885
:10348C00984200DB25E7180023E72A0001230A995C
:10349C0009980B9F1A32B847013000D117E7013455
:1034AC00E5E7139B002B3BDC01231C4A0A99099886
:1034BC000B9CA047013000D109E7149E139B3343AA
:1034CC0013B92B68DB07D5D50F9B0D9A0A99099870
:1034DC000B9CA0470023013000D1F8E60C93139B02
:1034EC000C9A5B42934201DC330093E72A000123E0
:1034FC000A9909980B9C1A32A047013000D1E6E6D4
:10350C000C9B0133EAE7C046FFFFEF7FB8D90008F8
:10351C00C0D90008BCD90008C4D90008C8D9000813
:10352C00149BAE6D0C939E4200DD1E00002E31DC10
:10353C00F3430024DB1733400E93AE6D0E9BF31A4E
:10354C00A34230DC139B0C9A9A4238DC2B68DB07C5
:10355C0035D4139C0C9B0C9A9B1B141B9C4200DDBA
:10356C001C00002C34DCE3430026DB171C40139BAF
:10357C000C9AD31A1B1BB34200DC7BE72A000123F5
:10358C000A9909980B9F1A32B847013000D19EE670
:10359C000136ECE733003A000A9909980B9CA047D6
:1035AC000130C5D193E62A0001230A9909980B9E94
:1035BC001A32B047013000D189E60134BDE70F9BC8
:1035CC000D9A0A9909980B9CA0470130C1D17EE64F
:1035DC00BA1923000A9909980B9EB0470130C2D141
:1035EC0075E6149B0C93012B02DC01231A4238D094
:1035FC0001233A000A9909980B9EB047013000D17B
:10360C0065E60F9B0D9A0A9909980B9EB0470130FD
:10361C0000D15CE6A86CE96C0C9B0022013B0C937E
:10362C000023FCF779FDD0B90C9B7A1C0A990998F8
:10363C000B9EB04701300ED149E62A0001230A99AE
:10364C0009980B9F1A32B847013000D13FE601367A
:10365C000C9B9E42F1DB2A0023005032DBE6002655
:10366C00F6E73A00E2E72A0001230A9909980B9E33
:10367C001932B047013000D129E60134EB68159AB4
:10368C009B1AA342EFDCF9E60024F7E7F7B5160026
:10369C0001938A680B690C000090934200DA1300C6
:1036AC0022003360433212780AB10133336023684D
:1036BC009B0602D53368023333602268062315005B
:1036CC001D401A4227D0230043331B785A1E9341C6
:1036DC002268920630D4220001990098089D43324A
:1036EC00A847013025D00622236800251340042B5F
:1036FC0005D13368E568ED1AEB43DB171D40A36871
:10370C002269934201DD9B1AED180026B54220D1A7
:10371C00002010E00135E36832689B1AAB42D2DD21
:10372C002200012301990098089F1932B8470130F3
:10373C00F0D101204042FEBD3020E1184331087029
:10374C0021005A1C45310978A218433202331170FA
:10375C00C1E72200012301990098089F1A32B8474B
:10376C000130E6D00136D1E7F0B50E0089B00492F5
:10377C00039005930C00097E0E9A4336782907D8DE
:10378C00622909D8002900D1B7E0582900D1A0E05E
:10379C0025004235297022E0080063381528F7D837
:1037AC00FCF7A0FC16001F00F6FFF6FFF6FFF6FF75
:1037BC001F00F6FFF6FFF6FFF6FF9E0034004300F5
:1037CC00F6FFF6FFAF00F6FF3400F6FFF6FF4700FA
:1037DC00250013684235191D1B6811602B700123DD
:1037EC009CE013682068191D050609D51B6811603B
:1037FC00002B02DA2D225B4232700A225B4832E047
:10380C001B6811604006F3D51BB2F1E71068256800
:10381C0008C82F0602D46D0600D59BB21060082292
:10382C0052486F291BD00A2219E0202321680B4330
:10383C00236078214E4823004533197015682168A0
:10384C0008CD0F0602D44F0600D59BB21560CA07EF
:10385C0002D520220A432260002B3CD010222100EA
:10386C00002543310D706168A160002908DB40F22E
:10387C00040C674625681943BD432560350061B1CA
:10388C003500B3FBF2FC61465143591A415C013DD2
:10389C002970190063468A42F3D9082A09D1236892
:1038AC00DB0706D5626823699A4202DC3023013DAE
:1038BC002B70761B2661059B210000930398049BBB
:1038CC0007AAFFF7E3FE01302CD10120404209B0DA
:1038DC00F0BD2648AFE7202122688A432260BDE76D
:1038EC0013682568181D616910601B682F0601D5C7
:1038FC00196002E06D06FBD51980002335002361A9
:10390C00D9E71368191D11601D6800212800626831
:10391C0000F0E1FB08B1401B606063682361002389
:10392C003370C8E72A00236904990398059DA847BA
:10393C000130CAD023689B0715D4079BE0689842D6
:10394C00C5DA1800C3E72200012304990398059EE9
:10395C001932B0470130B8D00135E368079A9B1A89
:10396C00AB42F0DCE9E70025F7E7C046CAD900080E
:10397C00DBD90008F0B58BB01600039040F25C1256
:10398C00002007938B680C00591E0690914205D9B4
:10399C005E3BFF3B069340F25D13A36040F28073E5
:1039AC00226800251343236023001C331F0004935B
:1039BC0002950995089501950595A26852B1336851
:1039CC001B784E2B43D81800402B2BD82B38C1B268
:1039DC000E2929D9019B1BB12368A34A13402360EC
:1039EC00029B013B012B00D9F9E040F27C15049BB2
:1039FC009F4200D9E9E001200BB0F0BD18006138FE
:103A0C000D28E7D8FCF76EFB8500E6FFE6FFE6FF26
:103A1C00B600A200E6FFE6FF8B00E6FFE6FFE6FF3E
:103A2C00E6FF69004138EBE70E28D3D8FCF75AFBC8
:103A3C004D00D2FF4D009800D2FF20003F003F0008
:103A4C003F003F003F003F003F003F003F006E2B18
:103A5C0009D8602BD2D8542B7DD0592BBAD1072D35
:103A6C00B8D108252EE0742B75D0792BF7D0B1E79F
:103A7C002168C8051BD580239943019B2160013324
:103A8C000193069B1BB1013B01320693A260A36814
:103A9C00013BA3602369013323617368013B7360AD
:103AAC00002B00DC87E033680133336085E7029A32
:103ABC005119002900D08DE70D0022686B48029146
:103ACC00024022603B700137E1E7802122680A4204
:103ADC0000D17FE78A432260F4E7029A72B9019A17
:103AEC007AB9226840F2007110000840884208D16F
:103AFC005F490A40226001220292E3E7029A022AFD
:103B0C0057D0012D02D0042D00D063E70135EDB262
:103B1C00D8E7029A012A00D05CE70222ECE785B9CB
:103B2C00019A002A00D057E7226840F20071100079
:103B3C000840884200D01AE14D4901350A40226004
:103B4C00C0E7FD21EA1E0A42E0D043E7022D00D077
:103B5C0040E70325B6E7062D00D03BE70725B1E784
:103B6C002268910500D435E742490A402260019A47
:103B7C000592A7E740F2005140F200402268114044
:103B8C00814206D0024200D124E70199002900D1DC
:103B9C00EDE0910504D4019905980997091A08914B
:103BAC0033490A4040F280110A43226000220192FC
:103BBC0088E70322A0E740F280133100E358039812
:103BCC009847002800D1F8E604E7013F635932001A
:103BDC003978039898472369013B236107E76B1EEB
:103BEC00062B0ED80297022D20D9EB1BDBB20693C5
:103BFC00029B069A9B18DBB2032B27D1033DEDB237
:103C0C007F1B2368DA0552D55B0535D540F27C1550
:103C1C00049B9F4200D8EEE6013F6359320039788D
:103C2C00039898472369013B2361F1E740F27C1527
:103C3C00049B9F4200D8DEE6013F6359320039787D
:103C4C00039898472369013B2361F1E7029B3200FB
:103C5C00013B1978029340F27C130398E358984780
:103C6C002369013B2361C3E7FFFEFFFF7FFEFFFFDC
:103C7C007FF8FFFF7FFDFFFF23697D1E2978013B45
:103C8C00236165290CD045290AD040F27C133200FF
:103C9C00E358039898472369BD1E013B297823619B
:103CAC0040F27C133200E358039898472F002168A8
:103CBC0010230A001A40194201D000209CE640F261
:103CCC0000613A7023680B4040F200418B421BD1DB
:103CDC00059B019A01999A1A8B4221D100220499D1
:103CEC00039802F011FC079B226806000F001B686A
:103CFC00910722D507991A1D0A601B681E605F6028
:103D0C00E3680133E360D8E7089B002BE6D0099BFE
:103D1C000398591C0A2302F093FC089B099FC21AB2
:103D2C0023007033FF339F4202D327006F37FF37D6
:103D3C003800104900F0E4F8D0E7191D520702D5FD
:103D4C00079A1160D9E7079A300011601D6832009C
:103D5C003B00390006F0A4F920B1074800F0C6F981
:103D6C002860CDE73000390006F03EFAF8E7002372
:103D7C00019335E6ECD900082FDB0008002310B5C1
:103D8C00040003604360836081814366C2810361E8
:103D9C0043618361190008225C3000F01FF90B4B62
:103DAC00246263620A4BA3620A4BE3620A4B2363ED
:103DBC000A4B9C4205D00A4B9C4202D0094B9C42B8
:103DCC0003D12000583000F083F910BD513F00089A
:103DDC00793F0008B13F0008DD3F00086C0400206B
:103DEC00D40400203C05002010B5034A03490448C4
:103DFC0000F06AF810BDC0460C000020156A0008DF
:103E0C001C00002041680B4B10B50400994201D0F6
:103E1C0002F0FAFDA168084B994202D0200002F092
:103E2C00F3FDE168054B994202D0200002F0ECFD55
:103E3C0010BDC0466C040020D40400203C050020BA
:103E4C0010B5094B094A04211A6009480022FFF7F2
:103E5C0095FF012209210748FFF790FF022212214A
:103E6C000548FFF78BFF10BDA4050020F53D0008A9
:103E7C006C040020D40400203C05002010B502483E
:103E8C0000F027F910BDC046AD05002010B5024862
:103E9C0000F020F910BDC046AD05002010B504009F
:103EAC00FFF7ECFF236A13B1FFF7F0FF10BD044BD3
:103EBC002362044B1B68002BF6D1FFF7C1FFF3E71D
:103ECC00113E0008A4050020F7B514000026009050
:103EDC000191A5686768013F04D52468002CF8D1CE
:103EEC003000FEBDAB89012B08D90E22AB5E01332D
:103EFC0004D029000098019B984706436835EAE7EF
:103F0C000EB410B500240C499DB01FAB0290069066
:103F1C000791049109480A4904CB0591006802A94C
:103F2C0001931B9402F0F2FB029B1C701DB010BCA1
:103F3C0008BC03B01847C046FFFFFF7F18000020E5
:103F4C000802FFFF70B50C000E25495F00F074F8F5
:103F5C00002803DB636D1B18636570BDA389024ADF
:103F6C001340A381F9E7C046FFEFFFFFF8B51F0030
:103F7C008B8905000C001600DB0505D50E23C95EE8
:103F8C000022022300F046F8A389054A28001340BA
:103F9C00A38132000E23E15E3B0000F05FF8F8BD18
:103FAC00FFEFFFFF70B50C000E25495F00F032F8F3
:103FBC00A389421C03D1054A1340A38170BD41F271
:103FCC0000021343A3816065F8E7C046FFEFFFFFD3
:103FDC0010B50E23C95E00F00DF810BD0300821859
:103FEC00934200D1704719700133F9E700487047CC
:103FFC0058010020002370B5054D040008002B600B
:10400C00FEF72AFB431C02D12B6803B1236070BD61
:10401C00A805002070B50400080011001A00002348
:10402C00044D2B60FEF722FB431C02D12B6803B11D
:10403C00236070BDA805002070B5040008001100B5
:10404C001A000023044D2B60FEF712FB431C02D117
:10405C002B6803B1236070BDA805002070B5040067
:10406C00080011001A000023044D2B60FEF7E6FA3D
:10407C00431C02D12B6803B1236070BDA80500203E
:10408C0070B500250E4C0F4BE41AA410A54209D1B3
:10409C00002506F02DF90C4C0C4BE41AA410A5428B
:1040AC0007D170BD074AAB009B181B6898470135B8
:1040BC00ECE7064AAB009B181B6898470135EEE706
:1040CC00A0DE0008A0DE0008A4DE0008A0DE0008C8
:1040DC00704770477047C9B28218904201D10020D6
:1040EC00704703788B42FBD00130F6E700487047ED
:1040FC000000C07FF0B503690C69050089B0002091
:10410C00A3426ADB0B00013C1433A00004931B1880
:10411C0005932B00143318180193059B02681B6838
:10412C000133B2FBF3F602969A422FD3019B049F04
:10413C009C4600230393079308CF029A9EB25643E2
:10414C00039A1B0CB618029A5343320C9B181A0C88
:10415C00039262461268B6B206926A46128B9BB202
:10416C00921B079E9219069E360CF31A16149E1972
:10417C0033140793634692B23604324304C39C460D
:10418C00059BBB42D8D20368002B2BD0280001F032
:10419C00D1F9002820DB0027019E0499336801C95E
:1041AC0003936B469B8982B29A1A039BD219000C1B
:1041BC001B0C1B1A10141B181F1492B21B041A434D
:1041CC00059B04C68B42E9D2019AA300D3181A6846
:1041DC008AB1029B01330293029809B0F0BD0368C7
:1041EC0023B9013C019B04388342F8D32C61CDE701
:1041FC001A6822B9013C019A043B9A42F8D32C610B
:10420C00E7E70000F0B514001D00C6699DB00A94E4
:10421C000B95259F03907EB9102000F011FE039B97
:10422C000200D86120B9EF21BF4BC04802F05EFC00
:10423C00466086600660C660039BDB69196859B1ED
:10424C005A68012393404A608B60039800F0F4FE97
:10425C000022039BDB691A60002D19DA01233B60F5
:10426C006B005B080B930B9FB14BB14A3B409342E5
:10427C001DD142F20F73249A13603B031B0B234393
:10428C00002B01D100F069FD269B63B9A94B23E0FB
:10429C0000233B60E7E7A84B0893A84B269A1360D2
:1042AC0008981DB0F0BDA34B0893A54BF6E70A9AEE
:1042BC000B9B129213931298139900220023FBF775
:1042CC002BFF060050B10123249A1360269B13B1D7
:1042DC009C4B269A13609C4B0893E1E71AAB019315
:1042EC001BAB00930398129A139B01F041FA7A00CE
:1042FC00520D0590002A79D0139B18961903934BF5
:10430C00090B0B4392495718129813991900002264
:10431C00904B05F0F3FA904A904B05F015F8904A43
:10432C00904B04F033F8040038000D0005F00CFF3E
:10433C008D4A8E4B05F008F802000B002000290076
:10434C0004F024F804000D0005F0C6FE00220490D1
:10435C00002320002900FBF7E5FE58B1049805F076
:10436C00F3FE2B002200FBF7D7FE43425841049B7F
:10437C001B1A049301231593049B162B0FD8129828
:10438C0013997B4ADB009B181A685B68FBF7CAFE23
:10439C00002849D0049B013B049300231593002271
:1043AC001A9B0992DB1B5A1E40D50122D31A099382
:1043BC0000230E93049B002B3ADB049A0E9B94462D
:1043CC0063440E93002314920F93229B0124092B18
:1043DC0062D8052B02DD0024043B2293229B981EFD
:1043EC00032863D8FBF774FE54563A2D1B9B1A9E78
:1043FC00F61840F23243F218202A10DD40239B1AA3
:10440C009F4040F21243F318DC403800204305F083
:10441C00C7FE0122574B771ECB18189276E7202344
:10442C0020009B1A9840F2E71590B8E70E92C1E76E
:10443C00099B049A9B1A099353420F9300231493DC
:10444C00C3E70123239A10939446049B6344069379
:10445C0001330C93002B08DC012306E0012310939D
:10446C00239B002B26DD06930C93039A0021D06925
:10447C000422150014359D4221D94160039800F0A7
:10448C009BFD0890F0B9020040F2AF113A4BCCE61C
:10449C000023E4E70023D5E7002310942293013B8B
:1044AC00002206930C9313332392DEE7012310931F
:1044BC00023BF5E701231A0006930C93F4E7013154
:1044CC005200D6E7039B089ADB691A600C9B0E2BF3
:1044DC0000D9D1E0002C00D1CEE0049B002B60DD94
:1044EC000F2223491340DB005B181E685F68049B96
:1044FC0002241D11DB050AD5129813991F4B154088
:10450C001A6A5B6A04F0C4FA0A900B9101341B4BD3
:10451C000D93ADBB0A980B9932003B0004F0B8FA2E
:10452C000A900B9157E0C046FED9000815DA000836
:10453C000000F07FFAD90008F1D90008F9D9000879
:10454C00FDD90008C9D90008C8D900080000F03FFF
:10455C0001FCFFFF0000F83F61436F63A787D23F68
:10456C00B3C8608B288AC63FFB799F501344D33F56
:10457C00C8DB0008000010FE6EDA0008A0DB0008A3
:10458C0001231D4209D0E4180D9B30001A685B68AA
:10459C00390004F0D9FE06000F000D9B6D10083396
:1045AC00B6E7049B0224B3B1129813995D420F2312
:1045BC00D34A2B40DB009B181A685B6804F0C4FEDE
:1045CC00012700230A900B91CE4E2D11002D00D007
:1045DC0093E0002BA4D10A9E0B9F159B002B00D1BE
:1045EC0096E0002230003900C74BFBF79BFD0028FA
:1045FC0000D18DE00C9B002B00D189E0069B002B99
:10460C0036DD049B0022013B0D933000BF4B39007B
:10461C0004F09AFE0A900B91069B01342000119332
:10462C0005F092FD0A9A0B9B04F08EFEB84B00220B
:10463C0003F0ACFEB74B0600CF18119B002B6BD1CF
:10464C000A980B990022B44B05F058F932003B0044
:10465C0004000D00FBF77AFD002800D0A8E28021B1
:10466C0009067B18320020002900FBF75BFD40BBDC
:10467C00129B139C0A930B941B9B002B00DA71E189
:10468C00049A0E2A00DD6DE1D3009D4A9B185C68EC
:10469C001B6806930794239B002B00DBE6E00C9B26
:1046AC00002B00DDE2E063B90698079900229A4BD3
:1046BC0004F04AFE0A9A0B9BFBF752FD002800D12E
:1046CC0079E200263700239B089CDB430D9304976B
:1046DC0000273100039800F0AFFC049B002B00D1A5
:1046EC00BAE02FB19F4203D03900039800F0A4FC2C
:1046FC000499039800F0A0FCAEE03D4205D032686E
:10470C00736804F021FE3B0001346D1008365DE740
:10471C00049B0D930C9B81E7119B794A013BDB00B9
:10472C0010999B181A685B6800294CD000207B49B3
:10473C0004F0AEF932003B0005F0E0F8089A0600F0
:10474C0094460F00089B1693119B634411930A988F
:10475C000B9905F0C1FC050005F0F6FC02000B00FE
:10476C000A980B9905F0CAF8169B30355C1C1D7025
:10477C0032003B000A900B91FBF7D4FC00286BD164
:10478C000A9A0B9B0020604905F0B8F832003B00F8
:10479C00FBF7C8FC002800D0C4E0119BA34200D159
:1047AC0066E7002230003900584B04F0CDFD0022A2
:1047BC0006000F000A980B99544B04F0C5FD169493
:1047CC000A900B91C3E73000390004F0BDFD089D41
:1047DC00119A2B00944616901791634419930A98DA
:1047EC000B9905F079FC040005F0AEFC0B000200FF
:1047FC000A980B9905F082F83034199B2C7001350E
:10480C0006000F00AB422AD116981799089B119CF1
:10481C009C460022414B644403F0B8FD02000B009F
:10482C0030003900FBF792FC002800D07AE0169A91
:10483C00179B0020394905F061F802000B0030008D
:10484C003900FBF76FFC002800D111E72300013C75
:10485C002278302AFAD01C000D9B049340E00022F1
:10486C002A4B04F071FD0A900B91B8E70C9B089D44
:10487C00013B5B190C930A9E0B9F069A079B300019
:10488C00390004F005F905F027FC099005F05CFCF3
:10489C00069A079B04F058FD02000B00300039000B
:1048AC0005F02CF82B00099A013530321A700C9A4D
:1048BC002C009A4249D102000B0003F067FD069AC6
:1048CC00079B06000F00FBF741FC48BB069A079BB1
:1048DC0030003900FBF720FC10B1099BDD071FD419
:1048EC000599039800F0A8FB00232370049B249ADD
:1048FC0001331360269B002B00D1D1E41C60CFE464
:10490C00C8DB0008A0DB00080000F03F00002440DA
:10491C0000001C400000C0FC000014400000E03F00
:10492C00049B0D9323001C00013B1A78392A08D1F3
:10493C00089A9A42F7D10D9A089901320D923022B9
:10494C000A701A7801321A7086E70022C04B04F004
:10495C00FBFC0022002306000F00FBF7DDFB002808
:10496C008BD0BDE7109F0F9D099CAFB1229A012AF5
:10497C0000DDDDE0189A002A00D1D3E040F233428A
:10498C009B18099A0121D21809920E9A0398D318F0
:10499C000E9300F04FFC070074B10E9B002B0BDD47
:1049AC000E9A2300944200DD1300099AE41AD21ADD
:1049BC0009920E9AD31A0E930F9BF3B1109B002BF6
:1049CC0000D1CDE085B139002A00039800F0F0FC4D
:1049DC00059A01000700039800F042FC06000599B7
:1049EC00039800F029FB05960F9B5A1BAB4204D091
:1049FC000599039800F0DCFC05900121039800F068
:104A0C0019FC149B0600002B00D1AEE11A0001002A
:104A1C00039800F0CDFC229B06000025012B13DC33
:104A2C000A9B00256BB90B9B1B0353B9894B0B9A43
:104A3C00134206D0099B0135013309930E9B0133B8
:104A4C000E93149B012043B1336903339B00F3187D
:104A5C00586800F0A1FB2023181A0E9B18180200AE
:104A6C001F231A40184200D180E001339B1A042BFB
:104A7C0078DD1C239B1A099AE418D21809920E9A15
:104A8C00D3180E93099B002B05DD1A00059903988A
:104A9C0000F0E6FC05900E9B002B05DD31001A00A2
:104AAC00039800F0DDFC0600159B002B60D0310054
:104ABC00059800F03FFD00285ADA049B0A22013BBE
:104ACC000D9305990023039800F0D8FA109B0590DC
:104ADC00002B00D150E1002339000A22039800F08A
:104AEC00CDFA069B0700002B4CDC229B022B45DDEC
:104AFC00069B002B00D0E6E531000522039800F060
:104B0C00BDFA06000100059800F014FD002800DC39
:104B1C00D9E5089B089A5C1C312313700D9B01335B
:104B2C000D93D4E536231A9A0F9D9B1A099C28E7FE
:104B3C000C9B5D1E0F9BAB4208DB5D1B0C9B002B83
:104B4C00F4DA099B0C9A9C1A00231AE70F9B149A0F
:104B5C00EB1AD31814930F95099C00250C9B10E7A6
:104B6C000F9A45E7042B8DD01C3384E71300FBE729
:104B7C00049B0D930C9B0693002BB6DD109B002B16
:104B8C0000D1FDE0002C05DD39002200039800F077
:104B9C0067FC0700049705B37968039800F00CFADA
:104BAC00040060B9020040F2EF212B4BFFF73DFBF4
:104BBC00119E3700ADE7049B0C9E0D93F9E739006D
:104BCC003A690C31023292000C3001F07FFF012265
:104BDC002100039800F044FC0490089B069A09936A
:104BEC00013B9B1801220F930A9B13400E9331003B
:104BFC000598FFF77FFA390005000C90059800F036
:104C0C0099FC049A0A903100039800F0AFFC012241
:104C1C00C36804003035069223B90100059800F0F2
:104C2C0089FC06902100039800F006FA099B229A51
:104C3C005C1C069B13430E9A13437BB9392D29D068
:104C4C000A9B002B01DD0C9D3135099B1D7040E545
:104C5C00000024400000F07F6EDA00080A9B002B55
:104C6C0004DB229A13430E9A1343FBB9069B002BC9
:104C7C00EBDD05990122039800F0F2FB3100059061
:104C8C0000F058FC002803DC0028DED1EB07DCD553
:104C9C00392DD8D13923099A137023001C00013BFC
:104CAC001A78392A50D001321A7012E5069B002B63
:104CBC0003DD392DEED00135C7E7099B099A1D702C
:104CCC000F9B93422BD000230A220599039800F0E6
:104CDC00D5F9049B05909F4209D1390000230A2283
:104CEC00039800F0CBF90700049009947FE7390092
:104CFC0000230A22039800F0C1F9002307000A22BE
:104D0C000499039800F0BAF90490EEE7069B01248D
:104D1C00002B00DD1C0004970027089B1C1905992B
:104D2C000122039800F09CFB3100059000F002FC7E
:104D3C000028B2DC08B9ED07AFD423001C00013BFE
:104D4C001A78302AFAD0C4E4089A9A42A6D10D9B5C
:104D5C0001330D9331231370BBE4269B002B01D040
:104D6C00FFF799FA114BFFF7B7FA229B012B00DCE6
:104D7C0056E60120149D70E6069B002B00DCB4E681
:104D8C00002431000598FFF7B5F9089B3030185511
:104D9C00069B01340500A342B8DD00230A220599C5
:104DAC00039800F06BF90590EBE7C046F1D90008C9
:104DBC0070B505000C0079B1043C2368002B00DAB7
:104DCC00E418280000F0E8F81C4A13682BB963605B
:104DDC001460280000F0E8F870BDA34208D92068E0
:104DEC0021188B42F3D119685B6809182160EEE732
:104DFC001A005B680BB1A342FAD911685018A04293
:104E0C000BD120680918501811608342E1D1186841
:104E1C005B68411811605360DBE7A04202D90C2398
:104E2C002B60D6E7206821188B4203D119685B6888
:104E3C000918216063605460CBE7C046B4050020BC
:104E4C0010B5034B0100186800F026F810BDC046E1
:104E5C001800002070B50F4E0D003168040011B918
:104E6C0001F01EFE30602900200001F019FE431CE9
:104E7C0003D101256D42280070BD0323C51C9D4341
:104E8C00A842F8D0291A200001F00AFE0130F2D114
:104E9C00EFE7C046B0050020F7B50322CB1C9343C7
:104EAC00083305001F000C2B34D20C27B94233D821
:104EBC00384E280000F070F833681C00002C2FD1FD
:104ECC0039002800FFF7C6FF0400431C5FD134688B
:104EDC000094009B002B4AD1002C52D02368280050
:104EEC00E3180099019301F0DBFD019B834248D14B
:104EFC0023682800FF1A3900FFF7ACFF013040D0BF
:104F0C002368DB19236033685A68002A33D1009B6D
:104F1C00336019E0002BC9DA0C232B600020FEBD96
:104F2C002168C91B20D40B290AD9E2192760A34296
:104F3C0004D1326063681160536005E05A60F9E790
:104F4C006268A3420ED13260280000F02DF82000D8
:104F5C0007220B30231D9043C21A9842DFD01B1A34
:104F6C00A350DCE75A60EFE723006468A6E7009CD7
:104F7C0063680093ADE71A005B68A342FBD1002382
:104F8C00DAE70C2328002B6000F00EF8C6E7076068
:104F9C00DAE7C046B405002010B50248FFF799F8CF
:104FAC0010BDC046AC05002010B50248FFF792F8C2
:104FBC0010BDC046AC05002070B5C56906000C00DC
:104FCC0075B91020FFF73CFF0200F06120B96B218E
:104FDC00174B184801F08AFD456085600560C56077
:104FEC00F569EB688BB1F369A200DB689B18186854
:104FFC00B8B901210D00A5406A1D3000920001F0E6
:10500C0093FD60B1446085600DE0212204213000E5
:10501C0001F08AFDF369E860DB68002BE3D1002026
:10502C0070BD02681A6000230361C360F8E7C046D4
:10503C00FED900087FDA000870B5C66905000C00BF
:10504C0076B91020FFF7FCFE0200E86120B98F2131
:10505C00084B094801F04AFD466086600660C66050
:10506C003CB1EB696268DB6892009B181A6822609D
:10507C001C6070BDFED900087FDA0008F7B50F0080
:10508C0001900C001E0000200D6914373B680130A4
:10509C0099B251431B0C534389190E0C9B191E0CCE
:1050AC0089B21B045B1808C78542EFDC16B3A368F2
:1050BC00AB4219DC616801980131FFF77DFF0700F5
:1050CC0028B90200BA210C4B0C4801F00FFD21004D
:1050DC0022690C31023292000C3001F0F7FC2100F5
:1050EC000198FFF7A9FF3C002B1D9B00E31801352D
:1050FC005E6025612000FEBD6EDA00087FDA0008D4
:10510C00F7B5150009220C000700002101930833A4
:10511C0093FBF2F3083A9A420ADB3800FFF74CFF94
:10512C00010040B902001A4B1A48D33101F0DEFCE1
:10513C0052000131EFE7089B436101230361092D04
:10514C0018DD230009331E000093641933780A22FA
:10515C003800303BFFF792FF01360100A642F5D133
:10516C002C00009B083C1C192E00019B9E4204DB6A
:10517C000800FEBD09250A34F6E7631B9B5D0A2275
:10518C003800303BFFF77AFF01360100EDE7C046EF
:10519C006EDA00087FDA00084FF6FF720300002079
:1051AC00934201D81B04103080225204934201D246
:1051BC0008301B0280225205934201D204301B019D
:1051CC008022D205934201D202309B00002B03DBDC
:1051DC000130134200D120207047036801000722E0
:1051EC001800104013420DD0063A0020134205D18E
:1051FC000230034203D0D34010000B6070479B0871
:10520C000B60FBE79AB20AB910201B0CDAB20AB990
:10521C0008301B0A1A0701D104301B099A0701D167
:10522C0002309B08DA07EBD45B080130002BE7D186
:10523C002020E3E710B50C000121FFF7BDFE30B9CB
:10524C00020040F24511044B044801F04FFC0123CD
:10525C004461036110BDC0466EDA00087FDA0008B5
:10526C00F0B514000A6923690D0089B09A4202DB7B
:10527C0023000C001D0027692E696168BB1900937F
:10528C00A368BA19934200DA0131FFF795FE844600
:10529C0030B9020040F26211434B444801F026FC45
:1052AC000200BB1914329B00D31801930021130088
:1052BC000198834228D32300BF0014330493143580
:1052CC00DB19B6000293AB19079304230593230053
:1052DC0002991533994205D30C1B153CA4080134D3
:1052EC00A3000593079B9D4210D3009B002B05DD6B
:1052FC00019B043B01931B68002B51D06346604615
:10530C00009A1A6109B0F0BD02C3D1E72C68A4B2AF
:10531C00FCB100231700049E039308CE3968069352
:10532C006B461B8B88B263431B180398090C1B1824
:10533C000698000C60434018190C4118080C9BB2DD
:10534C0009041943029B039002C7B342E5D8059B9D
:10535C00D0502C68240C04B3002110001368049E58
:10536C0003913168076889B261433F0CC919039FE7
:10537C009BB2C9190F041F43076080CE43683F0CD2
:10538C0067439BB2090CFB185B18190C039102992B
:10539C000430B142E5D80599535004350432A1E7E5
:1053AC00009B013B0093A0E76EDA00087FDA00084F
:1053BC00F7B50323150007000E001A401D4208D054
:1053CC002449013A9200525800233100FFF756FE4F
:1053DC000600AD10DDB3FC697CB91020FFF730FD81
:1053EC000200F86128B940F2B3111B4B1B4801F0C5
:1053FC007DFB446084600460C460FB699C6801931D
:10540C004CB940F271213800FFF714FF019B0400E6
:10541C0098600023036001231D420AD03100220052
:10542C003800FFF71DFF310001903800FFF704FE34
:10543C00019E6D105DB1206838B922002100380042
:10544C00FFF70EFF0023206003600400E3E7300049
:10545C00FEBDC04694DB0008FED900087FDA0008C8
:10546C00F0B50C0016002369571185B0FB18019399
:10547C00013300934968A3680290009A93420FDBB2
:10548C000298FFF799FD0023010005001A00143162
:10549C0060B9020040F2DE11244B254801F026FBD6
:1054AC0001315B00E9E798000A500133BB42FADB9B
:1054BC00FB43DB171F40BF0023001F20C919370017
:1054CC002269143392009A180740064228D0013002
:1054DC00C01B03908C4600201E68BE4006436046ED
:1054EC0040C08446039E01CBF0409A42F4D826007B
:1054FC0015360423B24204D3131B153B9B0801330E
:10550C009B00C85010B1019B02330093009B029882
:10551C00013B21002B61FFF78FFD280005B0F0BD8A
:10552C0001CB01C19A42FBD8F0E7C0466EDA000805
:10553C007FDA000830B50B6904690200E01A9C425E
:10554C000FD114329B0014311400C918D218043A2C
:10555C00043915680B689D4204D001209D4200D28D
:10556C00023830BD9442F2D3FBE70000F0B50C00DA
:10557C0087B00090110020001700FFF7DBFF05003B
:10558C0088B901000098FFF717FD020028B940F216
:10559C0037213F4B3F4801F0A9FA012345610361D4
:1055AC00100007B0F0BD0026B04203DA23003C0027
:1055BC001F00013661680098FFF7FEFC020018B965
:1055CC0040F24521324BE5E72369143400939B00EC
:1055DC00E318210001943C0002933B6914349B00B6
:1055EC00E31803930300C6608C4600201433049325
:1055FC000593634620CBA9B20E009C4608CC2D0C1B
:10560C0099B2711A09181B0C0814EB1A1B181814F0
:10561C0089B21B041943059B02C30593039BA34248
:10562C00E7D83900039C153104238C4204D3E31BC7
:10563C00153B9B0801339B000199CD1804992E0052
:10564C00CB181F0002998E4210D3029CE91E002039
:10565C008C4204D321000331491B890888001B1894
:10566C00043B196881B1009B136199E7844602CE13
:10567C0088B2604400140C0C04196144201489B2E3
:10568C002404214302C7DDE7009901390091E7E7C3
:10569C006EDA00087FDA000810B500240C4B0D4AB6
:1056AC000B409B18A34206DC5B421A15132A05DC3F
:1056BC0080231B0313411900200010BD143A012450
:1056CC001E2A02DC80242406D4400023F3E7C046C3
:1056DC000000F07F0000C0FCF7B50600036914362B
:1056EC009B00F3181D1F2C680F0020000193FFF77F
:1056FC0053FD2022121A3A6003001C4A0A2815DCBA
:10570C000B212700091ACF403A438C461100002286
:10571C00AE4202D2019A083A126815339C40634695
:10572C002700DA401743380003B0F0BD0027AE4223
:10573C0002D2019D083D2F680B2149428C469C44A6
:10574C000B2B10D0614620238C405B1A3900D940BA
:10575C000C43224311000022B54201D9043D2A68B2
:10576C006446A740DDE722431100DCE70000F03F70
:10577C00F7B5012116001F00FFF71EFC040030B91D
:10578C00020040F20F31234B234801F0AFF97D00AA
:10579C003B036D0D1B0B15B1802252031343019378
:1057AC001EB368460096FFF718FD019B0099D0B117
:1057BC0020221E00121A96403200C3400A43626136
:1057CC000193019EA661731E9E4101362661A5B10F
:1057DC003526124BED18089B2D181D60099B361AA7
:1057EC001E602000FEBD6161EBE701A8FFF7F5FC30
:1057FC00019B012663612030E8E7094BC018089B28
:10580C001860084BF3189B00E3185869FFF7C4FCA9
:10581C007601E3E76EDA00087FDA0008CDFBFFFFC4
:10582C00CEFBFFFFFFFFFF3FF0B587B00F0004A9D1
:10583C000600FFF751FF00900191009B019C38007E
:10584C0005A902930394FFF747FF0D0002000B001C
:10585C0030693969049E401A05994001711A411842
:10586C000805002908DD0199411803910298039954
:10587C0003F00EF907B0F0BD2B1AF7E770B5140062
:10588C0005000139136949110131890014349B0059
:10589C004118E318A3420DD8140011340025A3427B
:1058AC0003D39B1A113B9B089D0000234019814296
:1058BC0003D870BD40CC40C5ECE708C0F7E7020048
:1058CC00006910B514324B11984213DB0CDD1F2408
:1058DC0008002040214207D099008C582100C1407B
:1058EC00814001208C4204D19B00D318934203D8F1
:1058FC00002010BD0300F7E7043B19680029F5D020
:10590C000120F6E770B516000D00FFF7C5FE6EB16D
:10591C006B236A00520D9B1A002B07DD0024044AEE
:10592C001B059D182B00220003F00EFD70BDC04618
:10593C000000F03FF0B5A3B01B9200220026002718
:10594C0005900E911E921D910A782B2A51D03DD8AC
:10595C000D2A37D8082A37D8002A40D000221292B4
:10596C0000211D9D10912A78302A00D081E06A78A0
:10597C0020318A43582A00D071E00293129B994A35
:10598C0001931EAB009305981FAB1DA901F05EF9A6
:10599C000F2302001A4004000692184205D0062A72
:1059AC0029D1109B01351D9512931B9B13B11D9B87
:1059BC001B9A1360129BCBB1802330001B06F91885
:1059CC0023B0F0BD202AC9D10131BCE72D2AC5D1A5
:1059DC002C3A12924A1C1D924A78002AC0D10E9B76
:1059EC001D93002312931B9B002BE0D13000390038
:1059FC00E6E70022EDE71E9A3AB1352120A8FFF721
:105A0C003DFF1E990598FFF717FB06981F9B013861
:105A1C00042806D8FAF75CFB12031D1F1200209E07
:105A2C00219FE40502D580231B061F436E4B3B428E
:105A3C00BBD101F045F822230360B6E76B49219AEC
:105A4C00209E0A4040F233415B181B051A43170095
:105A5C00E7E7654FE5E70126654F7642E1E71D9BD9
:105A6C005A1C1D925B78302BF9D0002B9DD0012352
:105A7C0010931D9B0A221393002309930F930893F1
:105A8C001D9804782300303BD9B2092926D901226C
:105A9C00584900F0F3FF98B3002023008446089A7D
:105AAC000C9006922022190091430A0000210791C4
:105ABC00452A00D0C8E0069B109A03431343002BE1
:105ACC008DD01D9B0E9301331D930E9B5B782B2B5E
